:100000000C94CE000C94EB000C94EB000C94EB00E1
:100010000C94EB000C94EB000C94EB000C94EB00B4
:100020000C94EB000C94EB000C942B020C94EB0062
:100030000C94EB000C94EB000C94EB000C94EB0094
:100040000C94EB000C94EB000C94EB000C94EB0084
:100050000C94EB000C94EB000C94EB000C947F01DF
:100060000C94EB000C94EB000C94EB000C94EB0064
:100070000C94EB000C94EB000C94EB000C94EB0054
:100080000C94EB000C94EB000C94EB000C94EB0044
:100090000C94EB000C94EB000C94EB000C94EB0034
:1000A0000C94EB000C94EB000C94EB002903500330
:1000B0001B0550031B059803BB031B05E404F70451
:1000C00005010905A101150025013500450175014E
:1000D0009510050919012910810205012507463BE4
:1000E0000175049501651409398142650095018106
:1000F0000126FF0046FF0009300931093209357534
:1001000008950481020600FF0920950181020A2159
:100110002695089102C00902290001010080FA0910
:100120000400000203000000092111010001225611
:100130000007050203400010070581034000041278
:10014000010002000000400D0F92000001010200BA
:1001500001240350004F004B004B0045004E00208F
:100160000043004F004E00540052004F004C004C22
:10017000004500520000001C0348004F0052004997
:1001800000200043004F002E002C004C005400447F
:10019000002E0000000403090400360B11241FBECA
:1001A000CFEFDAE0DEBFCDBF21E0A0E0B1E001C0DB
:1001B0001D92A63DB207E1F710E0CEECD0E004C0FE
:1001C0002197FE010E94570BCD3CD107C9F70E9431
:1001D00023090C945D0B0C9400002091E4003091F5
:1001E000E50095E64091EC00842F817040FF22C02D
:1001F0008091E80080FD1CC080911401882391F05B
:10020000853091F08091EB0085FD10C04091E400B5
:100210005091E5004217530729F39A01915011F7C5
:1002200084E0089582E0089583E0089581E00895D0
:1002300080E008954091E80042FFDECF089580916C
:10024000000187FF11C08091E80082FD05C0809108
:1002500014018111F8CF11C08091E8008B770BC099
:1002600080911401882349F08091E80080FFF8CF45
:100270008091E8008E778093E8000895982F97305A
:1002800058F59093E900981739F07091EC0020919F
:10029000ED005091F00003C0242F762F50E021FF95
:1002A00019C03091EB003E7F3093EB003091ED00B0
:1002B0003D7F3093ED003091EB0031603093EB00E7
:1002C0007093EC002093ED005093F0002091EE002D
:1002D00027FF07C09F5FD3CF8F708093E90081E035
:1002E000089580E008952FB7F89460910D01709102
:1002F0000E0180910F01909110012FBF08951F9260
:100300000F920FB60F9211242F933F938F939F93C9
:10031000AF93BF9380910D0190910E01A0910F01B9
:10032000B091100130910C0123E0230F2D3720F400
:100330000196A11DB11D05C026E8230F0296A11D3F
:10034000B11D20930C0180930D0190930E01A09399
:100350000F01B09310018091080190910901A091C3
:100360000A01B0910B010196A11DB11D80930801F6
:1003700090930901A0930A01B0930B01BF91AF9133
:100380009F918F913F912F910F900FBE0F901F90D3
:100390001895CF93DF93EC011982188220E830E0A2
:1003A0003B832A838FEF90E09D838C831F821E8284
:1003B000998788879B878A871D861C8680E490E0C2
:1003C0009F878E8740EC50E0598B488B5B8B4A8B24
:1003D0009D8B8C8B41E050E05F8B4E8B42E050E078
:1003E000598F488F44E050E05B8F4A8F48E050E0DF
:1003F0005D8F4C8F40E150E05F8F4E8F40E250E0C8
:1004000059A348A39BA38AA33DA32CA380E091E01A
:100410009FA38EA380E092E099A788A780E094E054
:100420009BA78AA780E098E09DA78CA780E090E139
:100430009FA78EA780E090E299AB88AB1AAA1BAA6F
:100440001CAA1DAA0E9473016EAB7FAB88AF99AF47
:10045000DF91CF9108951F920F920FB60F92112442
:100460002F933F934F935F936F937F938F939F93BC
:10047000AF93BF93EF93FF938091E10082FF09C098
:100480008091E20082FF05C08091E1008B7F809324
:10049000E1008091DA0080FF1BC08091D80080FFCE
:1004A00017C08091DA008E7F8093DA008091D900A6
:1004B00080FF0BC080E189BD82E189BD09B400FEE7
:1004C000FDCF81E08093140103C019BC1092140188
:1004D0008091E10080FF17C08091E20080FF13C08F
:1004E0008091E2008E7F8093E2008091E200806143
:1004F0008093E2008091D80080628093D80019BC7C
:1005000085E0809314018091E10084FF2EC08091EA
:10051000E20084FF2AC080E189BD82E189BD09B47F
:1005200000FEFDCF8091D8008F7D8093D800809110
:10053000E1008F7E8093E1008091E2008F7E8093C6
:10054000E2008091E20081608093E20080911301DB
:10055000882311F084E007C08091E30087FD02C08A
:1005600081E001C083E0809314018091E10083FF6A
:1005700022C08091E20083FF1EC08091E100877F4E
:100580008093E10082E08093140110921301809126
:10059000E1008E7F8093E1008091E2008E7F809366
:1005A000E2008091E20080618093E20042E360E03B
:1005B00080E00E943E01FF91EF91BF91AF919F912A
:1005C0008F917F916F915F914F913F912F910F90FC
:1005D0000FBE0F901F9018950F931F93CF93DF932B
:1005E000CDB7DEB7AA970FB6F894DEBF0FBECDBF6A
:1005F00080911401882309F43AC21091E9001F7018
:100600009091EC00892F817090FD80E8182B10925A
:10061000E9008091E80083FF1CC2E0E0F1E088E09F
:100620008E0F9091F10091938E13FBCF8091E80093
:1006300083FF01C28091000190910101492F50E098
:100640004A30510508F0F7C1FA01EA5AFF4F0C94FD
:10065000570B803821F0823809F0EDC108C0809135
:10066000110190911201992389F082600FC080914D
:1006700004018F70873008F0DEC18093E90080911B
:10068000EB0085FB882780F91092E9009091E80043
:10069000977F9093E8008093F1001092F1009FC142
:1006A000282F2D7F09F0C7C1882319F0823061F00F
:1006B000C2C180910201813009F0BDC1933009F0BF
:1006C00080E0809312012EC08091020181112AC026
:1006D000809104018F702FEF280F263008F0ABC1F6
:1006E0008093E9002091EB0020FF1CC0933021F49F
:1006F0008091EB00806214C09091EB009061909328
:10070000EB0021E030E0A90102C0440F551F8A959B
:10071000E2F74093EA001092EA008091EB008860D3
:100720008093EB001092E9008091E800877F5AC126
:10073000811181C1009102010F778091E3008078DF
:10074000802B8093E3008091E800877F8093E8000E
:100750000E941F018091E80080FFFCCF8091E300A0
:1007600080688093E300011102C082E001C083E051
:100770008093140160C18058823008F05CC1809180
:100780000201909103018C3D53E0950709F080C070
:1007900083E08A838AE289834FB7F894DE01139657
:1007A00020E03EE051E2E32FF0E050935700E49167
:1007B00020FF03C0E295EF703F5FEF708E2F90E057
:1007C000EA3010F0C79601C0C0968D939D932F5FBD
:1007D000243149F74FBF8091E800877F8093E8007C
:1007E00020910601309107012A32310510F02AE2EA
:1007F00030E040E0BE016F5F7F4F21153105A1F170
:1008000080911401882309F4D9C0853009F4D6C039
:100810008091E80083FDD2C08091E80082FD33C062
:100820008091E80080FFE9CF4091F3008091F200D1
:1008300090E0942BFB01BF012115310551F080346C
:10084000910538F441914093F1002150310901960E
:10085000F2CF41E08034910509F040E08091E8005A
:100860008E778093E800C9CF4111CACF0CC0809128
:100870001401882309F4A2C0853009F49FC0809137
:10088000E80083FD9BC08091E80082FFF0CF96C016
:10089000292F332723303105D9F06CF4213031056D
:1008A00009F4DBC02230310509F0C5C089E290E0CF
:1008B000E6E1F1E031C02132310509F4D3C0223242
:1008C000310509F0B8C086E590E0E0ECF0E024C026
:1008D00099278130910571F08230910599F0892B2B
:1008E00009F0A9C0E5E9F1E0E4918E2F90E0E5E997
:1008F000F1E00FC0E7E7F1E0E4918E2F90E0E7E749
:10090000F1E007C0E1E5F1E0E4918E2F90E0E1E550
:10091000F1E0009709F48FC02091E800277F209331
:10092000E80020910601309107012817390708F4E3
:10093000C90140E0009789F120911401222309F4B4
:100940003DC02530D9F12091E80023FD37C020912A
:10095000E80022FD2FC02091E80020FFEBCF40915E
:10096000F3002091F20030E0342B009759F020344E
:10097000310540F444914093F100319601972F5F87
:100980003F4FF3CF41E02034310509F040E02091A2
:10099000E8002E772093E800CDCF4111CDCF0AC0DB
:1009A00080911401882351F0853041F08091E80056
:1009B00083FD04C08091E80082FFF2CF8091E800BF
:1009C0008B778093E80037C08038A9F58091E800E4
:1009D000877F8093E800809113018093F1008091DC
:1009E000E8008E778093E8000E941F0124C08111E7
:1009F00022C0009102010230F0F48091E800877F6C
:100A00008093E800009313010E941F01011106C0AA
:100A10008091E30087FD02C081E001C084E0809303
:100A2000140142E360EC82E00E943E0142E361EC8B
:100A300081E00E943E018091E80083FF0AC080911E
:100A4000E800877F8093E8008091EB0080628093CC
:100A5000EB001F701093E9000AC082E190E0EFE321
:100A6000F1E05ACF89E090E0E8E2F1E055CFAA96B4
:100A70000FB6F894DEBF0FBECDBFDF91CF911F91AF
:100A80000F910895EF92FF920F931F93CF93DF93EF
:100A9000CDB7DEB727970FB6F894DEBF0FBECDBF38
:100AA00080911401843009F06CC082E08093E900E9
:100AB0008091E80082FF2CC08091E80085FF23C070
:100AC0000E94ED0081111FC007E010E0CE010196E9
:100AD0007C018091E80085FD0CC08091E8008B7757
:100AE0008093E8000E94EC020E94ED00882341F010
:100AF0000AC08091F100D7018D937D010150110949
:100B00000115110531F78091E8008B778093E8009B
:100B100081E08093E9008091E80080FF32C00E946C
:100B2000ED00882369F08091E8008E778093E800DB
:100B300088E0E6E1F1E0DF011D928A95E9F721C046
:100B400008E010E086E1E82E81E0F82E8091E800D0
:100B500085FD0CC08091E8008E778093E8000E94AC
:100B6000EC020E94ED00882341F0DDCFF701819176
:100B70007F018093F100015011090115110531F732
:100B8000D2CF27960FB6F894DEBF0FBECDBFDF9150
:100B9000CF911F910F91FF90EF9008958F929F92A8
:100BA000AF92BF92CF92DF92EF92FF920F931F937B
:100BB000CF93DF93EC014A015B01680179010E9448
:100BC0007301609354017093550180935601909383
:100BD0005701009150011091510120915201309123
:100BE0005301DC01CB01801B910BA20BB30B8815C9
:100BF0009905AA05BB0558F480911601909117013B
:100C0000C82BD92BD0931701C093160109C0C80C6B
:100C1000D91CEA1CFB1C8C159D05AE05BF0580F494
:100C2000809120018093190180931A0180931B0108
:100C300080931C010E9442050E94EC0281E015C0D5
:100C40000E9473016093500170935101809352018F
:100C500090935301809120018093190180931A0190
:100C600080931B0180931C0180E0DF91CF911F9145
:100C70000F91FF90EF90DF90CF90BF90AF909F903B
:100C80008F9008956F927F928F929F92AF92BF92B2
:100C9000CF92DF92EF92FF920F931F93CF93DF9348
:100CA00000D000D0CDB7DEB7782E662E6701780170
:100CB00029833A834B835C830E94730160935401C0
:100CC0007093550180935601909357018090500185
:100CD00090905101A0905201B0905301DC01CB01E2
:100CE00088199909AA09BB0929813A814B815C813C
:100CF00082179307A407B50728F470921901609230
:100D00001A0122C0C20ED31EE41EF51E8C159D05CD
:100D1000AE05BF0538F480912001809319018093BE
:100D20001A0112C00E947301609350017093510127
:100D30008093520190935301809120018093190177
:100D400080931A0180E005C00E9442050E94EC02D7
:100D500081E00F900F900F900F90DF91CF911F9136
:100D60000F91FF90EF90DF90CF90BF90AF909F904A
:100D70008F907F906F900895CF92DF92EF92FF92C5
:100D80000F931F93CF93DF936C01C0E0D0E0CC159D
:100D9000DD050CF0A2C06091240170912501E12CC9
:100DA000F12C8701E39424E630E040E050E08091AC
:100DB0002001909121010E9442068111ECCF6091A7
:100DC000240170912501E12CF12C8701E39424E6A4
:100DD00030E040E050E080912801909129010E948C
:100DE00042068111ECCF6091200170912101E12C2C
:100DF000F12C8701E39424E630E040E050E080915C
:100E00002801909129010E9442068111ECCF609146
:100E1000260170912701E12CF12C8701E39424E64F
:100E200030E040E050E080912801909129010E943B
:100E300042068111ECCF6091260170912701E12CCF
:100E4000F12C8701E39424E630E040E050E080910B
:100E50002001909121010E9442068111ECCF609106
:100E6000260170912701E12CF12C8701E39424E6FF
:100E700030E040E050E080912A0190912B010E94E7
:100E800042068111ECCF6091200170912101E12C8B
:100E9000F12C8701E39424E630E040E050E08091BB
:100EA0002A0190912B010E9442068111ECCF6091A2
:100EB000240170912501E12CF12C8701E39424E6B3
:100EC00030E040E050E080912A0190912B010E9497
:100ED00042068111ECCF21965ACFDF91CF911F911D
:100EE0000F91FF90EF90DF90CF9008950F931F9395
:100EF00008EB1BE020E030E04CE251E060E070E005
:100F000080913601909137010E94CE058111F0CF7A
:100F100008EB1BE020E030E04CE251E060E070E0E4
:100F200080913601909137010E94CE058111F0CF5A
:100F300008EB1BE020E030E04CE251E060E070E0C4
:100F400080913601909137010E94CE058111F0CF3A
:100F500008EB1BE020E030E04CE251E060E070E0A4
:100F600080913601909137010E94CE058111F0CF1A
:100F700008EB1BE020E030E04CE251E060E070E084
:100F800080913601909137010E94CE058111F0CFFA
:100F900008EB1BE020E030E04CE251E060E070E064
:100FA00080913601909137010E94CE058111F0CFDA
:100FB0001F910F910895CF92DF92EF92FF920F93BE
:100FC0001F93CF93DF936C0108EE13E020E030E035
:100FD00044E650E060E070E0809138019091390182
:100FE0000E94CE058111F0CF04EF11E020E030E047
:100FF00044E650E060E070E0809138019091390162
:101000000E94CE058111F0CF06E910E020E030E02B
:1010100046E950E060E070E0809136019091370140
:101020000E94CE058111F0CF06E910E020E030E00B
:1010300046E950E060E070E0809136019091370120
:101040000E94CE058111F0CF06E910E020E030E0EB
:1010500046E950E060E070E0809136019091370100
:101060000E94CE058111F0CF609126017091270179
:10107000E12CF12C8701E3942CE231E040E050E0D8
:1010800080912A0190912B010E9442068111ECCFA0
:101090000CED15E020E030E046E950E060E070E063
:1010A00080913801909139010E94CE058111F0CFD5
:1010B00008EE13E020E030E044E650E060E070E04D
:1010C00080913801909139010E94CE058111F0CFB5
:1010D00008EE13E020E030E044E650E060E070E02D
:1010E00080913801909139010E94CE058111F0CF95
:1010F00008EE13E020E030E044E650E060E070E00D
:1011000080913801909139010E94CE058111F0CF74
:101110000CED15E020E030E044E650E060E070E0E7
:1011200080913801909139010E94CE058111F0CF54
:10113000C0E0D0E0CC15DD05D4F42097B1F060918B
:101140002601709127011CE2E12EFF24F39400E0B8
:1011500010E024E630E040E050E0809120019091E2
:1011600021010E9442068111EACF2196E3CF04ECCF
:1011700019E020E030E044E650E060E070E080916B
:101180003801909139010E94CE058111F0CF04EC15
:1011900019E020E030E044E650E060E070E080914B
:1011A0003601909137010E94CE058111F0CF04ECF9
:1011B00019E020E030E044E650E060E070E080912B
:1011C0003601909137010E94CE058111F0CFDF9159
:1011D000CF911F910F91FF90EF90DF90CF900895E6
:1011E000EF92FF920F931F9360912401709125015C
:1011F00014E6E12EF12C00E010E028EE33E040E0B0
:1012000050E080912001909121010E9442068111BD
:10121000EBCF609124017091250114E6E12EF12CB1
:1012200000E010E028E833E140E050E08091280140
:10123000909129010E9442068111EBCF1F910F91DD
:10124000FF90EF900895789484B5826084BD84B552
:10125000816084BD85B5826085BD85B5816085BDB1
:1012600080916E00816080936E0010928100809169
:1012700081008260809381008091810081608093F1
:101280008100809180008160809380008091910036
:1012900082608093910080919100816080939100A1
:1012A000809190008160809390008091C100846063
:1012B0008093C1008091C10082608093C1008091C1
:1012C000C10081608093C1008091C30081608093E0
:1012D000C3008091C00082608093C0008091C200F2
:1012E00081608093C20080917A00846080937A004C
:1012F00080917A00826080937A0080917A00816088
:1013000080937A0080917A00806880937A0084B715
:10131000877F84BF0FB6F894A8958091600088619C
:1013200080936000109260000FBE20E030E080E803
:101330000FB6F89480936100209361000FBE8091F6
:10134000D8008F7E8093D8008091D70081608093F1
:10135000D70084E082BF81E0809315018091D8009E
:101360008E7F8093D8001092E2001092DA001092E3
:10137000E1008091D8008F778093D8008091D800C9
:1013800080688093D8008091D8008F7D8093D800AA
:1013900019BC1092140110921301109212011092B4
:1013A00011018091E0008B7F8093E0008091D80054
:1013B00081608093D80042E360E080E00E943E01BB
:1013C0008091E1008E7F8093E1008091E200816056
:1013D0008093E2008091E20088608093E200809137
:1013E000E0008E7F8093E0008091D8008061809340
:1013F000D8007894B0E0CB2EB0E0DB2EC0E80E949D
:10140000730160935401709355018093560190933A
:1014100057010091500110915101209152013091DA
:101420005301DC01CB01801B910BA20BB30B883E57
:101430009340A105B105B8F40E9473016093540173
:10144000709355018093560190935701C0931901F1
:10145000C0931A01C0931B01C0931C010E94420556
:101460000E94EC020AC00E947301609350017093C5
:10147000510180935201909353010E94F00881E042
:1014800090E00E94DB07609120017091210114EF30
:10149000E12EFF24F39400E010E020E233E040E08E
:1014A00050E080912A0190912B010E944206811107
:1014B000EACF8CE290E00E94BC060E94F00882E035
:1014C00090E00E94DB07609120017091210114EFF0
:1014D000E12EFF24F39400E010E020E233E040E04E
:1014E00050E080912A0190912B010E9442068111C7
:1014F000EACF8CE290E00E94BC06609126017091D8
:10150000270114E6E12EF12C00E010E028EE33E094
:1015100040E050E080912001909121010E9442061C
:101520008111EBCF0E94F00883E090E00E94DB077E
:10153000609120017091210114EFE12EFF24F394BA
:1015400000E010E020E233E040E050E080912A012A
:1015500090912B010E9442068111EACF8AE290E02D
:101560000E94BC06609126017091270114E6E12ECD
:10157000F12C00E010E028EE33E040E050E08091F4
:101580002001909121010E9442068111EBCF0E941F
:1015900076070E94F008609120017091210114EFFC
:1015A000E12EFF24F39400E010E020E233E040E07D
:1015B00050E080912A0190912B010E9442068111F6
:1015C000EACF8CE290E00E94BC0660912601709107
:1015D000270114E6E12EF12C00E010E028EE33E0C4
:1015E00040E050E080912001909121010E9442064C
:1015F0008111EBCF0E9476070E94F00860912001D4
:101600007091210114EFE12EFF24F39400E010E02B
:1016100020E233E040E050E080912A0190912B01DC
:101620000E9442068111EACF82E390E00E94BC064C
:10163000609126017091270114E6E12EF12C00E063
:1016400010E028EE33E040E050E0809120019091DE
:1016500021010E9442068111EBCF0E947607C1143E
:10166000D10409F4CCCE0E940000C9CE88E991E0F3
:101670000E94C9018EE191E00E94C90188E591E0D4
:101680000E94C901E8E5F1E013AE12AE15AE14AE4A
:1016900010929701109296010E9473016093D201FB
:1016A0007093D3018093D4019093D5010895EE0FE8
:0E16B000FF1F0590F491E02D0994F894FFCFF0
:2070000055C000006EC000006CC000006AC0000068C0000066C0000064C0000062C0000043
:2070200060C000005EC00000F2C400005AC0000058C0000056C0000054C0000052C00000EE
:2070400050C0000078C000004CC000004AC0000048C0000046C0000044C0000042C00000BE
:2070600040C000003EC000003CC000003AC0000038C0000036C0000034C0000032C0000048
:2070800030C000002EC000002CC000002AC0000028C0000026C0000024C0000022C00000A8
:2070A00020C000001EC000001CC0000011241FBECFEFDAE0DEBFCDBF11E0A0E0B1E0E2E3BC
:2070C000FFE702C005900D92A83AB107D9F711E0A8EAB1E001C01D92AE3BB107E1F78FD30B
:2070E00026C78ECFF89410926F0010928100109285001092840081E085BF15BE47985D9AEB
:20710000289A0C94000008952091B2013091B3012F5F3F4F3093B3012093B201932F37FFA6
:2071200003C08EEF831B982F990F921710F447980895479A08951F920F920FB60F9211246E
:207140002F938F939F93EF93FF9310928500109284008091A8019091A901009741F00197D3
:207160009093A9018093A801892B09F45D9A8091AA019091AB01009741F001979093AB0126
:207180008093AA01892B09F4289AE0E0F0E0859194918F5F9F4F49F08091AC019091AD0151
:2071A00001969093AD018093AC01FF91EF919F918F912F910F900FBE0F901F90189584E0BC
:2071C0008093E9000DC08091E8008B778093E80003C08EB3882351F08091E80082FFF9CFBE
:2071E0008091E80085FFEFCF8091F1000895982F83E08093E9008091E80085FD0DC0809136
:20720000E8008E778093E80003C08EB3882369F08091E80080FFF9CF9093F1005D9884E6CB
:2072200090E09093A9018093A80108954F925F926F927F928F929F92AF92BF92CF92DF921E
:20724000EF92FF920F931F93CF93DF9384E08093E9008091E80082FF57C2289884E690E067
:207260009093AB018093AA01AADF182F853481F48CE49DE19093AD018093AC0107B600FC4B
:20728000FDCFF999FECF81E180935700E89503C0843519F494DF8DE00DC28C34E1F38035F9
:2072A000D1F3843721F484E4A2DF80E003C2813611F489E5FFC18134B1F481DF182F7FDFE3
:2072C00090E0880F991FAA2797FDA095BA2F312F330F20E0442737FD4095542F822B932B68
:2072E000A42BB52BB8C1803711F483E5E3C1833549F4C0E0D1E089917ADF21E0C730D20714
:20730000D1F7D9C1863521F481E371DF80E3D2C1833731F487E86BDF85E969DF8EE1CAC149
:207320008536B9F4E0E0F0E093E085E090935700E89507B600FCFDCF80935700E89507B65D
:2073400000FCFDCFE058FF4FA0E7E030FA0771F7A2CF823739F4E1E0F0E089E08093570024
:207360008491A8C1863439F4E0E0F0E089E08093570084919FC18E3439F4E3E0F0E089E0E5
:2073800080935700849196C1813539F4E2E0F0E089E08093570084918DC1823631F489E521
:2073A00026DF80E024DF80E885C1823419F0873609F0E5C01092AD011092AC0100DF082FE8
:2073C000FEDEF82EFCDE682E8554823008F071C1902F80E0CF2DD0E0C82BD92B10926F00B3
:2073E000173609F04BC081E180935700E895DD24CC24C3943FC0E090AE01F090AF010091CC
:20740000B0011091B101B6E46B16D9F4ED2DF0E0EE29FF29E4918E2FEADEDD2081F082E08D
:2074200090E0A0E0B0E0E80EF91E0A1F1B1FE092AE01F092AF010093B0011093B101DC2470
:2074400018C0D801C701B695A7959795879559D5CEDE82E090E0A0E0B0E0E80EF91E0A1FF2
:207460001B1FE092AE01F092AF010093B0011093B1012197209709F0BECF7DC08090AE01F5
:207480009090AF01A090B001B090B10196E4691609F05DC083E0F40180935700E89507B63E
:2074A00000FCFDCF54C0F6E46F1661F5772031F1E090AE01F090AF010091B0011091B1019E
:2074C0007EDED82ECC24852D90E08C299D29F7010C0140925700E895112482E090E0A0E08B
:2074E000B0E0E80EF91E0A1F1B1FE092AE01F092AF010093B0011093B10102C060DE582E1A
:20750000742423C0E090AE01F090AF010091B0011091B10116950795F794E79450DE682FFA
:20752000C701F7D48091AE019091AF01A091B001B091B1010296A11DB11D8093AE01909349
:20754000AF01A093B001B093B101219704C05524772444244394209709F0A5CF96E46916B6
:2075600041F485E0F40180935700E89507B600FCFDCF8DE03CDE82E080936F009CC0833492
:2075800071F40091AE011091AF0119DE90E021E0F8010C0120935700E89511247CCE8336C8
:2075A00019F5E090AE01F090AF010091B0011091B10105DEF701E16090E021E00C0120938C
:2075C0005700E895112482E090E0A0E0B0E0E80EF91E0A1F1B1FE092AE01F092AF0100936A
:2075E000B0011093B10157CE8D3661F4E091AE01F091AF0185E080935700E89507B600FCF2
:20760000FDCF49CE823551F4E091AE01F091AF0105911491812FEBDD802F4CC0843421F5FE
:20762000E090AE01F090AF010091B0011091B10116950795F794E794C2DD682FC70169D4DE
:207640008091AE019091AF01A091B001B091B1010296A11DB11D8093AE019093AF01A093D8
:20766000B001B093B10117CE843609F5E090AE01F090AF010091B0011091B101D801C70142
:20768000B695A795979587953CD4B1DD82E090E0A0E0B0E0E80EF91E0A1F1B1FE092AE010A
:2076A000F092AF010093B0011093B10104C08B3111F08FE39CDD83E08093E9009091E8002B
:2076C0008091E8008E778093E80095FF04C010C08EB38823C9F08091E80080FFF9CF809193
:2076E000E8008E778093E80003C08EB3882361F08091E80080FFF9CF84E08093E9008091F1
:20770000E8008B778093E800DF91CF911F910F91FF90EF90DF90CF90BF90AF909F908F90AC
:207720007F906F905F904F9008959091B601892F8F77813249F58091B7018032A1F081328A
:2077400019F5913A09F58091E800877F8093E8008DE091E067E070E00BD28091E8008B770B
:207760008093E8000895913279F48091E800877F8093E8008DE091E067E070E05DD2809192
:20778000E8008E778093E800089582E061EC42E0B5D083E061E842E1B1D084E060E842E1EF
:2077A000ADC084B7877F84BF88E10FB6F89480936000109260000FBE20E880E090E00FB63F
:2077C000F89420936100809361000FBE81E085BF92E095BF3F9A209A559AE1E6F0E02083A1
:2077E000108247985D9A289A109289008AEF8093880090936F0083E080938100F0C0409116
:20780000000850910108109201081092000894B714BE88E10FB6F8948093600010926000D5
:207820000FBE292F30E0F901E270F07091FD18C090FF05C0859194918F5F9F4F81F423FFFF
:207840000FC08091090190910A014817590741F0E0E0F0E0859194918F5F9F4F09F042DC64
:20786000A0DF78941092AD011092AC010CC0DEDC36D38091AC019091AD0181549F4110F00D
:207880001092140141DC80911401882381F78091E00081608093E00025DC80E090E0089598
:2078A000FA01923049F0933061F09130F9F485E191E022E130E01EC087E291E02EE330E04D
:2078C00019C0882329F485E691E024E030E012C0813029F489E691E022E230E00BC0823006
:2078E00029F48DE891E028E130E004C080E090E020E030E091838083C90108958093E9004E
:207900008091EB0081608093EB001092ED006093EC004093ED008091EE00881F8827881F62
:2079200008958091B60188238CF403C08EB38823B1F08091E80082FFF9CF8091E8008B772A
:207940008093E80008958EB3882349F08091E80080FFF9CF8091E8008E778093E800089594
:20796000EF92FF920F931F9345D04CD008ED10E0F80180818F77808380818068808380819B
:207980008F7D808319BC1EBA1092B40180EEE82EF12CF70180818B7F8083F8018081816052
:2079A000808380E060E042E0A9DFE1EEF0E080818E7F8083E2EEF0E0808181608083808144
:2079C00088608083F70180818E7F8083F8018081806180831F910F91FF90EF900895E7ED06
:2079E000F0E08081816080838AE482BF81E08093B501B6CFE8EDF0E080818E7F808310921C
:207A0000E20008951092DA001092E10008951F920F920FB60F9211242F933F934F935F93F6
:207A20006F937F938F939F93AF93BF93EF93FF938091DA0080FF1BC08091D80080FF17C0B2
:207A40008091DA008E7F8093DA008091D90080FF0BC080E189BD82E189BD09B400FEFDCF36
:207A600081E08EBB3BD203C019BC1EBA37D28091E10080FF17C08091E20080FF13C0809138
:207A8000E2008E7F8093E2008091E20080618093E2008091D80080628093D80019BC85E049
:207AA0008EBB1CD28091E10084FF2CC08091E20084FF28C080E189BD82E189BD09B400FEC5
:207AC000FDCF8091D8008F7D8093D8008091E1008F7E8093E1008091E2008F7E8093E20012
:207AE0008091E20081608093E2008091B401882331F48091E30087FD02C081E001C084E067
:207B00008EBBECD18091E10083FF21C08091E20083FF1DC08091E100877F8093E10082E06A
:207B20008EBB1092B4018091E1008E7F8093E1008091E2008E7F8093E2008091E2008061E9
:207B40008093E20080E060E042E0D8DEC7D1FF91EF91BF91AF919F918F917F916F915F9130
:207B60004F913F912F910F900FBE0F901F9018959C014091BC015091BD014617570718F49D
:207B8000F90190E044C06115710511F0AB01F8CF8091E8008E778093E80040E050E0F0CF0F
:207BA0008EB3882309F444C0853009F443C08091E80083FF02C081E008958091E80082FD70
:207BC00031C08091E80080FF22C08091F3009091F200782F60E0292F30E0262B372B07C07A
:207BE00081918093F100415050402F5F3F4F4115510519F02830310598F390E02830310566
:207C000009F491E08091E8008E778093E8004115510531F6992321F605C08EB3882341F075
:207C2000853041F08091E80082FFF7CF80E0089582E0089583E008959C016115710529F47C
:207C40008091E8008B778093E800F90126C08EB3882391F1853091F18091E80083FF02C06C
:207C600081E008958091E80082FFF1CF06C08091F10081936150704059F02091F300809191
:207C8000F200322F20E090E0822B932B892B79F78091E8008B778093E80061157105B9F601
:207CA00005C08EB3882341F0853041F08091E80080FFF7CF80E0089582E0089583E00895C2
:207CC0000F931F93DF93CF9300D0CDB7DEB7E6EBF1E08091F100819381E0EE3BF807C9F792
:207CE00024DD8091E80083FFE4C08091B6019091B701953009F46DC0963040F4913081F1A7
:207D0000913070F0933009F0D4C02AC0983009F4A3C0993009F4B2C0963009F0CAC07CC023
:207D2000803809F4C6C0823809F0C3C08091BA0187708093E9008091EB001092E9002091DB
:207D4000E800277F2093E80090E025E0969587952A95E1F781708093F1001092F10087C0D8
:207D6000882319F0823009F0A4C08F71823009F0A0C08091B801882331F52091BA01277097
:207D800009F497C02093E9008091EB0080FF1BC0933021F48091EB00806213C08091EB0018
:207DA00080618093EB0081E090E002C0880F991F2A95E2F78093EA001092EA008091EB00E5
:207DC00088608093EB001092E9008091E800877F51C0882309F06DC01091B8011F770FB79B
:207DE000F8948091E800877F8093E8009ADD8091E80080FFFCCF8091E3008078812B809398
:207E0000E30080688093E300112311F482E001C083E08EBB0FBF4DC08058823008F049C033
:207E20008091B8019091B9016091BA01AE014F5F5F4F36DDBC01009709F43BC08091E8008E
:207E4000877F8093E80089819A8192DE8091E8008B778093E8002DC0803859F58091E800AA
:207E6000877F8093E8008091B4018093F1008091E8008E778093E80054DD1BC08823C9F4CA
:207E80009091B8019230A8F48091E800877F8093E8009093B40145DD8091B401882331F420
:207EA0008091E30087FD02C081E001C084E08EBB6CDC8091E80083FF0AC08091EB0080624E
:207EC0008093EB008091E800877F8093E8000F900F90CF91DF911F910F91089508951F9360
:207EE0008EB3882361F01091E9001092E9008091E80083FF01C0E4DE17701093E9001F916F
:207F00000895F999FECF92BD81BDF89A992780B50895262FF999FECF1FBA92BD81BD20BDBD
:207F20000FB6F894FA9AF99A0FBE01960895F894FFCF4341544552494E4100777700080031
:207F40000000000000080112011001020000084123360001000201000109023E00020100FF
:207F600080320904000001020201000524001001042402040524060001070582030800FF0C
:207F800009040100020A000000070504021000010705830210000104030904220341007216
:207FA000006400750069006E006F0020004C0065006F006E006100720064006F0000001836
:1A7FC00003410072006400750069006E006F0020004C004C004300000000D7
:00000001FF
