:100000000C94CE000C94F6000C94F6000C94F600C0
:100010000C94F6000C94F6000C94F6000C94F60088
:100020000C94F6000C94F6000C94FF0A0C94F60065
:100030000C94F6000C94F6000C94F6000C94F60068
:100040000C94F6000C94F6000C94F6000C94F60058
:100050000C94F6000C94F6000C94F6000C94B50A7F
:100060000C94F6000C94F6000C94F6000C94F60038
:100070000C94F6000C94F6000C94F6000C94F60028
:100080000C94F6000C94F6000C94F6000C94F60018
:100090000C94F6000C94F6000C94F6000C94F60008
:1000A0000C94F6000C94F6000C94F6002902500211
:1000B0001B0450021B049802BB021B04E403F70359
:1000C00005010905A101150025013500450175014E
:1000D0009510050919012910810205012507463BE4
:1000E0000175049501651409398142650095018106
:1000F0000126FF0046FF0009300931093209357534
:1001000008950481020600FF0920950181020A2159
:100110002695089102C00902290001010080FA0910
:100120000400000203000000092111010001225611
:100130000007050203400010070581034000041278
:10014000010002000000400D0F92000001010200BA
:1001500001240350004F004B004B0045004E00208F
:100160000043004F004E00540052004F004C004C22
:10017000004500520000001C0348004F0052004997
:1001800000200043004F002E002C004C005400447F
:10019000002E0000000403090400C00B11241FBE40
:1001A000CFEFDAE0DEBFCDBF22E0AAE2B1E001C0CE
:1001B0001D92A430B207E1F711E0A0E0B1E0E8E859
:1001C000FEE102C005900D92AA32B107D9F710E006
:1001D000CEECD0E004C02197FE010E942C0DCD3C56
:1001E000D107C9F70E94E10B0C94420F0C94000058
:1001F0002FB7F894609137017091380180913901DF
:1002000090913A012FBF0895CF93DF93EC011982AB
:10021000188220E830E03B832A838FEF90E09D83B3
:100220008C831F821E82998788879B878A871D8679
:100230001C8680E490E09F878E8740EC50E0598BCD
:10024000488B5B8B4A8B9D8B8C8B41E050E05F8BA6
:100250004E8B42E050E0598F488F44E050E05B8F76
:100260004A8F48E050E05D8F4C8F40E150E05F8F57
:100270004E8F40E250E059A348A39BA38AA33DA31D
:100280002CA380E091E09FA38EA380E092E099A749
:1002900088A780E094E09BA78AA780E098E09DA7CC
:1002A0008CA780E090E19FA78EA780E090E299ABB9
:1002B00088AB1AAA1BAA1CAA1DAA0E94F8006EAB42
:1002C0007FAB88AF99AFDF91CF9108952091E40083
:1002D0003091E50095E64091EC00842F817040FF5D
:1002E00022C08091E80080FD1CC080913E018823DF
:1002F00091F0853091F08091EB0085FD10C0409128
:10030000E4005091E5004217530729F39A019150F8
:1003100011F784E0089582E0089583E0089581E074
:10032000089580E008954091E80042FFDECF0895EF
:1003300080912A0187FF11C08091E80082FD05C0ED
:1003400080913E018111F8CF11C08091E8008B7738
:100350000BC080913E01882349F08091E80080FF26
:10036000F8CF8091E8008E778093E8000895982F69
:10037000973058F59093E900981739F07091EC0098
:100380002091ED005091F00003C0242F762F50E013
:1003900021FF19C03091EB003E7F3093EB0030918C
:1003A000ED003D7F3093ED003091EB0031603093F4
:1003B000EB007093EC002093ED005093F00020913F
:1003C000EE0027FF07C09F5FD3CF8F708093E900B7
:1003D00081E0089580E008950F931F93CF93DF93FA
:1003E000CDB7DEB7AA970FB6F894DEBF0FBECDBF6C
:1003F00080913E01882309F43AC21091E9001F70F0
:100400009091EC00892F817090FD80E8182B10925C
:10041000E9008091E80083FF1CC2EAE2F1E088E095
:100420008E0F9091F10091938E13FBCF8091E80095
:1004300083FF01C280912A0190912B01492F50E046
:100440004A30510508F0F7C1FA01EA5AFF4F0C94FF
:100450002C0D803821F0823809F0EDC108C0809160
:100460003B0190913C01992389F082600FC08091FB
:100470002E018F70873008F0DEC18093E9008091F3
:10048000EB0085FB882780F91092E9009091E80045
:10049000977F9093E8008093F1001092F1009FC144
:1004A000282F2D7F09F0C7C1882319F0823061F011
:1004B000C2C180912C01813009F0BDC1933009F097
:1004C00080E080933C012EC080912C0181112AC0D4
:1004D00080912E018F702FEF280F263008F0ABC1CE
:1004E0008093E9002091EB0020FF1CC0933021F4A1
:1004F0008091EB00806214C09091EB00906190932A
:10050000EB0021E030E0A90102C0440F551F8A959D
:10051000E2F74093EA001092EA008091EB008860D5
:100520008093EB001092E9008091E800877F5AC128
:10053000811181C100912C010F778091E3008078B7
:10054000802B8093E3008091E800877F8093E80010
:100550000E9498018091E80080FFFCCF8091E30029
:1005600080688093E300011102C082E001C083E053
:1005700080933E0160C18058823008F05CC1809158
:100580002C0190912D018C3D53E0950709F080C01E
:1005900083E08A838AE289834FB7F894DE01139659
:1005A00020E03EE051E2E32FF0E050935700E49169
:1005B00020FF03C0E295EF703F5FEF708E2F90E059
:1005C000EA3010F0C79601C0C0968D939D932F5FBF
:1005D000243149F74FBF8091E800877F8093E8007E
:1005E00020913001309131012A32310510F02AE298
:1005F00030E040E0BE016F5F7F4F21153105A1F172
:1006000080913E01882309F4D9C0853009F4D6C011
:100610008091E80083FDD2C08091E80082FD33C064
:100620008091E80080FFE9CF4091F3008091F200D3
:1006300090E0942BFB01BF012115310551F080346E
:10064000910538F441914093F10021503109019610
:10065000F2CF41E08034910509F040E08091E8005C
:100660008E778093E800C9CF4111CACF0CC080912A
:100670003E01882309F4A2C0853009F49FC080910F
:10068000E80083FD9BC08091E80082FFF0CF96C018
:10069000292F332723303105D9F06CF4213031056F
:1006A00009F4DBC02230310509F0C5C089E290E0D1
:1006B000E6E1F1E031C02132310509F4D3C0223244
:1006C000310509F0B8C086E590E0E0ECF0E024C028
:1006D00099278130910571F08230910599F0892B2D
:1006E00009F0A9C0E5E9F1E0E4918E2F90E0E5E999
:1006F000F1E00FC0E7E7F1E0E4918E2F90E0E7E74B
:10070000F1E007C0E1E5F1E0E4918E2F90E0E1E552
:10071000F1E0009709F48FC02091E800277F209333
:10072000E80020913001309131012817390708F491
:10073000C90140E0009789F120913E01222309F48C
:100740003DC02530D9F12091E80023FD37C020912C
:10075000E80022FD2FC02091E80020FFEBCF409160
:10076000F3002091F20030E0342B009759F0203450
:10077000310540F444914093F100319601972F5F89
:100780003F4FF3CF41E02034310509F040E02091A4
:10079000E8002E772093E800CDCF4111CDCF0AC0DD
:1007A00080913E01882351F0853041F08091E8002E
:1007B00083FD04C08091E80082FFF2CF8091E800C1
:1007C0008B778093E80037C08038A9F58091E800E6
:1007D000877F8093E80080913D018093F1008091B4
:1007E000E8008E778093E8000E94980124C0811170
:1007F00022C000912C010230F0F48091E800877F44
:100800008093E80000933D010E949801011106C009
:100810008091E30087FD02C081E001C084E0809305
:100820003E0142E360EC82E00E94B70142E361ECEA
:1008300081E00E94B7018091E80083FF0AC08091A7
:10084000E800877F8093E8008091EB0080628093CE
:10085000EB001F701093E9000AC082E190E0EFE323
:10086000F1E05ACF89E090E0E8E2F1E055CFAA96B6
:100870000FB6F894DEBF0FBECDBFDF91CF911F91B1
:100880000F910895FC0124813581232B31F421E05F
:1008900061157105A1F0FB0108C0FC018081918107
:1008A0006115710531F421E0FC018081882339F064
:1008B00005C00E94320F21E0892B09F020E0822F31
:1008C0000895EF92FF920F931F93CF93DF93EC0164
:1008D0007B018A0188819981009729F02A813B81D7
:1008E00024173507F8F4B8016F5F7F4F0E945F0E41
:1008F000009759F0998388831B830A832C813D815B
:10090000232B81F4FC0110820DC08881998100970E
:1009100011F00E94C70D198218821D821C821B8251
:100920001A8207C01D830C83B701888199810E94B8
:100930003B0FCE01DF91CF911F910F91FF90EF9070
:100940000895EF92FF920F931F93CF93DF93CDB74C
:10095000DEB727970FB6F894DEBF0FBECDBF8091EC
:100960003E01843009F06CC082E08093E900809100
:10097000E80082FF2CC08091E80085FF23C00E9420
:10098000660181111FC007E010E0CE0101967C01D5
:100990008091E80085FD0CC08091E8008B77809302
:1009A000E8000E94EC010E946601882341F00AC021
:1009B0008091F100D7018D937D010150110901153E
:1009C000110531F78091E8008B778093E80081E092
:1009D0008093E9008091E80080FF32C00E946601A8
:1009E000882369F08091E8008E778093E80088E0A2
:1009F000E0E4F1E0DF011D928A95E9F721C008E00B
:100A000010E080E4E82E81E0F82E8091E80085FD7A
:100A10000CC08091E8008E778093E8000E94EC0182
:100A20000E946601882341F0DDCFF70181917F01AB
:100A30008093F100015011090115110531F7D2CF52
:100A400027960FB6F894DEBF0FBECDBFDF91CF91D2
:100A50001F910F91FF90EF9008958F929F92AF9208
:100A6000BF92CF92DF92EF92FF920F931F93CF939B
:100A7000DF93EC014A015B01680179010E94F800F3
:100A800060937E0170937F01809380019093810138
:100A900000917A0110917B0120917C0130917D01C0
:100AA000DC01CB01801B910BA20BB30B88159905C0
:100AB000AA05BB0558F48091400190914101C82BD3
:100AC000D92BD0934101C093400109C0C80CD91C57
:100AD000EA1CFB1C8C159D05AE05BF0580F48091BA
:100AE0004A018093430180934401809345018093A0
:100AF00046010E94A1040E94EC0181E015C00E9401
:100B0000F80060937A0170937B0180937C0190934D
:100B10007D0180914A018093430180934401809339
:100B200045018093460180E0DF91CF911F910F91A5
:100B3000FF90EF90DF90CF90BF90AF909F908F90FD
:100B400008956F927F928F929F92AF92BF92CF92B1
:100B5000DF92EF92FF920F931F93CF93DF9300D01A
:100B600000D0CDB7DEB7782E662E670178012983D5
:100B70003A834B835C830E94F80060937E017093FC
:100B80007F01809380019093810180907A01909001
:100B90007B01A0907C01B0907D01DC01CB01881924
:100BA0009909AA09BB0929813A814B815C81821785
:100BB0009307A407B50728F470924301609244019B
:100BC00022C0C20ED31EE41EF51E8C159D05AE0577
:100BD000BF0538F480914A0180934301809344011A
:100BE00012C00E94F80060937A0170937B01809399
:100BF0007C0190937D0180914A0180934301809311
:100C0000440180E005C00E94A1040E94EC0181E043
:100C10000F900F900F900F90DF91CF911F910F9138
:100C2000FF90EF90DF90CF90BF90AF909F908F900C
:100C30007F906F9008956F927F928F929F92AF9264
:100C4000BF92CF92DF92EF92FF920F931F93CF93B9
:100C5000DF93EC016B0166E071E00E9442048111B8
:100C600020C069E071E0CE010E94420481111BC0E6
:100C700060E171E0CE010E944204811116C068E17A
:100C800071E0CE010E944204811111C06EE171E059
:100C9000CE010E944204C1E0D0E081110AC0C0E050
:100CA00008C0C5E005C0C4E003C0C3E001C0C2E0A5
:100CB000D0E066E071E0C6010E944204811121C0CB
:100CC00069E071E0C6010E94420481111DC060E12B
:100CD00071E0C6010E944204811119C068E171E00F
:100CE000C6010E944204811115C06EE171E0C60187
:100CF0000E94420491E0C12C811101C090E0D92EE4
:100D00000CC0F5E0DF2E08C0E4E0DE2E05C073E085
:100D1000D72E02C062E0D62EC12C55E0A52EB12CF4
:100D200006E910E020E030E046E950E060E070E0E5
:100D300080916001909161010E942D058111F0CF99
:100D400081E0A81AB10861F760914E0170914F01DE
:100D500018ECE12EF12C00E010E02CE231E040E054
:100D600050E080914A0190914B010E94A1058111B0
:100D7000EBCF08EE13E020E030E046E950E060E021
:100D800070E080916201909163010E942D058111B4
:100D9000F0CF08EE13E020E030E046E950E060E0FC
:100DA00070E080916201909163010E942D05811194
:100DB000F0CF609150017091510118ECE12EF12CAF
:100DC00000E010E024E630E040E050E080914A018D
:100DD00090914B010E94A1058111EBCF60915001D0
:100DE0007091510118ECE12EF12C00E010E024E6A6
:100DF00030E040E050E080914A0190914B010E9428
:100E0000A1058111EBCF04EC19E020E030E046E9C8
:100E100050E060E070E080916201909163010E9477
:100E20002D058111F0CF00E911E020E030E046E926
:100E300050E060E070E080916201909163010E9457
:100E40002D058111F0CF00E911E020E030E046E906
:100E500050E060E070E080916201909163010E9437
:100E60002D058111F0CF812C912C60915001709152
:100E700051011CE2E12EFF24F39400E010E02CE885
:100E80003AE040E050E080914A0190914B010E948D
:100E9000A1058111EACF86E0881691041CF0AD2CE3
:100EA000BC2C01C05E01612C712C6A147B04C9F05A
:100EB00060914E0170914F0118ECE12EF12C00E091
:100EC00010E024E630E040E050E080914A0190914B
:100ED0004B010E94A1058111EBCF8FEF681A780AB0
:100EE000E4CF00E213E020E030E046E950E060E0CB
:100EF00070E080916201909163010E942D05811143
:100F0000F0CF00E213E020E030E046E950E060E09E
:100F100070E080916201909163010E942D05811122
:100F2000F0CF00E213E020E030E046E950E060E07E
:100F300070E080916201909163010E942D05811102
:100F4000F0CF00E213E020E030E046E950E060E05E
:100F500070E080916201909163010E942D058111E2
:100F6000F0CF04E610E020E030E046E950E060E039
:100F700070E080915E0190915F010E942D058111CA
:100F8000F0CFB5E0AB2EB12C04E610E020E030E06D
:100F900046E950E060E070E0809162019091630169
:100FA0000E942D058111F0CF60914A0170914B0193
:100FB00014E6E12EF12C00E010E026E930E040E0FC
:100FC00050E080915201909153010E94A10581113E
:100FD000EBCF81E0A81AB108B9F660914A0170918F
:100FE0004B0114E6E12EF12C00E010E026E930E0A0
:100FF00040E050E080915401909155010E94A1057C
:101000008111EBCF609150017091510114E6E12EF6
:10101000F12C00E010E026E930E040E050E0809163
:101020004A0190914B010E94A1058111EBCF55E03F
:10103000A52EB12C04E610E020E030E046E950E0B7
:1010400060E070E080916201909163010E942D0543
:101050008111F0CF60914A0170914B0114E6E12EAD
:10106000F12C00E010E026E930E040E050E0809113
:101070005401909155010E94A1058111EBCF81E0AF
:10108000A81AB108B9F604EC19E020E030E042E01B
:1010900050E060E070E080916401909165010E94F1
:1010A0002D058111F0CF00EB14E020E030E046E99F
:1010B00050E060E070E080916201909163010E94D5
:1010C0002D058111F0CF609150017091510114E60E
:1010D000E12EF12C00E010E026E930E040E050E0A5
:1010E00080914A0190914B010E94A1058111EBCFA3
:1010F00000E717E120E030E046E950E060E070E012
:1011000080916201909163010E942D058111F0CFC1
:1011100008E813E120E030E046E950E060E070E0EC
:1011200080916201909163010E942D058111F0CFA1
:1011300008EE13E020E030E048EC50E060E070E0C2
:1011400080917601909177010E942D058111F0CF59
:10115000609150017091510118ECE12EF12C00E0EA
:1011600010E028EC30E040E050E080914A0190919E
:101170004B010E94A1058111EBCF94E0A92EB12C67
:1011800060914A0170914B0114E6E12EF12C00E0D0
:1011900010E028EC30E040E050E080915201909166
:1011A00053010E94A1058111EBCF81E0A81AB1087B
:1011B00039F704EF11E020E030E048EC50E060E067
:1011C00070E080916201909163010E942D05811170
:1011D000F0CF609150017091510114E6E12EF12C95
:1011E00000E010E020ED37E040E050E080914A015F
:1011F00090914B010E94A1058111EBCF04EF11E00A
:1012000020E030E048EC50E060E070E08091620166
:10121000909163010E942D058111F0CF60915001E2
:101220007091510114E6E12EF12C00E010E020E96C
:1012300031E040E050E080914A0190914B010E94E2
:10124000A1058111EBCF609150017091510114E61D
:10125000E12EF12C00E010E020E931E040E050E028
:1012600080914A0190914B010E94A1058111EBCF21
:101270000CE211E020E030E048EC50E060E070E08B
:1012800080916201909163010E942D058111F0CF40
:10129000609150017091510114E6E12EF12C00E0B3
:1012A00010E028EE33E040E050E080914A01909158
:1012B0004B010E94A1058111EBCF00E911E020E074
:1012C00030E048EC50E060E070E080916201909185
:1012D00063010E942D058111F0CF60914A01709148
:1012E0004B0110E9E12EFF24F39400E010E028EC1C
:1012F00030E040E050E080915201909153010E9413
:10130000A1058111EACF60914E0170914F0114E661
:10131000E12EF12C00E010E028EC30E040E050E05D
:1013200080914A0190914B010E94A1058111EBCF60
:1013300060914A0170914B0118ECE12EF12C00E014
:1013400010E028EE33E040E050E0809152019091AF
:1013500053010E94A1058111EBCF04EF11E020E0C1
:1013600030E048EC50E060E070E0809162019091E4
:1013700063010E942D058111F0CF08EE13E020E0FB
:1013800030E048EC50E060E070E0809176019091B0
:1013900077010E942D058111F0CF00ED17E020E0CC
:1013A00030E048EC50E060E070E0809162019091A4
:1013B00063010E942D058111F0CF0CE211E020E0C5
:1013C00030E046E950E060E070E080916201909189
:1013D00063010E942D058111F0CF08E813E120E0A0
:1013E00030E046E950E060E070E080916201909169
:1013F00063010E942D058111F0CF23E2A22EB12CB2
:101400000CE211E020E030E046E950E060E070E0FE
:1014100080916001909161010E942D058111F0CFB2
:1014200081E0A81AB10861F708EE13E020E030E08F
:1014300046E950E060E070E08091620190916301C4
:101440000E942D058111F0CF08EE13E020E030E07E
:1014500046E950E060E070E08091620190916301A4
:101460000E942D058111F0CF6091500170915101C2
:1014700018ECE12EF12C00E010E024E630E040E032
:1014800050E080914A0190914B010E94A105811189
:10149000EBCF609150017091510118ECE12EF12CCD
:1014A00000E010E024E630E040E050E080914A01A6
:1014B00090914B010E94A1058111EBCF04EC19E042
:1014C00020E030E046E950E060E070E080916201A9
:1014D000909163010E942D058111F0CF00E911E088
:1014E00020E030E046E950E060E070E08091620189
:1014F000909163010E942D058111F0CF00E911E068
:1015000020E030E046E950E060E070E08091620168
:10151000909163010E942D058111F0CF8FEF881A01
:10152000980A8CE08816910409F09FCC00EA1BEB26
:101530002DE030E046E950E060E070E08091640129
:10154000909165010E942D058111F0CFDF91CF911F
:101550001F910F91FF90EF90DF90CF90BF90AF90D1
:101560009F908F907F906F9008951F920F920FB66B
:101570000F9211242F933F938F939F93AF93BF9319
:101580008091370190913801A0913901B0913A01D1
:101590003091360123E0230F2D3720F40196A11D51
:1015A000B11D05C026E8230F0296A11DB11D209391
:1015B00036018093370190933801A0933901B0939D
:1015C0003A018091320190913301A0913401B091A0
:1015D00035010196A11DB11D809332019093330115
:1015E000A0933401B0933501BF91AF919F918F913A
:1015F0003F912F910F900FBE0F901F9018951F9243
:101600000F920FB60F9211242F933F934F935F9336
:101610006F937F938F939F93AF93BF93EF93FF93BA
:101620008091E10082FF09C08091E20082FF05C045
:101630008091E1008B7F8093E1008091DA0080FF50
:101640001BC08091D80080FF17C08091DA008E7F88
:101650008093DA008091D90080FF0BC080E189BDC2
:1016600082E189BD09B400FEFDCF81E080933E0197
:1016700003C019BC10923E018091E10080FF17C0A9
:101680008091E20080FF13C08091E2008E7F809302
:10169000E2008091E20080618093E2008091D800B6
:1016A00080628093D80019BC85E080933E018091D0
:1016B000E10084FF2EC08091E20084FF2AC080E117
:1016C00089BD82E189BD09B400FEFDCF8091D800BB
:1016D0008F7D8093D8008091E1008F7E8093E10020
:1016E0008091E2008F7E8093E2008091E200816031
:1016F0008093E20080913D01882311F084E007C0CF
:101700008091E30087FD02C081E001C083E0809307
:101710003E018091E10083FF22C08091E20083FFBF
:101720001EC08091E100877F8093E10082E080937A
:101730003E0110923D018091E1008E7F8093E10097
:101740008091E2008E7F8093E2008091E2008061D0
:101750008093E20042E360E080E00E94B701FF91E5
:10176000EF91BF91AF919F918F917F916F915F9119
:101770004F913F912F910F900FBE0F901F90189592
:1017800082EC91E00E94040188E891E00E9404014B
:1017900088E491E00E940401E8E4F1E013AE12AEA7
:1017A00015AE14AE10928701109286010E94F800C7
:1017B0006093FC017093FD018093FE019093FF0103
:1017C0000895CF93DF93CDB7DEB72C970FB6F8947B
:1017D000DEBF0FBECDBF789484B5826084BD84B572
:1017E000816084BD85B5826085BD85B5816085BD1C
:1017F00080916E00816080936E00109281008091D4
:10180000810082608093810080918100816080935B
:1018100081008091800081608093800080919100A0
:10182000826080939100809191008160809391000B
:10183000809190008160809390008091C1008460CD
:101840008093C1008091C10082608093C10080912B
:10185000C10081608093C1008091C300816080934A
:10186000C3008091C00082608093C0008091C2005C
:1018700081608093C20080917A00846080937A00B6
:1018800080917A00826080937A0080917A008160F2
:1018900080937A0080917A00806880937A0084B780
:1018A000877F84BF0FB6F894A89580916000886107
:1018B00080936000109260000FBE20E030E080E86E
:1018C0000FB6F89480936100209361000FBE809161
:1018D000D8008F7E8093D8008091D700816080935C
:1018E000D70084E082BF81E080933F018091D800DF
:1018F0008E7F8093D8001092E2001092DA0010924E
:10190000E1008091D8008F778093D8008091D80033
:1019100080688093D8008091D8008F7D8093D80014
:1019200019BC10923E0110923D0110923C011092A0
:101930003B018091E0008B7F8093E0008091D80094
:1019400081608093D80042E360E080E00E94B701AC
:101950008091E1008E7F8093E1008091E2008160C0
:101960008093E2008091E20088608093E2008091A1
:10197000E0008E7F8093E0008091D80080618093AA
:10198000D800789400E010E01A8219821C821B8231
:101990001E821D8245E050E064E271E0CE010196B6
:1019A0000E94610418861F821A8619861C861B866F
:1019B00045E050E068E171E0CE0107960E946104C5
:1019C000BE016F5F7F4FCE0107960E941B068F817D
:1019D00098850E94C70D89819A810E94C70D0115C3
:1019E000110591F20E940000CFCF2F923F924F92AB
:1019F0005F926F927F928F929F92AF92BF92CF929F
:101A0000DF92EF92FF920F931F93CF93DF93CDB7A7
:101A1000DEB7CA1BDB0B0FB6F894DEBF0FBECDBF1F
:101A200009942A88398848885F846E847D848C84F0
:101A30009B84AA84B984C884DF80EE80FD800C81F9
:101A40001B81AA81B981CE0FD11D0FB6F894DEBFDC
:101A50000FBECDBFED010895EE0FFF1F0590F4916D
:101A6000E02D0994CF93DF938230910510F482E04A
:101A700090E0E0910202F091030220E030E0C0E04B
:101A8000D0E0309711F14081518148175907C0F0DB
:101A90004817590761F482819381209719F09B833D
:101AA0008A832BC0909303028093020226C02115E3
:101AB000310519F04217530718F49A01BE01DF01EE
:101AC000EF010280F381E02DDCCF2115310509F112
:101AD000281B390B2430310590F412968D919C917E
:101AE00013976115710521F0FB019383828304C074
:101AF0009093030280930202FD01329644C0FD01DF
:101B0000E20FF31F81939193225031092D933C935F
:101B10003AC02091000230910102232B41F4209120
:101B200002013091030130930102209300022091C1
:101B30000001309101012115310541F42DB73EB767
:101B40004091040150910501241B350BE0910002E6
:101B5000F0910102E217F307A0F42E1B3F0B2817A8
:101B6000390778F0AC014E5F5F4F2417350748F016
:101B70004E0F5F1F50930102409300028193919397
:101B800002C0E0E0F0E0CF01DF91CF9108950F9324
:101B90001F93CF93DF93009709F48CC0FC01329719
:101BA00013821282009102021091030201151105A5
:101BB00081F420813181820F931F209100023091A6
:101BC00001022817390779F5F0930102E09300022A
:101BD00071C0D80140E050E0AE17BF0750F4129634
:101BE0002D913C911397AD012115310509F1D901D2
:101BF000F3CF9D01DA013383228360817181860FE7
:101C0000971F8217930769F4EC0128813981260F09
:101C1000371F2E5F3F4F318320838A819B819383BF
:101C20008283452B29F4F0930302E093020242C021
:101C30001396FC93EE931297ED01499159919E01F1
:101C4000240F351FE217F30771F480819181840F0F
:101C5000951F029611969C938E9382819381139681
:101C60009C938E931297E0E0F0E0D80112968D914C
:101C70009C911397009719F0F8018C01F6CF8D9184
:101C80009C9198012E5F3F4F820F931F209100027D
:101C9000309101022817390769F4309729F410921E
:101CA00003021092020202C01382128210930102F8
:101CB00000930002DF91CF911F910F910895A0E052
:101CC000B0E0E5E6FEE00C94F90CEC01009721F49D
:101CD000CB010E94320DB8C0FC01E60FF71F9C013A
:101CE00022503109E217F30708F4ACC0D9010D9175
:101CF0001C91119706171707B0F00530110508F46D
:101D00009FC0C80104978617970708F499C002502E
:101D10001109061B170B019311936D937C93CF014F
:101D20000E94C70D8DC05B01A01AB10A4C01800E44
:101D3000911EA0910202B091030240E050E0E12C1C
:101D4000F12C109709F44AC0A815B905D1F56D908A
:101D50007C901197630182E0C80ED11CCA14DB0489
:101D600080F1A3014A195B096A0182E0C80ED11C07
:101D70001296BC9012971396AC91B5E0CB16D10495
:101D800040F0B282A38351834083D9016D937C9349
:101D90000AC00E5F1F4FC301800F911FF90191838D
:101DA0008083EB2DFA2FE114F10431F0D701139663
:101DB000FC93EE93129744C0F0930302E093020267
:101DC0003FC08D919C9111974817590708F4AC01B9
:101DD0007D0112960D90BC91A02DB3CF8091000291
:101DE0009091010288159905E1F446175707C8F448
:101DF0008091000190910101009741F48DB79EB749
:101E00004091040150910501841B950BE817F907D7
:101E1000C8F4F0930102E0930002F901718360833A
:101E20000FC0CB010E94320D7C01009759F0A80130
:101E3000BE010E94290FCE010E94C70DC70104C038
:101E4000CE0102C080E090E0CDB7DEB7EEE00C94AA
:101E5000150DFB01DC0102C001900D924150504074
:101E6000D8F70895FB01DC018D91019080190110D4
:101E7000D9F3990B0895FB01DC0101900D9200202C
:081E8000E1F70895F894FFCF8B
:101E880000000402800068700061747461636B0074
:101E9800646566656E736500737061746B0073705A
:0A1EA80064656600737065656400F0
:2070000055C000006EC000006CC000006AC0000068C0000066C0000064C0000062C0000043
:2070200060C000005EC00000F2C400005AC0000058C0000056C0000054C0000052C00000EE
:2070400050C0000078C000004CC000004AC0000048C0000046C0000044C0000042C00000BE
:2070600040C000003EC000003CC000003AC0000038C0000036C0000034C0000032C0000048
:2070800030C000002EC000002CC000002AC0000028C0000026C0000024C0000022C00000A8
:2070A00020C000001EC000001CC0000011241FBECFEFDAE0DEBFCDBF11E0A0E0B1E0E2E3BC
:2070C000FFE702C005900D92A83AB107D9F711E0A8EAB1E001C01D92AE3BB107E1F78FD30B
:2070E00026C78ECFF89410926F0010928100109285001092840081E085BF15BE47985D9AEB
:20710000289A0C94000008952091B2013091B3012F5F3F4F3093B3012093B201932F37FFA6
:2071200003C08EEF831B982F990F921710F447980895479A08951F920F920FB60F9211246E
:207140002F938F939F93EF93FF9310928500109284008091A8019091A901009741F00197D3
:207160009093A9018093A801892B09F45D9A8091AA019091AB01009741F001979093AB0126
:207180008093AA01892B09F4289AE0E0F0E0859194918F5F9F4F49F08091AC019091AD0151
:2071A00001969093AD018093AC01FF91EF919F918F912F910F900FBE0F901F90189584E0BC
:2071C0008093E9000DC08091E8008B778093E80003C08EB3882351F08091E80082FFF9CFBE
:2071E0008091E80085FFEFCF8091F1000895982F83E08093E9008091E80085FD0DC0809136
:20720000E8008E778093E80003C08EB3882369F08091E80080FFF9CF9093F1005D9884E6CB
:2072200090E09093A9018093A80108954F925F926F927F928F929F92AF92BF92CF92DF921E
:20724000EF92FF920F931F93CF93DF9384E08093E9008091E80082FF57C2289884E690E067
:207260009093AB018093AA01AADF182F853481F48CE49DE19093AD018093AC0107B600FC4B
:20728000FDCFF999FECF81E180935700E89503C0843519F494DF8DE00DC28C34E1F38035F9
:2072A000D1F3843721F484E4A2DF80E003C2813611F489E5FFC18134B1F481DF182F7FDFE3
:2072C00090E0880F991FAA2797FDA095BA2F312F330F20E0442737FD4095542F822B932B68
:2072E000A42BB52BB8C1803711F483E5E3C1833549F4C0E0D1E089917ADF21E0C730D20714
:20730000D1F7D9C1863521F481E371DF80E3D2C1833731F487E86BDF85E969DF8EE1CAC149
:207320008536B9F4E0E0F0E093E085E090935700E89507B600FCFDCF80935700E89507B65D
:2073400000FCFDCFE058FF4FA0E7E030FA0771F7A2CF823739F4E1E0F0E089E08093570024
:207360008491A8C1863439F4E0E0F0E089E08093570084919FC18E3439F4E3E0F0E089E0E5
:2073800080935700849196C1813539F4E2E0F0E089E08093570084918DC1823631F489E521
:2073A00026DF80E024DF80E885C1823419F0873609F0E5C01092AD011092AC0100DF082FE8
:2073C000FEDEF82EFCDE682E8554823008F071C1902F80E0CF2DD0E0C82BD92B10926F00B3
:2073E000173609F04BC081E180935700E895DD24CC24C3943FC0E090AE01F090AF010091CC
:20740000B0011091B101B6E46B16D9F4ED2DF0E0EE29FF29E4918E2FEADEDD2081F082E08D
:2074200090E0A0E0B0E0E80EF91E0A1F1B1FE092AE01F092AF010093B0011093B101DC2470
:2074400018C0D801C701B695A7959795879559D5CEDE82E090E0A0E0B0E0E80EF91E0A1FF2
:207460001B1FE092AE01F092AF010093B0011093B1012197209709F0BECF7DC08090AE01F5
:207480009090AF01A090B001B090B10196E4691609F05DC083E0F40180935700E89507B63E
:2074A00000FCFDCF54C0F6E46F1661F5772031F1E090AE01F090AF010091B0011091B1019E
:2074C0007EDED82ECC24852D90E08C299D29F7010C0140925700E895112482E090E0A0E08B
:2074E000B0E0E80EF91E0A1F1B1FE092AE01F092AF010093B0011093B10102C060DE582E1A
:20750000742423C0E090AE01F090AF010091B0011091B10116950795F794E79450DE682FFA
:20752000C701F7D48091AE019091AF01A091B001B091B1010296A11DB11D8093AE01909349
:20754000AF01A093B001B093B101219704C05524772444244394209709F0A5CF96E46916B6
:2075600041F485E0F40180935700E89507B600FCFDCF8DE03CDE82E080936F009CC0833492
:2075800071F40091AE011091AF0119DE90E021E0F8010C0120935700E89511247CCE8336C8
:2075A00019F5E090AE01F090AF010091B0011091B10105DEF701E16090E021E00C0120938C
:2075C0005700E895112482E090E0A0E0B0E0E80EF91E0A1F1B1FE092AE01F092AF0100936A
:2075E000B0011093B10157CE8D3661F4E091AE01F091AF0185E080935700E89507B600FCF2
:20760000FDCF49CE823551F4E091AE01F091AF0105911491812FEBDD802F4CC0843421F5FE
:20762000E090AE01F090AF010091B0011091B10116950795F794E794C2DD682FC70169D4DE
:207640008091AE019091AF01A091B001B091B1010296A11DB11D8093AE019093AF01A093D8
:20766000B001B093B10117CE843609F5E090AE01F090AF010091B0011091B101D801C70142
:20768000B695A795979587953CD4B1DD82E090E0A0E0B0E0E80EF91E0A1F1B1FE092AE010A
:2076A000F092AF010093B0011093B10104C08B3111F08FE39CDD83E08093E9009091E8002B
:2076C0008091E8008E778093E80095FF04C010C08EB38823C9F08091E80080FFF9CF809193
:2076E000E8008E778093E80003C08EB3882361F08091E80080FFF9CF84E08093E9008091F1
:20770000E8008B778093E800DF91CF911F910F91FF90EF90DF90CF90BF90AF909F908F90AC
:207720007F906F905F904F9008959091B601892F8F77813249F58091B7018032A1F081328A
:2077400019F5913A09F58091E800877F8093E8008DE091E067E070E00BD28091E8008B770B
:207760008093E8000895913279F48091E800877F8093E8008DE091E067E070E05DD2809192
:20778000E8008E778093E800089582E061EC42E0B5D083E061E842E1B1D084E060E842E1EF
:2077A000ADC084B7877F84BF88E10FB6F89480936000109260000FBE20E880E090E00FB63F
:2077C000F89420936100809361000FBE81E085BF92E095BF3F9A209A559AE1E6F0E02083A1
:2077E000108247985D9A289A109289008AEF8093880090936F0083E080938100F0C0409116
:20780000000850910108109201081092000894B714BE88E10FB6F8948093600010926000D5
:207820000FBE292F30E0F901E270F07091FD18C090FF05C0859194918F5F9F4F81F423FFFF
:207840000FC08091090190910A014817590741F0E0E0F0E0859194918F5F9F4F09F042DC64
:20786000A0DF78941092AD011092AC010CC0DEDC36D38091AC019091AD0181549F4110F00D
:207880001092140141DC80911401882381F78091E00081608093E00025DC80E090E0089598
:2078A000FA01923049F0933061F09130F9F485E191E022E130E01EC087E291E02EE330E04D
:2078C00019C0882329F485E691E024E030E012C0813029F489E691E022E230E00BC0823006
:2078E00029F48DE891E028E130E004C080E090E020E030E091838083C90108958093E9004E
:207900008091EB0081608093EB001092ED006093EC004093ED008091EE00881F8827881F62
:2079200008958091B60188238CF403C08EB38823B1F08091E80082FFF9CF8091E8008B772A
:207940008093E80008958EB3882349F08091E80080FFF9CF8091E8008E778093E800089594
:20796000EF92FF920F931F9345D04CD008ED10E0F80180818F77808380818068808380819B
:207980008F7D808319BC1EBA1092B40180EEE82EF12CF70180818B7F8083F8018081816052
:2079A000808380E060E042E0A9DFE1EEF0E080818E7F8083E2EEF0E0808181608083808144
:2079C00088608083F70180818E7F8083F8018081806180831F910F91FF90EF900895E7ED06
:2079E000F0E08081816080838AE482BF81E08093B501B6CFE8EDF0E080818E7F808310921C
:207A0000E20008951092DA001092E10008951F920F920FB60F9211242F933F934F935F93F6
:207A20006F937F938F939F93AF93BF93EF93FF938091DA0080FF1BC08091D80080FF17C0B2
:207A40008091DA008E7F8093DA008091D90080FF0BC080E189BD82E189BD09B400FEFDCF36
:207A600081E08EBB3BD203C019BC1EBA37D28091E10080FF17C08091E20080FF13C0809138
:207A8000E2008E7F8093E2008091E20080618093E2008091D80080628093D80019BC85E049
:207AA0008EBB1CD28091E10084FF2CC08091E20084FF28C080E189BD82E189BD09B400FEC5
:207AC000FDCF8091D8008F7D8093D8008091E1008F7E8093E1008091E2008F7E8093E20012
:207AE0008091E20081608093E2008091B401882331F48091E30087FD02C081E001C084E067
:207B00008EBBECD18091E10083FF21C08091E20083FF1DC08091E100877F8093E10082E06A
:207B20008EBB1092B4018091E1008E7F8093E1008091E2008E7F8093E2008091E2008061E9
:207B40008093E20080E060E042E0D8DEC7D1FF91EF91BF91AF919F918F917F916F915F9130
:207B60004F913F912F910F900FBE0F901F9018959C014091BC015091BD014617570718F49D
:207B8000F90190E044C06115710511F0AB01F8CF8091E8008E778093E80040E050E0F0CF0F
:207BA0008EB3882309F444C0853009F443C08091E80083FF02C081E008958091E80082FD70
:207BC00031C08091E80080FF22C08091F3009091F200782F60E0292F30E0262B372B07C07A
:207BE00081918093F100415050402F5F3F4F4115510519F02830310598F390E02830310566
:207C000009F491E08091E8008E778093E8004115510531F6992321F605C08EB3882341F075
:207C2000853041F08091E80082FFF7CF80E0089582E0089583E008959C016115710529F47C
:207C40008091E8008B778093E800F90126C08EB3882391F1853091F18091E80083FF02C06C
:207C600081E008958091E80082FFF1CF06C08091F10081936150704059F02091F300809191
:207C8000F200322F20E090E0822B932B892B79F78091E8008B778093E80061157105B9F601
:207CA00005C08EB3882341F0853041F08091E80080FFF7CF80E0089582E0089583E00895C2
:207CC0000F931F93DF93CF9300D0CDB7DEB7E6EBF1E08091F100819381E0EE3BF807C9F792
:207CE00024DD8091E80083FFE4C08091B6019091B701953009F46DC0963040F4913081F1A7
:207D0000913070F0933009F0D4C02AC0983009F4A3C0993009F4B2C0963009F0CAC07CC023
:207D2000803809F4C6C0823809F0C3C08091BA0187708093E9008091EB001092E9002091DB
:207D4000E800277F2093E80090E025E0969587952A95E1F781708093F1001092F10087C0D8
:207D6000882319F0823009F0A4C08F71823009F0A0C08091B801882331F52091BA01277097
:207D800009F497C02093E9008091EB0080FF1BC0933021F48091EB00806213C08091EB0018
:207DA00080618093EB0081E090E002C0880F991F2A95E2F78093EA001092EA008091EB00E5
:207DC00088608093EB001092E9008091E800877F51C0882309F06DC01091B8011F770FB79B
:207DE000F8948091E800877F8093E8009ADD8091E80080FFFCCF8091E3008078812B809398
:207E0000E30080688093E300112311F482E001C083E08EBB0FBF4DC08058823008F049C033
:207E20008091B8019091B9016091BA01AE014F5F5F4F36DDBC01009709F43BC08091E8008E
:207E4000877F8093E80089819A8192DE8091E8008B778093E8002DC0803859F58091E800AA
:207E6000877F8093E8008091B4018093F1008091E8008E778093E80054DD1BC08823C9F4CA
:207E80009091B8019230A8F48091E800877F8093E8009093B40145DD8091B401882331F420
:207EA0008091E30087FD02C081E001C084E08EBB6CDC8091E80083FF0AC08091EB0080624E
:207EC0008093EB008091E800877F8093E8000F900F90CF91DF911F910F91089508951F9360
:207EE0008EB3882361F01091E9001092E9008091E80083FF01C0E4DE17701093E9001F916F
:207F00000895F999FECF92BD81BDF89A992780B50895262FF999FECF1FBA92BD81BD20BDBD
:207F20000FB6F894FA9AF99A0FBE01960895F894FFCF4341544552494E4100777700080031
:207F40000000000000080112011001020000084123360001000201000109023E00020100FF
:207F600080320904000001020201000524001001042402040524060001070582030800FF0C
:207F800009040100020A000000070504021000010705830210000104030904220341007216
:207FA000006400750069006E006F0020004C0065006F006E006100720064006F0000001836
:1A7FC00003410072006400750069006E006F0020004C004C004300000000D7
:00000001FF
