:10000000B8C00000D4C00000D2C00000D0C00000C2
:10001000CEC00000CCC00000CAC00000C8C00000B4
:10002000C6C00000C4C000000C94CC0AC0C00000D0
:10003000BEC00000BCC00000BAC00000B8C00000D4
:10004000B6C00000B4C00000B2C00000B0C00000E4
:10005000AEC00000ACC00000AAC00000A8C00000F4
:10006000A6C00000A4C00000A2C00000A0C0000004
:100070009EC000009CC000009AC0000098C0000014
:1000800096C0000094C0000092C0000090C0000024
:100090008EC000008CC0000005010905A1011500FB
:1000A0002501350045017501951005091901291033
:1000B000810205012507463B017504950165140978
:1000C00039814265009501810126FF0046FF000944
:1000D000300931093209357508950481020600FF9F
:1000E0000920950181020A212695089102C012017A
:1000F0000002000000400D0F92000001010200010B
:100100000902290001010080FA090400000203002D
:1001100000000921110100012256000705020340D9
:10012000000507058103400005040309041C03487A
:10013000004F0052004900200043004F002E002CC9
:10014000004C00540044002E000000240350004FD7
:10015000004B004B0045004E00200043004F004E76
:1001600000540052004F004C004C0045005200006B
:10017000000011241FBECFEFD0E2DEBFCDBF14E0E0
:10018000A0E0B1E0ECE3FAE100E00BBF02C00790B1
:100190000D92A835B107D9F714E0A8E5B4E001C085
:1001A0001D92A638B107E1F756D70C941C0D28CF45
:1001B000DB014130510509F0F4C0FC01EE0FFF1FD7
:1001C000E80FF91FE050FF4FE081EA3009F48EC0DC
:1001D000EB3018F5E43009F459C0E53058F4E1305B
:1001E00009F445C0E130E8F1E230F1F1E33009F023
:1001F000C7C041C0E73009F45DC0E83038F4E530ED
:1002000009F44AC0E63009F0BBC04DC0E83009F43B
:1002100058C0E93009F0B4C05EC0EF3009F48DC0B9
:10022000E03168F4EC3009F481C0EC3008F477C0B8
:10023000ED3009F466C0EE3009F0A2C069C0E231C9
:1002400009F490C0E33138F4E03109F47DC0E131C4
:1002500009F096C080C0E43191F0E53109F090C01A
:1002600088C014961C92089513961C9208958FEFDF
:1002700014968C9308958FEF13968C9308958D9117
:100280009C91119790618D939C93089513961C9265
:10029000139714961C9208958FEF13968C931397CF
:1002A00014961C92089513961C9213978FEF149630
:1002B0008C9308958FEF13968C93139714968C93C9
:1002C000089513961C9213978D919C9111978260BB
:1002D0008D939C9308958FEF13968C9313978D9124
:1002E0009C91119782608D939C9308958FEF149643
:1002F0008C9314978D919C91119782608D939C9310
:1003000008958D919C91119784608D939C9308958D
:100310008D919C91119782608D939C9308958D91FE
:100320009C91119788608D939C9308958D919C91D9
:10033000119781608D939C9308958D919C91119755
:1003400080618D939C9308958D919C91119780620B
:100350008D939C9308958D919C91119792608D93AC
:100360009C9308958D919C91119791608D939C938E
:1003700008958D919C91119780638D939C9308951E
:1003800080E813968C93139714968C931497159674
:100390008C93159716968C93169788E012968C93EB
:1003A00008954230510509F0F4C0FC01EE0FFF1F23
:1003B000E80FF91FEF5EFD4FE081EA3009F48EC0CF
:1003C000EB3018F5E43009F459C0E53058F4E13069
:1003D00009F445C0E130E8F1E230F1F1E33009F031
:1003E000C7C041C0E73009F45DC0E83038F4E530FB
:1003F00009F44AC0E63009F0BBC04DC0E83009F44A
:1004000058C0E93009F0B4C05EC0EF3009F48DC0C7
:10041000E03168F4EC3009F481C0EC3008F477C0C6
:10042000ED3009F466C0EE3009F0A2C069C0E231D7
:1004300009F490C0E33138F4E03109F47DC0E131D2
:1004400009F096C080C0E43191F0E53109F090C028
:1004500088C014961C92089513961C9208958FEFED
:1004600014968C9308958FEF13968C9308958D9125
:100470009C91119790618D939C93089513961C9273
:10048000139714961C9208958FEF13968C931397DD
:1004900014961C92089513961C9213978FEF14963E
:1004A0008C9308958FEF13968C93139714968C93D7
:1004B000089513961C9213978D919C9111978260C9
:1004C0008D939C9308958FEF13968C9313978D9132
:1004D0009C91119782608D939C9308958FEF149651
:1004E0008C9314978D919C91119782608D939C931E
:1004F00008958D919C91119784608D939C9308959C
:100500008D919C91119782608D939C9308958D910C
:100510009C91119788608D939C9308958D919C91E7
:10052000119781608D939C9308958D919C91119763
:1005300080618D939C9308958D919C911197806219
:100540008D939C9308958D919C91119792608D93BA
:100550009C9308958D919C91119791608D939C939C
:1005600008958D919C91119780638D939C9308952C
:1005700080E813968C93139714968C931497159682
:100580008C93159716968C93169788E012968C93F9
:1005900008954330510509F0F4C0FC01EE0FFF1F30
:1005A000E80FF91FE55DFC4FE081EA3009F48EC0E9
:1005B000EB3018F5E43009F459C0E53058F4E13077
:1005C00009F445C0E130E8F1E230F1F1E33009F03F
:1005D000C7C041C0E73009F45DC0E83038F4E53009
:1005E00009F44AC0E63009F0BBC04DC0E83009F458
:1005F00058C0E93009F0B4C05EC0EF3009F48DC0D6
:10060000E03168F4EC3009F481C0EC3008F477C0D4
:10061000ED3009F466C0EE3009F0A2C069C0E231E5
:1006200009F490C0E33138F4E03109F47DC0E131E0
:1006300009F096C080C0E43191F0E53109F090C036
:1006400088C014961C92089513961C9208958FEFFB
:1006500014968C9308958FEF13968C9308958D9133
:100660009C91119790618D939C93089513961C9281
:10067000139714961C9208958FEF13968C931397EB
:1006800014961C92089513961C9213978FEF14964C
:100690008C9308958FEF13968C93139714968C93E5
:1006A000089513961C9213978D919C9111978260D7
:1006B0008D939C9308958FEF13968C9313978D9140
:1006C0009C91119782608D939C9308958FEF14965F
:1006D0008C9314978D919C91119782608D939C932C
:1006E00008958D919C91119784608D939C930895AA
:1006F0008D919C91119782608D939C9308958D911B
:100700009C91119788608D939C9308958D919C91F5
:10071000119781608D939C9308958D919C91119771
:1007200080618D939C9308958D919C911197806227
:100730008D939C9308958D919C91119792608D93C8
:100740009C9308958D919C91119791608D939C93AA
:1007500008958D919C91119780638D939C9308953A
:1007600080E813968C93139714968C931497159690
:100770008C93159716968C93169788E012968C9307
:1007800008954430510509F0F4C0FC01EE0FFF1F3D
:10079000E80FF91FEF5AFB4FE081EA3009F48EC0F1
:1007A000EB3018F5E43009F459C0E53058F4E13085
:1007B00009F445C0E130E8F1E230F1F1E33009F04D
:1007C000C7C041C0E73009F45DC0E83038F4E53017
:1007D00009F44AC0E63009F0BBC04DC0E83009F466
:1007E00058C0E93009F0B4C05EC0EF3009F48DC0E4
:1007F000E03168F4EC3009F481C0EC3008F477C0E3
:10080000ED3009F466C0EE3009F0A2C069C0E231F3
:1008100009F490C0E33138F4E03109F47DC0E131EE
:1008200009F096C080C0E43191F0E53109F090C044
:1008300088C014961C92089513961C9208958FEF09
:1008400014968C9308958FEF13968C9308958D9141
:100850009C91119790618D939C93089513961C928F
:10086000139714961C9208958FEF13968C931397F9
:1008700014961C92089513961C9213978FEF14965A
:100880008C9308958FEF13968C93139714968C93F3
:10089000089513961C9213978D919C9111978260E5
:1008A0008D939C9308958FEF13968C9313978D914E
:1008B0009C91119782608D939C9308958FEF14966D
:1008C0008C9314978D919C91119782608D939C933A
:1008D00008958D919C91119784608D939C930895B8
:1008E0008D919C91119782608D939C9308958D9129
:1008F0009C91119788608D939C9308958D919C9104
:10090000119781608D939C9308958D919C9111977F
:1009100080618D939C9308958D919C911197806235
:100920008D939C9308958D919C91119792608D93D6
:100930009C9308958D919C91119791608D939C93B8
:1009400008958D919C91119780638D939C93089548
:1009500080E813968C93139714968C93149715969E
:100960008C93159716968C93169788E012968C9315
:1009700008954530510509F0F3C0FC01EE0FFF1F4B
:10098000E80FF91FEC5AFB4FE081EA3009F48EC002
:10099000EB3018F5E43009F459C0E53058F4E13093
:1009A00009F445C0E130E8F1E230F1F1E33009F05B
:1009B000C7C041C0E73009F45DC0E83038F4E53025
:1009C00009F44AC0E63009F0BBC04DC0E83009F474
:1009D00058C0E93009F0B4C05EC0EF3009F48DC0F2
:1009E000E03168F4EC3009F481C0EC3008F477C0F1
:1009F000ED3009F466C0EE3009F0A2C069C0E23102
:100A000009F490C0E33138F4E03109F47DC0E131FC
:100A100009F096C080C0E43191F0E53109F090C052
:100A200088C014961C92089513961C9208958FEF17
:100A300014968C9308958FEF13968C9308958D914F
:100A40009C91119790618D939C93089513961C929D
:100A5000139714961C9208958FEF13968C93139707
:100A600014961C92089513961C9213978FEF149668
:100A70008C9308958FEF13968C93139714968C9301
:100A8000089513961C9213978D919C9111978260F3
:100A90008D939C9308958FEF13968C9313978D915C
:100AA0009C91119782608D939C9308958FEF14967B
:100AB0008C9314978D919C91119782608D939C9348
:100AC00008958D919C91119784608D939C930895C6
:100AD0008D919C91119782608D939C9308958D9137
:100AE0009C91119788608D939C9308958D919C9112
:100AF000119781608D939C9308958D919C9111978E
:100B000080618D939C9308958D919C911197806243
:100B10008D939C9308958D919C91119792608D93E4
:100B20009C9308958D919C91119791608D939C93C6
:100B300008958D919C91119780638D939C93089556
:100B400080E813968C93139714968C9314971596AC
:100B50008C93159716968C93169788E012968C9323
:100B60000895089508950895CF93DF93EC0138E038
:100B7000FC01832F11928A95E9F720E82B832C83BF
:100B80002D832E833A838091590490915A0418162C
:100B9000190674F4DE01E1E7F4E088E001900D92BB
:100BA0008150E1F78091590490915A040197DAC17C
:100BB00080915804843009F486C0853050F4813027
:100BC000D9F0813020F1823021F1833009F0C0C1A9
:100BD00022C0873009F45AC1883038F4853009F4CE
:100BE000D1C0863009F0B4C114C1883009F4ADC158
:100BF000893009F0ADC1BAC110926204109261044B
:100C0000198218822B832C832D832E833A8382E0D2
:100C10009DC183E09BC18091610490916204BE01FB
:100C200041E050E0C5DA809163049091640401963C
:100C30009093640480936304409161045091620432
:100C4000FA01EE0FFF1FE40FF51FE050FF4F218167
:100C500032812817390750F44F5F5F4F5093620479
:100C600040936104109264041092630480916104C3
:100C7000909162048B3591050CF46AC12091670450
:100C800030916804273131058CF487E090E090932F
:100C900062048093610410926404109263042F5FD5
:100CA0003F4F3093680420936704B1C010926804EA
:100CB000109267041092640410926304109262040C
:100CC00010926104E1C08091610490916204BE01C0
:100CD00042E050E06DDA80916304909164040196E3
:100CE0009093640480936304409161045091620482
:100CF000FA01EE0FFF1FE40FF51FEF5EFD4F21819C
:100D000032812817390750F44F5F5F4F50936204C8
:100D10004093610410926404109263048091610412
:100D2000909162048E3591050CF412C120916904F2
:100D300030916A042A3031058CF487E090E090937A
:100D400062048093610410926404109263042F5F24
:100D50003F4F30936A042093690459C01092620493
:100D6000109261041092640410926304109268045B
:100D70001092670410926A041092690485E08093CF
:100D80005804DBC08091610490916204BE0143E08D
:100D900050E00EDA80916304909164040196909380
:100DA0006404809363044091610450916204FA01E9
:100DB000EE0FFF1FE40FF51FE55DFC4F218132812F
:100DC0002817390750F44F5F5F4F509362044093E8
:100DD0006104109264041092630480916104909104
:100DE0006204823691050CF4B3C087E090E09093E2
:100DF0006204809361041092640410926304109260
:100E000068041092670410926A041092690483E0E7
:100E1000B6CF8091610490916204BE0144E050E03D
:100E2000C7D98091630490916404019690936404FF
:100E3000809363044091610450916204FA01EE0FC3
:100E4000FF1FE40FF51FEF5AFB4F21813281281756
:100E5000390750F44F5F5F4F509362044093610431
:100E60001092640410926304809161049091620472
:100E7000181619060CF06CC01092620410926104EE
:100E8000109264041092630484E079CF809161042D
:100E900090916204BE0145E050E08AD980916304DC
:100EA000909164040196909364048093630440914C
:100EB000610450916204FA01EE0FFF1FE40FF51F69
:100EC000EC5AFB4F218132812817390750F44F5FCC
:100ED0005F4F509362044093610410926404109237
:100EE0006304809161049091620497FD31C087E0B2
:100EF00090E09093620480936104109264041092D5
:100F0000630482E08093580410926804109267048E
:100F100010926A041092690410926C0410926B048F
:100F200010926E0410926D0480916F049091700481
:100F300001969093700480936F0480E88B838C8378
:100F40008D838E8388E08A8303C089E08093580470
:100F5000A1E7B4E0FE0188E001900D928150E1F735
:100F600082E090E090935A0480935904DF91CF91EE
:100F70000895FF920F931F93DF93CF93CDB7DEB702
:100F800028970FB6F894DEBF0FBECDBF80917D04C9
:100F90008430B9F582E08093E9008091E80082FF17
:100FA00014C08091E80085FF0BC08E010F5F1F4FBA
:100FB000C80167E070E040E050E05BD18823C1F7F2
:100FC0008091E8008B778093E80081E08093E900CE
:100FD0008091E80080FF15C08E010F5F1F4FC80190
:100FE000C3DDF02E012F8F2D902F68E070E040E0E0
:100FF00050E091D18823B9F78091E8008E778093F3
:10100000E80028960FB6F894DEBF0FBECDBFCF9193
:10101000DF911F910F91FF90089582E060EC42E311
:10102000CCD181E061EC42E3C8C184B7877F84BF43
:1010300088E10FB6F89480936000109260000FBEB4
:1010400080E090E020E80FB6F89420936100809350
:1010500061000FBE86C2E9DF78948BDFD8D4FDCF64
:10106000DA019330B1F0943028F4913041F09230AD
:1010700079F50AC0913211F1923251F524C0EEEEA9
:10108000F0E022E130E028C0E0E0F1E029E230E0E9
:1010900023C0813049F0813018F08230C9F40AC091
:1010A000E9E2F1E0849103C0EDE2F1E08491282FC0
:1010B00030E012C0EBE4F1E08491F9CFE2E1F1E03D
:1010C00029E030E009C0E8E9F0E026E530E004C0BE
:1010D000E0E0F0E020E030E0ED93FC93C9010895FA
:1010E0009C0140918404509185044617570718F4D9
:1010F000F90190E03DC06115710511F0AB01F8CF29
:101100008091E8008E778093E80040E050E0F0CFD7
:1011100080917D04882309F441C0853009F440C0E2
:101120008091E80083FD3EC08091E80082FD30C0E0
:101130008091E80080FF1CC02091F2003091F30004
:1011400007C081918093F100415050402F5F3F4F85
:101150004115510519F02034310598F390E0203401
:10116000310509F491E08091E8008E778093E800E2
:101170004115510569F6992359F60AC080917D04FD
:10118000882361F0853061F08091E80083FD0AC01A
:101190008091E80082FFF2CF80E0089582E0089518
:1011A00083E0089581E008959C014091840450916A
:1011B00085044617570718F4F90190E03EC0611501
:1011C000710511F0AB01F8CF8091E8008E77809324
:1011D000E80040E050E0F0CF80917D04882309F4DE
:1011E00042C0853009F441C08091E80083FD3FC0D2
:1011F0008091E80082FD31C08091E80080FF1DC031
:101200002091F2003091F30008C084918093F100A6
:101210003196415050402F5F3F4F4115510519F015
:101220002034310590F390E02034310509F491E049
:101230008091E8008E778093E8004115510561F6B2
:10124000992351F60AC080917D04882361F085308E
:1012500061F08091E80083FD0AC08091E80082FF80
:10126000F2CF80E0089582E0089583E0089581E060
:101270000895BF92CF92DF92EF92FF920F931F9348
:10128000CF93DF93182F092F7B016A01EFD0B82E7F
:101290008823B1F5812F902F9C01E901C114D1045D
:1012A00039F0F60180819181E81AF90AC80FD91F37
:1012B00000E010E022C08091E80085FD16C080911A
:1012C000E8008B778093E800A2D3C114D10449F0E1
:1012D000F60180819181800F911F9183808385E049
:1012E00010C0C4D0882349F00CC08091F1008993CC
:1012F0000894E108F1080F5F1F4FE114F104D9F6DB
:101300008B2DDF91CF911F910F91FF90EF90DF9088
:10131000CF90BF900895BF92CF92DF92EF92FF924D
:101320000F931F93CF93DF93182F092F7B016A012F
:101330009DD0B82E8823B1F5812F902F9C01E90113
:10134000C114D10439F0F60180819181E81AF90ABB
:10135000C80FD91F00E010E022C08091E80085FD91
:1013600016C08091E8008E778093E80050D3C114B6
:10137000D10449F0F60180819181800F911F918302
:10138000808385E010C072D0882349F00CC0899119
:101390008093F1000894E108F1080F5F1F4FE114FA
:1013A000F104D9F68B2DDF91CF911F910F91FF9012
:1013B000EF90DF90CF90BF900895382F282F2EC048
:1013C000822F8F708093E900231721F4762F942FBA
:1013D00050E006C07091EC009091ED005091F0004B
:1013E00091FF1BC08091EB008E7F8093EB0080917A
:1013F000ED008D7F8093ED008091EB008160809304
:10140000EB007093EC009093ED005093F00080910E
:10141000EE0087FD02C080E008952F5F273080F244
:101420003F703093E90081E0089580917E04882325
:101430009CF404C080917D048823B9F08091E80079
:1014400082FFF8CF8091E8008B778093E8000895C1
:1014500080917D04882349F08091E80080FFF8CFD7
:101460008091E8008E778093E80008954091E40031
:101470005091E50024E68091EC0080FF24C080912B
:10148000E80080FD1EC080917D04882311F482E075
:101490000895853011F483E008958091EB0085FF75
:1014A00002C081E008958091E4009091E5008417E6
:1014B000950709F3222311F484E008952150AC012B
:1014C000DACF80E008958091E80082FFDCCFF9CF89
:1014D000EF92FF920F931F9352D059D008ED10E076
:1014E000F80180818F77808380818068808380810C
:1014F0008F7D8083E7EDF0E080818068808319BC78
:1015000010927D041092790410927B0410927A0458
:1015100080EEE82EF12CF70180818B7F8083F8012B
:1015200080818160808380E060E042E346DFE1EE1D
:10153000F0E080818E7F8083E2EEF0E08081816048
:101540008083808188608083F70180818E7F8083A3
:10155000F8018081806180831F910F91FF90EF904F
:101560000895E8EDF0E080818F7E8083E7EDF0E084
:1015700080818160808381E080937C04A9CFE8ED45
:10158000F0E080818C7F80831092E20008951092B9
:10159000DA001092E10008951F920F920FB60F9299
:1015A0000BB60F9211242F933F934F935F936F933A
:1015B0007F938F939F93AF93BF93EF93FF9380910C
:1015C000E10082FF0AC08091E20082FF06C08091A4
:1015D000E1008B7F8093E10019D28091DA0080FFD7
:1015E0001DC08091D80080FF19C08091DA008E7FE5
:1015F0008093DA008091D90080FF0CC084E189BD1E
:1016000086E189BD09B400FEFDCF81E080937D04B1
:10161000A8DA04C019BC10927D04A4DA8091E1001C
:1016200080FF18C08091E20080FF14C08091E2002A
:101630008E7F8093E2008091E20080618093E200DF
:101640008091D80080628093D80019BC85E0809397
:101650007D04DCD18091E10084FF2FC08091E20005
:1016600084FF2BC084E189BD86E189BD09B400FEF9
:10167000FDCF8091D8008F7D8093D8008091E100CC
:101680008F7E8093E1008091E2008F7E8093E20064
:101690008091E20081608093E20080917904882348
:1016A00011F084E007C08091E30087FD02C081E073
:1016B00001C083E080937D04A9D18091E10083FF84
:1016C00022C08091E20083FF1EC08091E100877FED
:1016D0008093E10082E080937D04109279048091F0
:1016E000E1008E7F8093E1008091E2008E7F809305
:1016F000E2008091E20080618093E20080E060E09F
:1017000042E35BDE83D1FF91EF91BF91AF919F9157
:101710008F917F916F915F914F913F912F910F909A
:101720000BBE0F900FBE0F901F9018951F93DF9365
:10173000CF93CDB7DEB7AC970FB6F894DEBF0FBE30
:10174000CDBFEEE7F4E08091F100819324E0E6382C
:10175000F207C9F708DA8091E80083FF3FC1809162
:101760007E0430917F04353009F48DC0363040F46A
:101770003130E1F1313070F0333009F02FC136C033
:10178000383009F4FDC0393009F40CC1363009F0A5
:1017900025C19CC0803821F0823809F01FC108C0E3
:1017A00090917A0480917B048823B1F0926014C0F8
:1017B000809182048F70873008F010C18093E90017
:1017C0008091EB0090E025E0969587952A95E1F7CA
:1017D000982F91701092E9008091E800877F8093A4
:1017E000E8009093F1001092F100D5C0882319F021
:1017F000823009F0F3C090E08F719070009721F073
:10180000029709F0EBC00CC080918004813009F090
:10181000E5C010927B04333081F580937B042DC0AA
:1018200080918004882349F5209182042F70822FB3
:101830008150863008F0D2C02093E9008091EB00FF
:1018400080FF1BC0333021F48091EB00806213C015
:101850008091EB0080618093EB0081E090E002C01A
:10186000880F991F2A95E2F78093EA001092EA0008
:101870008091EB0088608093EB001092E9008091EA
:10188000E800877F8BC0882309F0A8C010918004EE
:101890001F778091E3008078812B8093E300809113
:1018A000E800877F8093E800C0DD8091E80080FF3A
:1018B000FCCF8091E30080688093E300112311F452
:1018C00082E001C083E080937D0488C0805882302C
:1018D00008F084C0809180049091810423E08C3DC5
:1018E000920709F033C083E08C838AE28B837FB751
:1018F000F894DE0115966EE040E050E011E2E62F2C
:10190000F0E010935700849140FF03C082958F70E0
:101910006F5F8F70282F30E08A3018F0C901C796AA
:1019200002C0C901C0968D939D934F5F5F4F4431B4
:10193000510529F77FBF8091E800877F8093E800F9
:10194000CE0103966AE270E0CBDB14C060918204A2
:1019500070918304AE014F5F5F4F82DBBC01009743
:1019600009F43CC08091E800877F8093E80089817A
:101970009A811ADC8091E8008B778093E8002EC072
:10198000803861F58091E800877F8093E80080913E
:1019900079048093F1008091E8008E778093E800CD
:1019A00044DD1CC08823D1F4909180049230B0F4BF
:1019B0008091E800877F8093E8009093790435DD7B
:1019C00080917904882331F48091E30087FD02C07F
:1019D00081E001C084E080937D041FDB8091E800FA
:1019E00083FF0AC08091E800877F8093E8008091A0
:1019F000EB0080628093EB00AC960FB6F894DEBFEC
:101A00000FBECDBFCF91DF911F91089508951F9311
:101A100080917D04882371F01091E9008091EC00A1
:101A20001092E9008091E80083FF01C07FDE1F7003
:0C1A30001093E9001F910895F894FFCF77
:101A3C0013FA001505001396001505001396000DFA
:101A4C00050013FA0014050013140001050013051A
:101A5C000003050013050003050013050003050032
:101A6C001305000305001305000D050013140001F8
:101A7C0050001305000D05001305000105001305AA
:101A8C000001050013050001050013050001050008
:101A9C001305000D0500130F0001050013050001CF
:101AAC0005001305000D0500130F00030500130AB4
:101ABC0000000500130A00031E001305000D0500AD
:101ACC00130A00140500131E000D78001328000ED5
:101ADC000500130A000E0500130A000E0500130A78
:101AEC00000E0500131E000E0500130A000D140055
:101AFC001314000E0500131E000E0500130A000E31
:101B0C000500131E000E0500130A000E0500131E1F
:101B1C00000E0500131E000E0500131E000E05001E
:101B2C00131E000E0500131E000E0500130A000EF6
:101B3C000500131E000E0500130A000D7800132873
:101B4C000014050013140001050013050003050023
:101B5C00130500030500130500030500130500031E
:101B6C0005001305000D05001314000150001305AA
:101B7C00000D05001305000105001305000105000B
:101B8C001305000105001305000105001305000DE8
:101B9C000500130F000105001305000105001305D6
:101BAC00000D0500130F00000500130A00030500CB
:101BBC0013050001050013050001050013050001C4
:101BCC0005001305000105001305000105001305B0
:101BDC0000010500130500010500130500010500B7
:101BEC001305000105001305000105001305000194
:101BFC000500130500010500130500010500130580
:101C0C000001050013050001050013050001050086
:101C1C001305000105001305000105001305000163
:101C2C00050013050001050013050001050013054F
:101C3C000001050013050001050013050001050056
:101C4C00130500031E001305000D0500130A0014F4
:101C5C000500131E000D0500131E001405001314BF
:101C6C000001050013050003050013050003050022
:101C7C001305000305001305000305001305000DF3
:101C8C0005001314000150001305000D0500130589
:101C9C0000010500130500010500130500010500F6
:101CAC001305000105001305000D0500130F0001BD
:101CBC0005001305000105001305000D0500130FA9
:101CCC0000000500130A00030500130500010500C0
:101CDC0013050001050013050001050013050001A3
:101CEC00050013050001050013050001050013058F
:101CFC000001050013050001050013050001050096
:101D0C001305000105001305000105001305000172
:101D1C00050013050001050013050001050013055E
:101D2C000001050013050001050013050001050065
:101D3C001305000105001305000105001305000142
:101D4C00050013050001050013050001050013052E
:101D5C000001050013050001050013050003050033
:101D6C00130500000500130A00031E001305000DE7
:101D7C000500130A00140500131E000D0500131EA8
:081D8C0000130A00130A000015
:00000001FF
