:10000000B8C00000D4C00000D2C00000D0C00000C2
:10001000CEC00000CCC00000CAC00000C8C00000B4
:10002000C6C00000C4C000000C94740AC0C0000028
:10003000BEC00000BCC00000BAC00000B8C00000D4
:10004000B6C00000B4C00000B2C00000B0C00000E4
:10005000AEC00000ACC00000AAC00000A8C00000F4
:10006000A6C00000A4C00000A2C00000A0C0000004
:100070009EC000009CC000009AC0000098C0000014
:1000800096C0000094C0000092C0000090C0000024
:100090008EC000008CC0000005010905A1011500FB
:1000A0002501350045017501951005091901291033
:1000B000810205012507463B017504950165140978
:1000C00039814265009501810126FF0046FF000944
:1000D000300931093209357508950481020600FF9F
:1000E0000920950181020A212695089102C012017A
:1000F0000002000000400D0F92000001010200010B
:100100000902290001010080FA090400000203002D
:1001100000000921110100012256000705020340D9
:10012000000507058103400005040309041C03487A
:10013000004F0052004900200043004F002E002CC9
:10014000004C00540044002E000000240350004FD7
:10015000004B004B0045004E00200043004F004E76
:1001600000540052004F004C004C0045005200006B
:10017000000011241FBECFEFD0E2DEBFCDBF12E0E2
:10018000A0E0B1E0ECE8F9E100E00BBF02C00790AD
:100190000D92A234B107D9F712E0A2E4B2E001C097
:1001A0001D92A037B107E1F7FED60C94C40C28CFFE
:1001B000DB014130510509F0F4C0FC01EE0FFF1FD7
:1001C000E80FF91FE050FF4FE081EA3009F48EC0DC
:1001D000EB3018F5E43009F459C0E53058F4E1305B
:1001E00009F445C0E130E8F1E230F1F1E33009F023
:1001F000C7C041C0E73009F45DC0E83038F4E530ED
:1002000009F44AC0E63009F0BBC04DC0E83009F43B
:1002100058C0E93009F0B4C05EC0EF3009F48DC0B9
:10022000E03168F4EC3009F481C0EC3008F477C0B8
:10023000ED3009F466C0EE3009F0A2C069C0E231C9
:1002400009F490C0E33138F4E03109F47DC0E131C4
:1002500009F096C080C0E43191F0E53109F090C01A
:1002600088C014961C92089513961C9208958FEFDF
:1002700014968C9308958FEF13968C9308958D9117
:100280009C91119790618D939C93089513961C9265
:10029000139714961C9208958FEF13968C931397CF
:1002A00014961C92089513961C9213978FEF149630
:1002B0008C9308958FEF13968C93139714968C93C9
:1002C000089513961C9213978D919C9111978260BB
:1002D0008D939C9308958FEF13968C9313978D9124
:1002E0009C91119782608D939C9308958FEF149643
:1002F0008C9314978D919C91119782608D939C9310
:1003000008958D919C91119784608D939C9308958D
:100310008D919C91119782608D939C9308958D91FE
:100320009C91119788608D939C9308958D919C91D9
:10033000119781608D939C9308958D919C91119755
:1003400080618D939C9308958D919C91119780620B
:100350008D939C9308958D919C91119792608D93AC
:100360009C9308958D919C91119791608D939C938E
:1003700008958D919C91119780638D939C9308951E
:1003800080E813968C93139714968C931497159674
:100390008C93159716968C93169788E012968C93EB
:1003A00008954230510509F0F4C0FC01EE0FFF1F23
:1003B000E80FF91FE657FE4FE081EA3009F48EC0DE
:1003C000EB3018F5E43009F459C0E53058F4E13069
:1003D00009F445C0E130E8F1E230F1F1E33009F031
:1003E000C7C041C0E73009F45DC0E83038F4E530FB
:1003F00009F44AC0E63009F0BBC04DC0E83009F44A
:1004000058C0E93009F0B4C05EC0EF3009F48DC0C7
:10041000E03168F4EC3009F481C0EC3008F477C0C6
:10042000ED3009F466C0EE3009F0A2C069C0E231D7
:1004300009F490C0E33138F4E03109F47DC0E131D2
:1004400009F096C080C0E43191F0E53109F090C028
:1004500088C014961C92089513961C9208958FEFED
:1004600014968C9308958FEF13968C9308958D9125
:100470009C91119790618D939C93089513961C9273
:10048000139714961C9208958FEF13968C931397DD
:1004900014961C92089513961C9213978FEF14963E
:1004A0008C9308958FEF13968C93139714968C93D7
:1004B000089513961C9213978D919C9111978260C9
:1004C0008D939C9308958FEF13968C9313978D9132
:1004D0009C91119782608D939C9308958FEF149651
:1004E0008C9314978D919C91119782608D939C931E
:1004F00008958D919C91119784608D939C9308959C
:100500008D919C91119782608D939C9308958D910C
:100510009C91119788608D939C9308958D919C91E7
:10052000119781608D939C9308958D919C91119763
:1005300080618D939C9308958D919C911197806219
:100540008D939C9308958D919C91119792608D93BA
:100550009C9308958D919C91119791608D939C939C
:1005600008958D919C91119780638D939C9308952C
:1005700080E813968C93139714968C931497159682
:100580008C93159716968C93169788E012968C93F9
:1005900008954330510509F0F4C0FC01EE0FFF1F30
:1005A000E80FF91FE456FE4FE081EA3009F48EC0EF
:1005B000EB3018F5E43009F459C0E53058F4E13077
:1005C00009F445C0E130E8F1E230F1F1E33009F03F
:1005D000C7C041C0E73009F45DC0E83038F4E53009
:1005E00009F44AC0E63009F0BBC04DC0E83009F458
:1005F00058C0E93009F0B4C05EC0EF3009F48DC0D6
:10060000E03168F4EC3009F481C0EC3008F477C0D4
:10061000ED3009F466C0EE3009F0A2C069C0E231E5
:1006200009F490C0E33138F4E03109F47DC0E131E0
:1006300009F096C080C0E43191F0E53109F090C036
:1006400088C014961C92089513961C9208958FEFFB
:1006500014968C9308958FEF13968C9308958D9133
:100660009C91119790618D939C93089513961C9281
:10067000139714961C9208958FEF13968C931397EB
:1006800014961C92089513961C9213978FEF14964C
:100690008C9308958FEF13968C93139714968C93E5
:1006A000089513961C9213978D919C9111978260D7
:1006B0008D939C9308958FEF13968C9313978D9140
:1006C0009C91119782608D939C9308958FEF14965F
:1006D0008C9314978D919C91119782608D939C932C
:1006E00008958D919C91119784608D939C930895AA
:1006F0008D919C91119782608D939C9308958D911B
:100700009C91119788608D939C9308958D919C91F5
:10071000119781608D939C9308958D919C91119771
:1007200080618D939C9308958D919C911197806227
:100730008D939C9308958D919C91119792608D93C8
:100740009C9308958D919C91119791608D939C93AA
:1007500008958D919C91119780638D939C9308953A
:1007600080E813968C93139714968C931497159690
:100770008C93159716968C93169788E012968C9307
:1007800008954430510509F0F4C0FC01EE0FFF1F3D
:10079000E80FF91FEC54FE4FE081EA3009F48EC0F7
:1007A000EB3018F5E43009F459C0E53058F4E13085
:1007B00009F445C0E130E8F1E230F1F1E33009F04D
:1007C000C7C041C0E73009F45DC0E83038F4E53017
:1007D00009F44AC0E63009F0BBC04DC0E83009F466
:1007E00058C0E93009F0B4C05EC0EF3009F48DC0E4
:1007F000E03168F4EC3009F481C0EC3008F477C0E3
:10080000ED3009F466C0EE3009F0A2C069C0E231F3
:1008100009F490C0E33138F4E03109F47DC0E131EE
:1008200009F096C080C0E43191F0E53109F090C044
:1008300088C014961C92089513961C9208958FEF09
:1008400014968C9308958FEF13968C9308958D9141
:100850009C91119790618D939C93089513961C928F
:10086000139714961C9208958FEF13968C931397F9
:1008700014961C92089513961C9213978FEF14965A
:100880008C9308958FEF13968C93139714968C93F3
:10089000089513961C9213978D919C9111978260E5
:1008A0008D939C9308958FEF13968C9313978D914E
:1008B0009C91119782608D939C9308958FEF14966D
:1008C0008C9314978D919C91119782608D939C933A
:1008D00008958D919C91119784608D939C930895B8
:1008E0008D919C91119782608D939C9308958D9129
:1008F0009C91119788608D939C9308958D919C9104
:10090000119781608D939C9308958D919C9111977F
:1009100080618D939C9308958D919C911197806235
:100920008D939C9308958D919C91119792608D93D6
:100930009C9308958D919C91119791608D939C93B8
:1009400008958D919C91119780638D939C93089548
:1009500080E813968C93139714968C93149715969E
:100960008C93159716968C93169788E012968C9315
:1009700008954530510509F0F3C0FC01EE0FFF1F4B
:10098000E80FF91FE25CFD4FE081EA3009F48EC008
:10099000EB3018F5E43009F459C0E53058F4E13093
:1009A00009F445C0E130E8F1E230F1F1E33009F05B
:1009B000C7C041C0E73009F45DC0E83038F4E53025
:1009C00009F44AC0E63009F0BBC04DC0E83009F474
:1009D00058C0E93009F0B4C05EC0EF3009F48DC0F2
:1009E000E03168F4EC3009F481C0EC3008F477C0F1
:1009F000ED3009F466C0EE3009F0A2C069C0E23102
:100A000009F490C0E33138F4E03109F47DC0E131FC
:100A100009F096C080C0E43191F0E53109F090C052
:100A200088C014961C92089513961C9208958FEF17
:100A300014968C9308958FEF13968C9308958D914F
:100A40009C91119790618D939C93089513961C929D
:100A5000139714961C9208958FEF13968C93139707
:100A600014961C92089513961C9213978FEF149668
:100A70008C9308958FEF13968C93139714968C9301
:100A8000089513961C9213978D919C9111978260F3
:100A90008D939C9308958FEF13968C9313978D915C
:100AA0009C91119782608D939C9308958FEF14967B
:100AB0008C9314978D919C91119782608D939C9348
:100AC00008958D919C91119784608D939C930895C6
:100AD0008D919C91119782608D939C9308958D9137
:100AE0009C91119788608D939C9308958D919C9112
:100AF000119781608D939C9308958D919C9111978E
:100B000080618D939C9308958D919C911197806243
:100B10008D939C9308958D919C91119792608D93E4
:100B20009C9308958D919C91119791608D939C93C6
:100B300008958D919C91119780638D939C93089556
:100B400080E813968C93139714968C9314971596AC
:100B50008C93159716968C93169788E012968C9323
:100B60000895089508950895CF93DF93EC0138E038
:100B7000FC01832F11928A95E9F720E82B832C83BF
:100B80002D832E833A83809143029091440218165C
:100B9000190674F4DE01EBE5F2E088E001900D92B5
:100BA0008150E1F78091430290914402019782C104
:100BB00080914202843009F44BC0853050F481307A
:100BC000D9F0813020F1823021F1833009F068C101
:100BD00022C0873009F402C1883038F4853009F426
:100BE00079C0863009F05CC1BDC0883009F455C1B8
:100BF000893009F055C162C110924C0210924B022B
:100C0000198218822B832C832D832E833A8382E0D2
:100C100045C183E043C180914B0290914C02BE01DB
:100C200041E050E0C5DA80914D0290914E0201966C
:100C300090934E0280934D0240914B0250914C0292
:100C4000FA01EE0FFF1FE40FF51FE050FF4FA6C0A3
:100C500080914B0290914C02BE0142E050E0A8DA34
:100C600080914D0290914E02019690934E02809396
:100C70004D0240914B0250914C02FA01EE0FFF1FC2
:100C8000E40FF51FE657FE4F2181328128173907FF
:100C900050F44F5F5F4F50934C0240934B021092C1
:100CA0004E0210924D0280914B0290914C02069799
:100CB0000CF4F6C010924C0210924B0210924E02AD
:100CC00010924D02109256021092550285E08093C8
:100CD0004202DBC080914B0290914C02BE0143E086
:100CE00050E066DA80914D0290914E020196909309
:100CF0004E0280934D0240914B0250914C02FA01FA
:100D0000EE0FFF1FE40FF51FE456FE4F21813281E5
:100D10002817390750F44F5F5F4F50934C024093B0
:100D20004B0210924E0210924D0280914B02909114
:100D30004C0208970CF4B4C010924C0210924B0273
:100D400010924E0210924D028091550290915602DF
:100D50000196909356028093550283970CF4B6CF78
:100D600086E0B5CF80914B0290914C02BE0144E0E9
:100D700050E01EDA80914D0290914E0201969093C0
:100D80004E0280934D0240914B0250914C02FA0169
:100D9000EE0FFF1FE40FF51FEC54FE4F218132814F
:100DA0002817390750F44F5F5F4F50934C02409320
:100DB0004B0210924E0210924D0280914B02909184
:100DC0004C028E970CF46CC010924C0210924B02A5
:100DD00010924E0210924D0284E079CF80914B0226
:100DE00090914C02BE0145E050E0E2D980914D0265
:100DF00090914E02019690934E0280934D02409145
:100E00004B0250914C02FA01EE0FFF1FE40FF51F49
:100E1000E25CFD4F218132812817390750F44F5F82
:100E20005F4F50934C0240934B0210924E0210922F
:100E30004D0280914B0290914C0297FD31C087E0AA
:100E400090E090934C0280934B0210924E021092CD
:100E50004D0282E08093420210925202109251029F
:100E600010925402109253021092560210925502A0
:100E700010925802109257028091590290915A0292
:100E8000019690935A028093590280E88B838C8359
:100E90008D838E8388E08A8303C089E08093420239
:100EA000ABE5B2E0FE0188E001900D928150E1F7E0
:100EB00082E090E09093440280934302DF91CF91CF
:100EC0000895FF920F931F93DF93CF93CDB7DEB7B3
:100ED00028970FB6F894DEBF0FBECDBF8091670292
:100EE0008430B9F582E08093E9008091E80082FFC8
:100EF00014C08091E80085FF0BC08E010F5F1F4F6B
:100F0000C80167E070E040E050E05BD18823C1F7A2
:100F10008091E8008B778093E80081E08093E9007E
:100F20008091E80080FF15C08E010F5F1F4FC80140
:100F30001BDEF02E012F8F2D902F68E070E040E037
:100F400050E091D18823B9F78091E8008E778093A3
:100F5000E80028960FB6F894DEBF0FBECDBFCF9144
:100F6000DF911F910F91FF90089582E060EC42E3C2
:100F7000CCD181E061EC42E3C8C184B7877F84BFF4
:100F800088E10FB6F89480936000109260000FBE65
:100F900080E090E020E80FB6F89420936100809301
:100FA00061000FBE86C2E9DF78948BDFD8D4FDCF15
:100FB000DA019330B1F0943028F4913041F092305E
:100FC00079F50AC0913211F1923251F524C0EEEE5A
:100FD000F0E022E130E028C0E0E0F1E029E230E09A
:100FE00023C0813049F0813018F08230C9F40AC042
:100FF000E9E2F1E0849103C0EDE2F1E08491282F71
:1010000030E012C0EBE4F1E08491F9CFE2E1F1E0ED
:1010100029E030E009C0E8E9F0E026E530E004C06E
:10102000E0E0F0E020E030E0ED93FC93C9010895AA
:101030009C0140916E0250916F024617570718F4B9
:10104000F90190E03DC06115710511F0AB01F8CFD9
:101050008091E8008E778093E80040E050E0F0CF88
:1010600080916702882309F441C0853009F440C0AB
:101070008091E80083FD3EC08091E80082FD30C091
:101080008091E80080FF1CC02091F2003091F300B5
:1010900007C081918093F100415050402F5F3F4F36
:1010A0004115510519F02034310598F390E02034B2
:1010B000310509F491E08091E8008E778093E80093
:1010C0004115510569F6992359F60AC080916702C6
:1010D000882361F0853061F08091E80083FD0AC0CB
:1010E0008091E80082FFF2CF80E0089582E00895C9
:1010F00083E0089581E008959C0140916E02509133
:101100006F024617570718F4F90190E03EC06115C9
:10111000710511F0AB01F8CF8091E8008E778093D4
:10112000E80040E050E0F0CF80916702882309F4A6
:1011300042C0853009F441C08091E80083FD3FC082
:101140008091E80082FD31C08091E80080FF1DC0E1
:101150002091F2003091F30008C084918093F10057
:101160003196415050402F5F3F4F4115510519F0C6
:101170002034310590F390E02034310509F491E0FA
:101180008091E8008E778093E8004115510561F663
:10119000992351F60AC080916702882361F0853057
:1011A00061F08091E80083FD0AC08091E80082FF31
:1011B000F2CF80E0089582E0089583E0089581E011
:1011C0000895BF92CF92DF92EF92FF920F931F93F9
:1011D000CF93DF93182F092F7B016A01EFD0B82E30
:1011E0008823B1F5812F902F9C01E901C114D1040E
:1011F00039F0F60180819181E81AF90AC80FD91FE8
:1012000000E010E022C08091E80085FD16C08091CA
:10121000E8008B778093E800A2D3C114D10449F091
:10122000F60180819181800F911F9183808385E0F9
:1012300010C0C4D0882349F00CC08091F10089937C
:101240000894E108F1080F5F1F4FE114F104D9F68B
:101250008B2DDF91CF911F910F91FF90EF90DF9039
:10126000CF90BF900895BF92CF92DF92EF92FF92FE
:101270000F931F93CF93DF93182F092F7B016A01E0
:101280009DD0B82E8823B1F5812F902F9C01E901C4
:10129000C114D10439F0F60180819181E81AF90A6C
:1012A000C80FD91F00E010E022C08091E80085FD42
:1012B00016C08091E8008E778093E80050D3C11467
:1012C000D10449F0F60180819181800F911F9183B3
:1012D000808385E010C072D0882349F00CC08991CA
:1012E0008093F1000894E108F1080F5F1F4FE114AB
:1012F000F104D9F68B2DDF91CF911F910F91FF90C3
:10130000EF90DF90CF90BF900895382F282F2EC0F8
:10131000822F8F708093E900231721F4762F942F6A
:1013200050E006C07091EC009091ED005091F000FB
:1013300091FF1BC08091EB008E7F8093EB0080912A
:10134000ED008D7F8093ED008091EB0081608093B4
:10135000EB007093EC009093ED005093F0008091BF
:10136000EE0087FD02C080E008952F5F273080F2F5
:101370003F703093E90081E00895809168028823EE
:101380009CF404C0809167028823B9F08091E80042
:1013900082FFF8CF8091E8008B778093E800089572
:1013A00080916702882349F08091E80080FFF8CFA0
:1013B0008091E8008E778093E80008954091E400E2
:1013C0005091E50024E68091EC0080FF24C08091DC
:1013D000E80080FD1EC080916702882311F482E03E
:1013E0000895853011F483E008958091EB0085FF26
:1013F00002C081E008958091E4009091E500841797
:10140000950709F3222311F484E008952150AC01DB
:10141000DACF80E008958091E80082FFDCCFF9CF39
:10142000EF92FF920F931F9352D059D008ED10E026
:10143000F80180818F7780838081806880838081BC
:101440008F7D8083E7EDF0E080818068808319BC28
:101450001092670210926302109265021092640269
:1014600080EEE82EF12CF70180818B7F8083F801DC
:1014700080818160808380E060E042E346DFE1EECE
:10148000F0E080818E7F8083E2EEF0E080818160F9
:101490008083808188608083F70180818E7F808354
:1014A000F8018081806180831F910F91FF90EF9000
:1014B0000895E8EDF0E080818F7E8083E7EDF0E035
:1014C00080818160808381E080936602A9CFE8ED0E
:1014D000F0E080818C7F80831092E200089510926A
:1014E000DA001092E10008951F920F920FB60F924A
:1014F0000BB60F9211242F933F934F935F936F93EB
:101500007F938F939F93AF93BF93EF93FF938091BC
:10151000E10082FF0AC08091E20082FF06C0809154
:10152000E1008B7F8093E10019D28091DA0080FF87
:101530001DC08091D80080FF19C08091DA008E7F95
:101540008093DA008091D90080FF0CC084E189BDCE
:1015500086E189BD09B400FEFDCF81E0809367027A
:1015600000DB04C019BC10926702FCDA8091E10034
:1015700080FF18C08091E20080FF14C08091E200DB
:101580008E7F8093E2008091E20080618093E20090
:101590008091D80080628093D80019BC85E0809348
:1015A0006702DCD18091E10084FF2FC08091E200CE
:1015B00084FF2BC084E189BD86E189BD09B400FEAA
:1015C000FDCF8091D8008F7D8093D8008091E1007D
:1015D0008F7E8093E1008091E2008F7E8093E20015
:1015E0008091E20081608093E20080916302882311
:1015F00011F084E007C08091E30087FD02C081E024
:1016000001C083E080936702A9D18091E10083FF4C
:1016100022C08091E20083FF1EC08091E100877F9D
:101620008093E10082E080936702109263028091D0
:10163000E1008E7F8093E1008091E2008E7F8093B5
:10164000E2008091E20080618093E20080E060E04F
:1016500042E35BDE83D1FF91EF91BF91AF919F9108
:101660008F917F916F915F914F913F912F910F904B
:101670000BBE0F900FBE0F901F9018951F93DF9316
:10168000CF93CDB7DEB7AC970FB6F894DEBF0FBEE1
:10169000CDBFE8E6F2E08091F100819322E0E037EF
:1016A000F207C9F760DA8091E80083FF3FC18091BB
:1016B000680230916902353009F48DC0363040F44B
:1016C0003130E1F1313070F0333009F02FC136C0E4
:1016D000383009F4FDC0393009F40CC1363009F056
:1016E00025C19CC0803821F0823809F01FC108C094
:1016F00090916402809165028823B1F0926014C0D9
:1017000080916C028F70873008F010C18093E900DF
:101710008091EB0090E025E0969587952A95E1F77A
:10172000982F91701092E9008091E800877F809354
:10173000E8009093F1001092F100D5C0882319F0D1
:10174000823009F0F3C090E08F719070009721F023
:10175000029709F0EBC00CC080916A02813009F059
:10176000E5C010926502333081F5809365022DC08B
:1017700080916A02882349F520916C022F70822F94
:101780008150863008F0D2C02093E9008091EB00B0
:1017900080FF1BC0333021F48091EB00806213C0C6
:1017A0008091EB0080618093EB0081E090E002C0CB
:1017B000880F991F2A95E2F78093EA001092EA00B9
:1017C0008091EB0088608093EB001092E90080919B
:1017D000E800877F8BC0882309F0A8C010916A02B7
:1017E0001F778091E3008078812B8093E3008091C4
:1017F000E800877F8093E800C0DD8091E80080FFEB
:10180000FCCF8091E30080688093E300112311F402
:1018100082E001C083E08093670288C080588230F4
:1018200008F084C080916A0290916B0223E08C3DA5
:10183000920709F033C083E08C838AE28B837FB701
:10184000F894DE0115966EE040E050E011E2E62FDC
:10185000F0E010935700849140FF03C082958F7091
:101860006F5F8F70282F30E08A3018F0C901C7965B
:1018700002C0C901C0968D939D934F5F5F4F443165
:10188000510529F77FBF8091E800877F8093E800AA
:10189000CE0103966AE270E0CBDB14C060916C026B
:1018A00070916D02AE014F5F5F4F82DBBC0100970C
:1018B00009F43CC08091E800877F8093E80089812B
:1018C0009A811ADC8091E8008B778093E8002EC023
:1018D000803861F58091E800877F8093E8008091EF
:1018E00063028093F1008091E8008E778093E80096
:1018F00044DD1CC08823D1F490916A029230B0F488
:101900008091E800877F8093E8009093630235DD43
:1019100080916302882331F48091E30087FD02C047
:1019200081E001C084E0809367021FDB8091E800C2
:1019300083FF0AC08091E800877F8093E800809150
:10194000EB0080628093EB00AC960FB6F894DEBF9C
:101950000FBECDBFCF91DF911F91089508951F93C2
:1019600080916702882371F01091E9008091EC006A
:101970001092E9008091E80083FF01C07FDE1F70B4
:0C1980001093E9001F910895F894FFCF28
:10198C0013FA001505001396001505001396000DAB
:10199C00050013FA00033C00012800031E0000B9E7
:1019AC0000030F00005F000407001314000D0A0071
:1019BC001323000D0A001323000D05001305000A64
:1019CC000A001308000A05001304000A050013049A
:1019DC00000A05001304000A05001304000A0500A0
:1019EC001304000A0A001304001332000D0A00133A
:1019FC0037000D0A001369000D0A00135F000D0A71
:101A0C0000134B000D0A00131E00010F00130A00F7
:101A1C00021900131400110500131E000304000723
:101A2C000400010400060400020400040400000485
:101A3C00000504000E050013FA000E050013FA0051
:101A4C000E050013FA000E050013FA000E05001324
:101A5C00FA00002800058200130A00110500131E6D
:101A6C00000D0A001323000D0A001323000D0500BE
:101A7C001305000A0A001308000A05001304000AE3
:101A8C0005001304000A05001304000A05001304E2
:101A9C00000A05001304000A0A00130400133200A4
:101AAC000D0A001337000D0A001369000D0A00130C
:101ABC005F000D0A00134B000D0A00131E00130AE1
:021ACC00000018
:00000001FF
