:10000000C2C00000DCC00000DAC00000D8C00000A0
:10001000D6C00000D4C00000D2C00000D0C0000094
:10002000CEC00000CCC000000C949109C8C00000F4
:10003000C6C00000C4C00000C2C00000C0C00000B4
:10004000BEC00000BCC00000BAC00000B8C00000C4
:10005000B6C00000B4C00000B2C00000B0C00000D4
:10006000AEC00000ACC00000AAC00000A8C00000E4
:10007000A6C00000A4C00000A2C00000A0C00000F4
:100080009EC000009CC000009AC0000098C0000004
:1000900096C0000094C0000092C0000090C0000014
:1000A0008EC000008CC000008AC0000024035000F5
:1000B0004F004B004B0045004E00200043004F0016
:1000C0004E00540052004F004C004C0045005200BE
:1000D00000001C0348004F0052004900200043006C
:1000E0004F002E002C004C00540044002E00000055
:1000F000040309040902290001010080FA0904002F
:10010000000203000000092111010001225600072E
:1001100005020340000507058103400005120100A8
:1001200002000000400D0F920000010102000105D5
:10013000010905A10115002501350045017501954D
:1001400010050919012910810205012507463B0107
:100150007504950165140939814265009501810195
:1001600026FF0046FF0009300931093209357508BC
:10017000950481020600FF0920950181020A2126CB
:1001800095089102C00011241FBECFEFDAE0DEBF58
:10019000CDBF13E0A0E0B1E0EAEAF7E102C00590CC
:1001A0000D92A03AB107D9F723E0A0EAB3E001C06D
:1001B0001D92AE3CB207E1F733D60C94D30B20CF9F
:1001C000FB014130510509F0BEC0DC01AA0FBB1F85
:1001D0008A0F9B1FDC01AD58BC4F8C918A3009F40B
:1001E0007EC070F5843009F468C070F4813009F481
:1001F0005BC008F455C0823009F454C0833009F064
:100200009AC08FEF83830895873009F45DC050F45E
:10021000853009F455C0863009F08DC013828FEF08
:1002200084830895883009F453C0893009F083C06D
:100230008FEF838380819181826091838083089591
:100240008F3009F466C088F48C3009F45CC008F47F
:1002500054C08D3009F44BC08E3009F06CC08081E1
:1002600091818260918380830895823109F45DC019
:1002700060F4803109F453C0813109F05CC08081A1
:1002800091819260918380830895843181F08531DA
:1002900009F051C0808191818063918380830895AA
:1002A00014820895138208958FEF848308958081C6
:1002B00091819061918380830895138214820895BF
:1002C0008FEF8383148208958FEF8383848308954F
:1002D00013828081918182609183808308958FEF62
:1002E000848380819181826091838083089580815D
:1002F0009181846091838083089580819181886059
:10030000918380830895808191818160918380832E
:100310000895808191818061918380830895808197
:100320009181806291838083089580819181916021
:1003300091838083089580E8838384838583868383
:1003400088E0828308954230510509F0BEC0DC0187
:10035000AA0FBB1F8A0F9B1FDC01A95BBD4F8C91AD
:100360008A3009F47EC070F5843009F468C070F4F6
:10037000813009F45BC008F455C0823009F454C0E0
:10038000833009F09AC08FEF83830895873009F492
:100390005DC050F4853009F455C0863009F08DC039
:1003A00013828FEF84830895883009F453C0893015
:1003B00009F083C08FEF8383808191818260918374
:1003C000808308958F3009F466C088F48C3009F476
:1003D0005CC008F454C08D3009F44BC08E3009F075
:1003E0006CC0808191818260918380830895823185
:1003F00009F45DC060F4803109F453C0813109F023
:100400005CC0808191819260918380830895843162
:1004100081F0853109F051C08081918180639183A1
:100420008083089514820895138208958FEF848342
:1004300008958081918190619183808308951382D2
:10044000148208958FEF8383148208958FEF83833E
:100450008483089513828081918182609183808357
:1004600008958FEF8483808191818260918380835E
:100470000895808191818460918380830895808133
:1004800091818860918380830895808191818160CA
:10049000918380830895808191818061918380839D
:1004A0000895808191818062918380830895808105
:1004B0009181916091838083089580E88383848310
:1004C0008583868388E0828308954330510509F04F
:1004D000BEC0DC01AA0FBB1F8A0F9B1FDC01A75FF8
:1004E000BE4F8C918A3009F47EC070F5843009F4D7
:1004F00068C070F4813009F45BC008F455C08230E4
:1005000009F454C0833009F09AC08FEF83830895B3
:10051000873009F45DC050F4853009F455C0863049
:1005200009F08DC013828FEF84830895883009F419
:1005300053C0893009F083C08FEF8383808191811C
:1005400082609183808308958F3009F466C088F4B7
:100550008C3009F45CC008F454C08D3009F44BC0F1
:100560008E3009F06CC0808191818260918380839C
:100570000895823109F45DC060F4803109F453C0FC
:10058000813109F05CC08081918192609183808388
:100590000895843181F0853109F051C080819181C5
:1005A000806391838083089514820895138208954F
:1005B0008FEF8483089580819181906191838083FE
:1005C00008951382148208958FEF8383148208950F
:1005D0008FEF838384830895138280819181826069
:1005E0009183808308958FEF8483808191818260DD
:1005F0009183808308958081918184609183808339
:10060000089580819181886091838083089580819D
:10061000918181609183808308958081918180613F
:10062000918380830895808191818062918380830A
:10063000089580819181916091838083089580E8FD
:10064000838384838583868388E08283089544300E
:10065000510509F0BEC0DC01AA0FBB1F8A0F9B1F0A
:10066000DC01AD5FBE4F8C918A3009F47EC070F51D
:10067000843009F468C070F4813009F45BC008F478
:1006800055C0823009F454C0833009F09AC08FEF0E
:1006900083830895873009F45DC050F4853009F4F0
:1006A00055C0863009F08DC013828FEF8483089582
:1006B000883009F453C0893009F083C08FEF8383F9
:1006C0008081918182609183808308958F3009F4C5
:1006D00066C088F48C3009F45CC008F454C08D30D6
:1006E00009F44BC08E3009F06CC08081918182602A
:1006F000918380830895823109F45DC060F4803174
:1007000009F453C0813109F05CC08081918192600D
:10071000918380830895843181F0853109F051C03F
:1007200080819181806391838083089514820895EC
:10073000138208958FEF8483089580819181906161
:100740009183808308951382148208958FEF8383A9
:10075000148208958FEF83838483089513828081A8
:10076000918182609183808308958FEF848380815B
:1007700091818260918380830895808191818460DA
:1007800091838083089580819181886091838083A3
:100790000895808191818160918380830895808113
:1007A00091818061918380830895808191818062AD
:1007B000918380830895808191819160918380836A
:1007C000089580E8838384838583868388E0828399
:1007D00008954530510509F0BDC0DC01AA0FBB1FCB
:1007E0008A0F9B1FDC01A050BF4F8C918A3009F407
:1007F0007EC070F5843009F468C070F4813009F46B
:100800005BC008F455C0823009F454C0833009F04D
:100810009AC08FEF83830895873009F45DC050F448
:10082000853009F455C0863009F08DC013828FEFF2
:1008300084830895883009F453C0893009F083C057
:100840008FEF83838081918182609183808308957B
:100850008F3009F466C088F48C3009F45CC008F469
:1008600054C08D3009F44BC08E3009F06CC08081CB
:1008700091818260918380830895823109F45DC003
:1008800060F4803109F453C0813109F05CC080818B
:1008900091819260918380830895843181F08531C4
:1008A00009F051C080819181806391838083089594
:1008B00014820895138208958FEF848308958081B0
:1008C00091819061918380830895138214820895A9
:1008D0008FEF8383148208958FEF83838483089539
:1008E00013828081918182609183808308958FEF4C
:1008F0008483808191818260918380830895808147
:100900009181846091838083089580819181886042
:100910009183808308958081918181609183808318
:100920000895808191818061918380830895808181
:10093000918180629183808308958081918191600B
:1009400091838083089580E883838483858386836D
:1009500088E08283089584B7877F84BF0FB6F894B8
:10096000A89580916000886180936000109260007B
:100970000FBE90E080E80FB6F894809361009093EA
:1009800061000FBEB1C40895089542E360EC82E0B7
:10099000E4D342E361EC81E0E0C30895CF93DF93B9
:1009A000DC0198E0FD01892F11928A95E9F780E832
:1009B00013968C93139714968C93149715968C9387
:1009C000159716968C93169712969C931297809172
:1009D000B6039091B703181619066CF488E0E9EB9A
:1009E000F3E001900D928A95E1F78091B603909122
:1009F000B7030197C6C1ED018091B803843009F4B3
:100A000079C040F48130C1F0E8F08230E9F0833001
:100A1000E9F0ADC1873009F453C138F4853009F4E9
:100A2000B9C0863009F405C1A2C1883009F49CC15F
:100A3000893009F4AAC19BC11092AF031092AE0392
:100A40001982188282E091C183E08FC141E050E0B9
:100A5000BD018091AE039091AF03B2DB2091AC0356
:100A60003091AD032F5F3F4F3093AD032093AC0324
:100A70008091AE039091AF03FC01EE0FFF1FE80FD2
:100A8000F91FED58FC4F418152814217530748F43A
:100A900001969093AF038093AE031092AD03109232
:100AA000AC038091AE039091AF030F970CF45FC13C
:100AB0001092AF031092AE031092AD031092AC03EC
:100AC0008091A8039091A90301969093A903809324
:100AD000A8031092A7031092A6031092A5031092E8
:100AE000A4031092A3031092A2031092A1031092E8
:100AF000A0039BC042E050E0BD018091AE03909105
:100B0000AF035EDB2091AC033091AD032F5F3F4F0D
:100B10003093AD032093AC038091AE039091AF036B
:100B2000FC01EE0FFF1FE80FF91FE95BFD4F41814C
:100B300052814217530748F401969093AF03809374
:100B4000AE031092AD031092AC038091AE0390916E
:100B5000AF03843691050CF40AC11092AF031092D2
:100B6000AE031092AD031092AC038091A603909156
:100B7000A7038330910554F41092A9031092A8039F
:100B800001969093A7038093A6034FC085E08093BE
:100B9000B803E2C043E050E0BD018091AE03909104
:100BA000AF030EDB2091AC033091AD032F5F3F4FBD
:100BB0003093AD032093AC038091AE039091AF03CB
:100BC000FC01EE0FFF1FE80FF91FE75FFE4F4181A9
:100BD00052814217530748F401969093AF038093D4
:100BE000AE031092AD031092AC038091AE039091CE
:100BF000AF038A3691050CF4BAC01092AF0310927D
:100C0000AE031092AD031092AC038091A4039091B7
:100C1000A503853091055CF401969093A50380931C
:100C2000A4031092A7031092A60384E0B0CF86E03D
:100C3000AECF44E050E0BD018091AE039091AF0390
:100C4000BFDA2091AC033091AD032F5F3F4F30935B
:100C5000AD032093AC038091AE039091AF03FC01F0
:100C6000EE0FFF1FE80FF91FED5FFE4F418152812C
:100C70004217530748F401969093AF038093AE0355
:100C80001092AD031092AC038091AE039091AF032C
:100C900002970CF46CC01092AF031092AE03109246
:100CA000AD031092AC0386E08093B8038091A20359
:100CB0009091A30301969093A3038093A2034CC049
:100CC00045E050E0BD018091AE039091AF0378DA2A
:100CD0008091AC039091AD0301969093AD03809306
:100CE000AC030B9768F08091AE039091AF0301962F
:100CF0009093AF038093AE031092AD031092AC03B8
:100D00008091AE039091AF0397FD31C087E090E0F2
:100D10009093AF038093AE031092AD031092AC0397
:100D200082E08093B8031092A9031092A803109256
:100D3000A7031092A6031092A5031092A403109289
:100D4000A3031092A2038091A0039091A1030196A6
:100D50009093A1038093A00380E88B838C838D8381
:100D60008E8388E08A8303C089E08093B80388E09B
:100D7000FE01A9EBB3E001900D928A95E1F782E0C4
:100D800090E09093B7038093B603DF91CF910895DD
:100D9000CF93DF93CDB7DEB728970FB6F894DEBFB9
:100DA0000FBECDBF8091C503843089F582E080936A
:100DB000E9008091E80082FF12C08091E80085FF81
:100DC00009C040E050E067E070E0CE010196B8D085
:100DD0008111F7CF8091E8008B778093E80081E064
:100DE0008093E9008091E80080FF11C0CE01019658
:100DF000D5DD40E050E068E070E0CE01019656D0CD
:100E00008111F7CF8091E8008E778093E8002896D3
:100E10000FB6F894DEBF0FBECDBFDF91CF9108951E
:100E20009ADD7894B5DFA5D4FDCF292F3327233061
:100E30003105E1F058F42130310599F022303105C7
:100E400069F589E290E024EF30E02CC021323105D1
:100E500001F12232310511F586E590E02FE231E013
:100E600021C082E190E02DE131E01CC09927813062
:100E7000910549F028F0029789F4ECEAF0E005C00A
:100E8000E0EFF0E002C0E2EDF0E0849190E09F013D
:100E900009C089E090E026E031E004C080E090E005
:100EA00020E030E0FA01318320830895CF92DF9271
:100EB000EF92FF920F931F93CF93DF93EC018B017F
:100EC0007A019FD1811133C0E114F10439F0F701A7
:100ED00080819181081B190BC80FD91FC12CD12CFF
:100EE0000115110519F18091E80085FD16C080916A
:100EF000E8008E778093E8003CD4E114F10449F0D7
:100F0000F70180819181C80ED91ED182C08285E00F
:100F10000EC077D1882321F30AC089918093F10014
:100F200001501109FFEFCF1ADF0ADACF80E0DF911D
:100F3000CF911F910F91FF90EF90DF90CF90089588
:100F4000CF92DF92EF92FF920F931F93CF93DF9395
:100F5000EC018B017A0155D1811133C0E114F10408
:100F600039F0F70180819181081B190BC80FD91F37
:100F7000C12CD12C0115110519F18091E80085FDD6
:100F800016C08091E8008B778093E800F2D3E114DB
:100F9000F10449F0F70180819181C80ED91ED182F8
:100FA000C08285E00EC02DD1882321F30AC0809134
:100FB000F100899301501109FFEFCF1ADF0ADACF50
:100FC00080E0DF91CF911F910F91FF90EF90DF9024
:100FD000CF9008952091CC033091CD032617370789
:100FE00048F06115710539F42091E8002E772093BF
:100FF000E80001C0B901FC0120E06115710591F123
:101000008091C503882309F440C0853009F43FC0AE
:101010008091E80083FD3DC08091E80082FD2FC0F3
:101020008091E80080FFE9CF2091F3008091F200E9
:1010300090E0922B6115710551F08034910538F4E0
:1010400021912093F100615071090196F3CF21E0C5
:101050008034910509F020E08091E8008E7780933C
:10106000E800CBCF2111CCCF0AC08091C5038823E3
:1010700061F0853061F08091E80083FD0AC08091C5
:10108000E80082FFF2CF80E0089582E0089583E0D7
:10109000089581E008952091CC033091CD03261767
:1010A000370748F06115710539F42091E8002E7773
:1010B0002093E80001C0B901FC0120E06115710531
:1010C00099F18091C503882309F441C0853009F462
:1010D00040C08091E80083FD3EC08091E80082FD21
:1010E00030C08091E80080FFE9CF2091F30080912B
:1010F000F20090E0922B6115710559F08034910552
:1011000040F424912093F1003196615071090196C9
:10111000F2CF21E08034910509F020E08091E800D1
:101120008E778093E800CACF2111CBCF0AC080917F
:10113000C503882361F0853061F08091E80083FD6C
:101140000AC08091E80082FFF2CF80E0089582E03B
:10115000089583E0089581E00895982F973068F509
:101160009093E900981739F07091EC002091ED0010
:101170005091F00003C0242F762F50E021FD02C0D3
:101180009F5FECCF3091EB003E7F3093EB003091CE
:10119000ED003D7F3093ED003091EB0031603093F6
:1011A000EB007093EC002093ED005093F000209141
:1011B000EE0027FDE5CF80E008958F708093E90071
:1011C00081E008958091C60387FF11C08091E800F7
:1011D00082FD05C08091C5038111F8CF11C08091B7
:1011E000E8008B770BC08091C503882349F080917C
:1011F000E80080FFF8CF8091E8008E778093E800C8
:1012000008952091E4003091E50095E64091EC00CE
:10121000842F817040FF23C08091E80080FD1DC0B5
:101220008091C503882399F0853099F08091EB0077
:1012300085FD11C04091E4005091E5002417350769
:1012400029F3915011F09A01E1CF84E0089582E0F2
:10125000089583E0089581E0089580E00895409125
:10126000E80042FFDDCF08950F931F93CF93DF93E4
:101270004BD052D0C8EDD0E088818F7788838881A9
:101280008068888388818F7D888319BC1092C5030C
:101290001092C1031092C3031092C20300EE10E03B
:1012A000F80180818B7F808388818160888342E31D
:1012B00060E080E052DFE1EEF0E080818E7F8083AD
:1012C000E2EEF0E0808181608083808188608083AD
:1012D000F80180818E7F8083888180618883DF919F
:1012E000CF911F910F910895E8EDF0E080818F7EFE
:1012F0008083E7EDF0E080818160808384E082BFBD
:1013000081E08093C403B0CFE8EDF0E080818E7F70
:1013100080831092E20008951092DA001092E100AA
:1013200008951F920F920FB60F9211242F933F939F
:101330004F935F936F937F938F939F93AF93BF93DD
:10134000EF93FF938091E10082FF0AC08091E20059
:1013500082FF06C08091E1008B7F8093E10008D27C
:101360008091DA0080FF1DC08091D80080FF19C0F5
:101370008091DA008E7F8093DA008091D90080FF1F
:101380000CC080E189BD82E189BD09B400FEFDCFBA
:1013900081E08093C503F7DA04C019BC1092C5033D
:1013A000F3DA8091E10080FF18C08091E20080FFB5
:1013B00014C08091E2008E7F8093E2008091E20071
:1013C00080618093E2008091D80080628093D80091
:1013D00019BC85E08093C503CBD18091E10084FFE7
:1013E0002FC08091E20084FF2BC080E189BD82E1A3
:1013F00089BD09B400FEFDCF8091D8008F7D809318
:10140000D8008091E1008F7E8093E1008091E2001E
:101410008F7E8093E2008091E20081608093E20001
:101420008091C103882311F084E007C08091E3001C
:1014300087FD02C081E001C083E08093C50398D19D
:101440008091E10083FF22C08091E20083FF1EC0F3
:101450008091E100877F8093E10082E08093C50363
:101460001092C1038091E1008E7F8093E100809112
:10147000E2008E7F8093E2008091E20080618093A1
:10148000E20042E360E080E068DE72D1FF91EF911C
:10149000BF91AF919F918F917F916F915F914F918C
:1014A0003F912F910F900FBE0F901F9018951F9393
:1014B000CF93DF93CDB7DEB7AA970FB6F894DEBF10
:1014C0000FBECDBFE6ECF3E08091F100819323E005
:1014D000EE3CF207C9F761DA8091E80083FF30C182
:1014E0008091C6039091C703953009F483C030F40E
:1014F0009130A9F168F0933091F122C1983009F44C
:10150000EFC0993009F4FBC0963009F019C194C0BE
:10151000803821F0823809F013C108C08091C203DD
:101520009091C303992389F082600FC08091CA0310
:101530008F70873008F004C18093E9008091EB0040
:1015400085FB882780F91092E9009091E800977F49
:101550009093E8008093F1001092F100CCC0282F06
:101560002D7F09F0EDC0882319F0823061F0E8C0CA
:101570008091C803813009F0E3C0933009F080E026
:101580008093C3032EC08091C80381112AC080912B
:10159000CA038F702FEF280F263008F0D1C0809338
:1015A000E9002091EB0020FF1CC0933021F48091D2
:1015B000EB00806214C09091EB0090619093EB007F
:1015C00021E030E0A90102C0440F551F8A95E2F7DF
:1015D0004093EA001092EA008091EB0088608093CB
:1015E000EB001092E9008091E800877F8093E8008B
:1015F000E9DDA6C08111A4C01091C8031F778091B6
:10160000E3008078812B8093E3008091E800877F5E
:101610008093E800D7DD8091E80080FFFCCF8091C7
:10162000E30080688093E300111102C082E001C0F2
:1016300083E08093C50384C08058823008F080C066
:101640008091C8039091C9038C3D53E0950771F5D3
:1016500083E08A838AE289834FB7F894DE01139688
:1016600020E03EE051E2E32FF0E050935700E49198
:1016700020FF03C0E295EF703F5FEF708E2F90E088
:10168000EA3010F0C79601C0C0968D939D932F5FEE
:10169000243149F74FBF8091E800877F8093E800AD
:1016A0006AE270E0CE01019695DC14C06091CA0335
:1016B0007091CB03AE014F5F5F4FB7DBBC01892B4D
:1016C00009F43EC09091E800977F9093E8008981EB
:1016D0009A81E1DC8091E8008B778093E80030C04C
:1016E000803871F58091E800877F8093E8008091D1
:1016F000C1038093F1008091E8008E7777CF81114C
:101700001FC08091C8039091C90399270297C4F420
:101710008091E800877F8093E8008091C8038093E0
:10172000C10350DD8091C103811106C08091E300A7
:1017300087FD02C081E001C084E08093C50325D904
:101740008091E80083FF0AC08091E800877F809342
:10175000E8008091EB0080628093EB00AA960FB6C0
:10176000F894DEBF0FBECDBFDF91CF911F910895DA
:101770000895CF938091C503882399F0C091E90023
:10178000CF709091EC00892F817090FD80E8C82B7C
:101790001092E9008091E80083FD89DECF70C0934C
:0A17A000E900CF910895F894FFCFFF
:1017AA00130A000E0A00130A000D0A00130A0000A9
:1017BA000A00130A00000A00130A000D0A0013287F
:1017CA0000000A00130A000D0A001328000D0A007F
:1017DA00131400030A001314000D0A00130A000070
:1017EA000A00130A00000A00130A000D0A0013284F
:1017FA0000000A00130A000D0A001328000D0A004F
:10180A00131400030A001314000D0A00130A00003F
:10181A000A00130A00000A00130A000D0A0013281E
:10182A0000000A00130A000D0A001328000D0A001E
:10183A00131400030A001314000D0A00130A00000F
:10184A000A00130A00000A00130A000D0A001328EE
:10185A0000000A00130A000D0A001328000D0A00EE
:10186A00131400030A001314000D0A00130A0000DF
:10187A000A00130A00000A00130A000D0A001328BE
:10188A0000000A00130A000D0A001328000D0A00BE
:10189A00131400030A001314000D0A00130A0000AF
:1018AA000A00130A00000A00130A000D0A0013288E
:1018BA0000000A00130A000D0A001328000D0A008E
:1018CA00131400030A00131E00030A00130A00017E
:1018DA000A00130A00010A00130A00030A0013147B
:1018EA0000010A00130A000D0A00130A00000A0088
:1018FA00130A00000A00130A000D0A001328000048
:10190A000A00130A000D0A001328000D0A00131416
:10191A0000030A001314000D0A00130A00000A004B
:10192A00130A00000A00130A000D0A001328000017
:10193A000A00130A000D0A001328000D0A001314E6
:10194A0000030A001314000D0A00130A00000A001B
:10195A00130A00000A00130A000D0A0013280000E7
:10196A000A00130A000D0A001328000D0A001314B6
:10197A0000030A001314000D0A00130A00000A00EB
:10198A00130A00000A00130A000D0A0013280000B7
:10199A000A00130A000D0A001328000D0A00131486
:1019AA0000030A001314000D0A00130A00000A00BB
:1019BA00130A00000A00130A000D0A001328000087
:1019CA000A00130A000D0A001328000D0A00131456
:1019DA0000030A001314000D0A00130A00000A008B
:1019EA00130A00000A00130A000D0A001328000057
:1019FA000A00130A000D0A001328000D0A00131426
:101A0A0000030A00131E00030A00130A00010A0059
:101A1A00130A0013FA0015050013960015050013A2
:101A2A0096000D050013FA000EFA00130A000005CD
:101A3A0000130A00030500130A00010500130A0037
:00000001FF
