:10000000A6C00000C0C00000BEC00000BCC0000010
:10001000BAC00000B8C00000B6C00000B4C0000004
:10002000B2C00000B0C00000AEC000000C940309D4
:10003000AAC00000A8C00000A6C00000A4C0000024
:10004000A2C00000A0C000009EC000009CC0000034
:100050009AC0000098C0000096C0000094C0000044
:1000600092C0000090C000008EC000008CC0000054
:100070008AC00000240350004F004B004B00450095
:100080004E00200043004F004E00540052004F002D
:100090004C004C004500520000001C0348004F007B
:1000A00052004900200043004F002E002C004C005D
:1000B000540044002E000000040309040902290032
:1000C00001010080FA090400000203000000092178
:1000D0001101000122560007050203400005070533
:1000E000810340000512010002000000400D0F9244
:1000F0000000010102000105010905A1011500250B
:100100000135004501750195100509190129108176
:100110000205012507463B0175049501651409395F
:10012000814265009501810126FF0046FF000930EC
:100130000931093209357508950481020600FF0965
:1001400020950181020A212695089102C000112400
:100150001FBECFEFD2E0DEBFCDBF12E0A0E0B1E026
:10016000ECE6F6E102C005900D92A234B107D9F792
:1001700022E0A2E4B2E001C01D92A037B207E1F78D
:10018000DED50C94340B3CCFFB014130510509F016
:10019000BDC063E070E00E94230B89549E4FDC01D8
:1001A0008C918A3009F47EC070F5843009F468C0FF
:1001B00070F4813009F45BC008F455C0823009F452
:1001C00054C0833009F09AC08FEF8383089587303D
:1001D00009F45DC050F4853009F455C0863009F04B
:1001E0008DC013828FEF84830895883009F453C043
:1001F000893009F083C08FEF838380819181826091
:100200009183808308958F3009F466C088F48C3020
:1002100009F45CC008F454C08D3009F44BC08E3032
:1002200009F06CC080819181826091838083089500
:10023000823109F45DC060F4803109F453C081312A
:1002400009F05CC0808191819260918380830895E0
:10025000843181F0853109F051C0808191818063C2
:1002600091838083089514820895138208958FEFF7
:100270008483089580819181906191838083089522
:100280001382148208958FEF8383148208958FEF71
:100290008383848308951382808191818260918316
:1002A000808308958FEF8483808191818260918320
:1002B00080830895808191818460918380830895F3
:1002C000808191818860918380830895808191816C
:1002D0008160918380830895808191818061918381
:1002E00080830895808191818062918380830895C5
:1002F00080819181916091838083089580E88383D8
:1003000084838583868388E0828308954230510503
:1003100009F0BDC063E070E00E94230B8B559E4F37
:10032000DC018C918A3009F47EC070F5843009F4C8
:1003300068C070F4813009F45BC008F455C08230A5
:1003400009F454C0833009F09AC08FEF8383089575
:10035000873009F45DC050F4853009F455C086300B
:1003600009F08DC013828FEF84830895883009F4DB
:1003700053C0893009F083C08FEF838380819181DE
:1003800082609183808308958F3009F466C088F479
:100390008C3009F45CC008F454C08D3009F44BC0B3
:1003A0008E3009F06CC0808191818260918380835E
:1003B0000895823109F45DC060F4803109F453C0BE
:1003C000813109F05CC0808191819260918380834A
:1003D0000895843181F0853109F051C08081918187
:1003E0008063918380830895148208951382089511
:1003F0008FEF8483089580819181906191838083C0
:1004000008951382148208958FEF838314820895D0
:100410008FEF83838483089513828081918182602A
:100420009183808308958FEF84838081918182609E
:1004300091838083089580819181846091838083FA
:10044000089580819181886091838083089580815F
:100450009181816091838083089580819181806101
:1004600091838083089580819181806291838083CC
:10047000089580819181916091838083089580E8BF
:10048000838384838583868388E0828308954330D1
:10049000510509F0BDC063E070E00E94230B835753
:1004A0009E4FDC018C918A3009F47EC070F5843057
:1004B00009F468C070F4813009F45BC008F455C0D9
:1004C000823009F454C0833009F09AC08FEF8383DF
:1004D0000895873009F45DC050F4853009F455C0A3
:1004E000863009F08DC013828FEF848308958830A1
:1004F00009F453C0893009F083C08FEF8383808172
:10050000918182609183808308958F3009F466C061
:1005100088F48C3009F45CC008F454C08D3009F4C0
:100520004BC08E3009F06CC08081918182609183D4
:1005300080830895823109F45DC060F4803109F44C
:1005400053C0813109F05CC08081918192609183B8
:1005500080830895843181F0853109F051C0808114
:10056000918180639183808308951482089513821A
:1005700008958FEF848308958081918190619183A4
:10058000808308951382148208958FEF83831482E9
:1005900008958FEF838384830895138280819181EE
:1005A00082609183808308958FEF8483808191811D
:1005B000826091838083089580819181846091839A
:1005C00080830895808191818860918380830895DC
:1005D0008081918181609183808308958081918160
:1005E000806191838083089580819181806291836D
:1005F00080830895808191819160918380830895A3
:1006000080E8838384838583868388E0828308955A
:100610004430510509F0BDC063E070E00E94230B37
:100620008D5F9E4FDC018C918A3009F47EC070F59D
:10063000843009F468C070F4813009F45BC008F4B8
:1006400055C0823009F454C0833009F09AC08FEF4E
:1006500083830895873009F45DC050F4853009F430
:1006600055C0863009F08DC013828FEF84830895C2
:10067000883009F453C0893009F083C08FEF838339
:100680008081918182609183808308958F3009F405
:1006900066C088F48C3009F45CC008F454C08D3016
:1006A00009F44BC08E3009F06CC08081918182606A
:1006B000918380830895823109F45DC060F48031B4
:1006C00009F453C0813109F05CC08081918192604E
:1006D000918380830895843181F0853109F051C080
:1006E000808191818063918380830895148208952D
:1006F000138208958FEF84830895808191819061A2
:100700009183808308951382148208958FEF8383E9
:10071000148208958FEF83838483089513828081E8
:10072000918182609183808308958FEF848380819B
:10073000918182609183808308958081918184601A
:1007400091838083089580819181886091838083E3
:100750000895808191818160918380830895808153
:1007600091818061918380830895808191818062ED
:1007700091838083089580819181916091838083AA
:10078000089580E8838384838583868388E08283D9
:1007900008954530510509F0BBC063E070E053D7C0
:1007A00080509F4FDC018C918A3009F47EC070F537
:1007B000843009F468C070F4813009F45BC008F437
:1007C00055C0823009F454C0833009F09AC08FEFCD
:1007D00083830895873009F45DC050F4853009F4AF
:1007E00055C0863009F08DC013828FEF8483089541
:1007F000883009F453C0893009F083C08FEF8383B8
:100800008081918182609183808308958F3009F483
:1008100066C088F48C3009F45CC008F454C08D3094
:1008200009F44BC08E3009F06CC0808191818260E8
:10083000918380830895823109F45DC060F4803132
:1008400009F453C0813109F05CC0808191819260CC
:10085000918380830895843181F0853109F051C0FE
:1008600080819181806391838083089514820895AB
:10087000138208958FEF8483089580819181906120
:100880009183808308951382148208958FEF838368
:10089000148208958FEF8383848308951382808167
:1008A000918182609183808308958FEF848380811A
:1008B0009181826091838083089580819181846099
:1008C0009183808308958081918188609183808362
:1008D00008958081918181609183808308958081D2
:1008E000918180619183808308958081918180626C
:1008F0009183808308958081918191609183808329
:10090000089580E8838384838583868388E0828357
:10091000089584B7877F84BF0FB6F894A895809117
:100920006000886180936000109260000FBE90E0CC
:1009300080E80FB6F89480936100909361000FBE39
:1009400053C40895089542E360EC82E08DD342E3FE
:1009500061EC81E089C30895CF93DF93DC0198E0D7
:10096000FD01892F11928A95E9F780E813968C93FF
:10097000139714968C93149715968C931597169637
:100980008C93169712969C9312978091580290918F
:100990005902181619066CF488E0EBE5F2E00190B4
:1009A0000D928A95E1F78091580290915902019732
:1009B00077C1ED0180915A02843009F482C038F584
:1009C000813009F451C008F455C0823009F454C094
:1009D000833009F05BC141E050E0BD0180915002DD
:1009E00090915102D1DBE0914E02F0914F0231968D
:1009F000F0934F02E0934E02209150023091510249
:100A0000C90163E070E01FD689549E4F37C087301C
:100A100009F4ECC010F5853009F49EC0863009F069
:100A200035C144E050E0BD018091500290915102E7
:100A3000ABDBE0914E02F0914F023196F0934F0202
:100A4000E0934E022091500230915102C90163E0BF
:100A500070E0F9D58D5F9E4F11C0883009F413C145
:100A6000893009F421C112C1109251021092500232
:100A70001982188282E008C183E006C1DC01119668
:100A80008D919C9112978E179F0750F42F5F3F4FC7
:100A9000309351022093500210924F0210924E0256
:100AA00080915002909151028E970CF4EFC01092F9
:100AB00051021092500210924F0210924E0284E0A6
:100AC00041C042E050E0BD0180915002909151023E
:100AD0005BDBE0914E02F0914F023196F0934F02B2
:100AE000E0934E022091500230915102C90163E01F
:100AF00070E0A9D58B559E4FDC0111968D919C918C
:100B000012978E179F0750F42F5F3F4F309351027B
:100B10002093500210924F0210924E028091500288
:100B20009091510206970CF4B1C0109251021092AC
:100B3000500210924F0210924E02109247021092F1
:100B4000460285E080935A0280E88B838C838D83F4
:100B50008E8388E08A839AC043E050E0BD01809193
:100B600050029091510210DBE0914E02F0914F0241
:100B70003196F0934F02E0934E0220915002309153
:100B80005102C90163E070E05ED583579E4FDC01DE
:100B900011968D919C9112978E179F0750F42F5F9D
:100BA0003F4F309351022093500210924F02109207
:100BB0004E02809150029091510208970CF466C049
:100BC000109251021092500210924F0210924E0257
:100BD000809146029091470201969093470280933C
:100BE000460283970CF4ADCF86E0ACCF45E050E0F1
:100BF000BD018091500290915102C6DA80914E025F
:100C000090914F02019690934F0280934E020B9762
:100C100068F0809150029091510201969093510298
:100C20008093500210924F0210924E028091500217
:100C30009091510297FD2AC087E090E09093510275
:100C40008093500210924F0210924E0282E08093E5
:100C50005A0210924B0210924A02109249021092CC
:100C600048021092470210924602109245021092DA
:100C70004402809142029091430201969093430274
:100C80008093420261CF89E080935A0288E0FE019E
:100C9000ABE5B2E001900D928A95E1F782E090E039
:100CA0009093590280935802DF91CF910895CF938A
:100CB000DF93CDB7DEB728970FB6F894DEBF0FBE2F
:100CC000CDBF80916702843089F582E08093E9008E
:100CD0008091E80082FF12C08091E80085FF09C082
:100CE00040E050E067E070E0CE010196B8D081119D
:100CF000F7CF8091E8008B778093E80081E08093C4
:100D0000E9008091E80080FF11C0CE01019624DE49
:100D100040E050E068E070E0CE01019656D08111CD
:100D2000F7CF8091E8008E778093E80028960FB681
:100D3000F894DEBF0FBECDBFDF91CF910895E9DDFE
:100D40007894B5DF66D4FDCF292F332723303105C2
:100D5000E1F058F42130310599F02230310569F580
:100D600089E290E02CEB30E02CC02132310501F11A
:100D70002232310511F586E590E027EF30E021C001
:100D800082E190E025EE30E01CC09927813091058A
:100D900049F028F0029789F4E4E7F0E005C0E8EBB9
:100DA000F0E002C0EAE9F0E0849190E09F0109C020
:100DB00089E090E02EEC30E004C080E090E020E09C
:100DC00030E0FA01318320830895CF92DF92EF92D1
:100DD000FF920F931F93CF93DF93EC018B017A0166
:100DE00097D1811133C0E114F10439F0F70180810A
:100DF0009181081B190BC80FD91FC12CD12C0115CB
:100E0000110519F18091E80085FD16C08091E80078
:100E10008E778093E800FDD3E114F10449F0F701E7
:100E200080819181C80ED91ED182C08285E00EC01A
:100E30006FD1882321F30AC089918093F10001507A
:100E40001109FFEFCF1ADF0ADACF80E0DF91CF91EF
:100E50001F910F91FF90EF90DF90CF900895CF9268
:100E6000DF92EF92FF920F931F93CF93DF93EC01EA
:100E70008B017A014DD1811133C0E114F10439F0B5
:100E8000F70180819181081B190BC80FD91FC12C54
:100E9000D12C0115110519F18091E80085FD16C0CE
:100EA0008091E8008B778093E800B3D3E114F104DC
:100EB00049F0F70180819181C80ED91ED182C0828C
:100EC00085E00EC025D1882321F30AC08091F1006E
:100ED000899301501109FFEFCF1ADF0ADACF80E0C2
:100EE000DF91CF911F910F91FF90EF90DF90CF9006
:100EF000089520916E0230916F022617370748F04F
:100F00006115710539F42091E8002E772093E800EF
:100F100001C0B901FC0120E06115710569F1809102
:100F200067028823E1F18530E1F18091E80083FDDB
:100F30003AC08091E80082FD2CC08091E80080FFDB
:100F4000EBCF8091F20090E06115710551F0803493
:100F5000910538F421912093F100615071090196B7
:100F6000F3CF21E08034910509F020E08091E80082
:100F70008E778093E800D0CF2111D1CF0AC0809125
:100F80006702882361F0853061F08091E80083FD7D
:100F90000AC08091E80082FFF2CF80E0089582E0ED
:100FA000089583E0089581E0089520916E023091C4
:100FB0006F022617370748F06115710539F4209143
:100FC000E8002E772093E80001C0B901FC0120E081
:100FD0006115710581F180916702882309F43EC093
:100FE000853009F43DC08091E80083FD3BC08091CD
:100FF000E80082FD2DC08091E80080FFE9CF80915C
:10100000F20090E06115710559F08034910540F4CB
:1010100024912093F1003196615071090196F2CF2D
:1010200021E08034910509F020E08091E8008E777E
:101030008093E800CDCF2111CECF0AC08091670206
:10104000882361F0853061F08091E80083FD0AC05B
:101050008091E80082FFF2CF80E0089582E0089559
:1010600083E0089581E00895982F953068F5909376
:10107000E900981739F07091EC002091ED00509143
:10108000F00003C0242F762F50E021FD02C09F5FA7
:10109000ECCF3091EB003E7F3093EB003091ED00D0
:1010A0003D7F3093ED003091EB0031603093EB00E9
:1010B0007093EC002093ED005093F0002091EE002F
:1010C00027FDE5CF80E008958F708093E90081E0EF
:1010D00008958091680287FF11C08091E80082FD29
:1010E00005C0809167028111F8CF11C08091E8009E
:1010F0008B770BC080916702882349F08091E800CC
:1011000080FFF8CF8091E8008E778093E800089503
:101110002091E4003091E50095E64091EC00842FA9
:10112000817040FF23C08091E80080FD1DC0809148
:101130006702882399F0853099F08091EB0085FD56
:1011400011C04091E4005091E5002417350729F3C0
:10115000915011F09A01E1CF84E0089582E0089562
:1011600083E0089581E0089580E008954091E800CB
:1011700042FFDDCF089541D043D08091D8008F77D2
:101180008093D8008091D80080688093D8008091A7
:10119000D8008F7D8093D80084E089BD86E089BD2A
:1011A00009B400FEFDCF1092670210926302109204
:1011B00065021092640242E360E080E055DF8091B6
:1011C000E1008E7F8093E1008091E2008160809356
:1011D000E2008091E20088608093E2008091E0006C
:1011E0008E7F8093E0000895E3E6F0E080818E7FBB
:1011F000808381E080936602BECF1092E200089562
:101200001092E10008951F920F920FB60F921124D1
:101210002F933F934F935F936F937F938F939F93FE
:10122000AF93BF93EF93FF938091E10082FF0AC0D9
:101230008091E20082FF06C08091E1008B7F809365
:10124000E100E6D18091E10080FF17C08091E200CB
:1012500080FF13C08091E2008E7F8093E200809136
:10126000E20080618093E2008091D80080628093E8
:10127000D80019BC1092670265DB8091E10084FF01
:101280002FC08091E20084FF2BC084E089BD86E0FE
:1012900089BD09B400FEFDCF8091D8008F7D809379
:1012A000D8008091E1008F7E8093E1008091E20080
:1012B0008F7E8093E2008091E20081608093E20063
:1012C00080916302882311F084E007C08091E300DD
:1012D00087FD02C081E001C083E08093670231DBBB
:1012E0008091E10083FF22C08091E20083FF1EC055
:1012F0008091E100877F8093E10082E08093670224
:10130000109263028091E1008E7F8093E1008091D2
:10131000E2008E7F8093E2008091E2008061809302
:10132000E20042E360E080E09FDE72D1FF91EF9146
:10133000BF91AF919F918F917F916F915F914F91ED
:101340003F912F910F900FBE0F901F9018951F93F4
:10135000CF93DF93CDB7DEB7AA970FB6F894DEBF71
:101360000FBECDBFE8E6F2E08091F100819322E06C
:10137000E037F207C9F7EFDA8091E80083FF30C168
:101380008091680290916902953009F483C030F42D
:101390009130A9F168F0933091F122C1983009F4AD
:1013A000EFC0993009F4FBC0963009F019C194C020
:1013B000803821F0823809F013C108C0809164029E
:1013C00090916502992389F082600FC080916C0230
:1013D0008F70853008F004C18093E9008091EB00A4
:1013E00085FB882780F91092E9009091E800977FAB
:1013F0009093E8008093F1001092F100CCC0282F68
:101400002D7F09F0EDC0882319F0823061F0E8C02B
:1014100080916A02813009F0E3C0933009F080E0E6
:10142000809365022EC080916A0281112AC080914A
:101430006C028F702FEF280F243008F0D1C08093FA
:10144000E9002091EB0020FF1CC0933021F4809133
:10145000EB00806214C09091EB0090619093EB00E0
:1014600021E030E0A90102C0440F551F8A95E2F740
:101470004093EA001092EA008091EB00886080932C
:10148000EB001092E9008091E800877F8093E800EC
:1014900020DEA6C08111A4C010916A021F7780913E
:1014A000E3008078812B8093E3008091E800877FC0
:1014B0008093E8000EDE8091E80080FFFCCF8091F1
:1014C000E30080688093E300111102C082E001C054
:1014D00083E08093670284C08058823008F080C027
:1014E00080916A0290916B028C3D53E0950771F5F3
:1014F00083E08A838AE289834FB7F894DE011396EA
:1015000020E03EE051E2E32FF0E050935700E491F9
:1015100020FF03C0E295EF703F5FEF708E2F90E0E9
:10152000EA3010F0C79601C0C0968D939D932F5F4F
:10153000243149F74FBF8091E800877F8093E8000E
:101540006AE270E0CE010196D4DC14C060916C02B6
:1015500070916D02AE014F5F5F4FF6DBBC01892BCE
:1015600009F43EC09091E800977F9093E80089814C
:101570009A811BDD8091E8008B778093E80030C072
:10158000803871F58091E800877F8093E800809132
:1015900063028093F1008091E8008E7777CF81110C
:1015A0001FC080916A0290916B0299270297C4F440
:1015B0008091E800877F8093E80080916A028093A1
:1015C000630287DD80916302811106C08091E30090
:1015D00087FD02C081E001C084E080936702B3D937
:1015E0008091E80083FF0AC08091E800877F8093A4
:1015F000E8008091EB0080628093EB00AA960FB622
:10160000F894DEBF0FBECDBFDF91CF911F9108953B
:101610000895CF9380916702882399F0C091E900E3
:10162000CF709091EC00892F817090FD80E8C82BDD
:101630001092E9008091E80083FD89DECF70C093AD
:10164000E900CF9108950024552704C0080E591FC2
:10165000880F991F009729F076956795B8F3710563
:0C166000B9F7802D952F0895F894FFCF66
:10166C00130A000E050013FA000E050013FA000E03
:10167C00050013FA000E050013FA000E050013FA0C
:10168C0000002800058200130A00110500131E003B
:10169C000D0A001323000D0A001323000D0500137F
:1016AC0005000A0A001308000A05001304000A05C5
:1016BC00001304000A05001304000A0500130400BB
:1016CC000A05001304000A0A001304001332000D6B
:1016DC000A001337000D0A001369000D0A00135F8E
:1016EC00000D0A00134B000D0A00131E000304002A
:1016FC0007040001040006040002040004040000B6
:10170C000400050400010F00130A00021900131451
:10171C0000110500131E0013FA00150500139600A6
:10172C001505001396000D050013FA00033C00018B
:10173C002800031E0000B900030F00005F0004071F
:10174C00001314000D0A001323000D0A00132300CC
:10175C000D05001305000A0A001308000A05001302
:10176C0004000A05001304000A05001304000A050E
:10177C00001304000A05001304000A0A00130400F5
:10178C001332000D0A001337000D0A001369000D07
:10179C000A00135F000D0A00134B000D0A00131E04
:0217AC0000003B
:00000001FF
