:10000000C2C00000DCC00000DAC00000D8C00000A0
:10001000D6C00000D4C00000D2C00000D0C0000094
:10002000CEC00000CCC000000C947D09C8C0000008
:10003000C6C00000C4C00000C2C00000C0C00000B4
:10004000BEC00000BCC00000BAC00000B8C00000C4
:10005000B6C00000B4C00000B2C00000B0C00000D4
:10006000AEC00000ACC00000AAC00000A8C00000E4
:10007000A6C00000A4C00000A2C00000A0C00000F4
:100080009EC000009CC000009AC0000098C0000004
:1000900096C0000094C0000092C0000090C0000014
:1000A0008EC000008CC000008AC0000024035000F5
:1000B0004F004B004B0045004E00200043004F0016
:1000C0004E00540052004F004C004C0045005200BE
:1000D00000001C0348004F0052004900200043006C
:1000E0004F002E002C004C00540044002E00000055
:1000F000040309040902290001010080FA0904002F
:10010000000203000000092111010001225600072E
:1001100005020340000507058103400005120100A8
:1001200002000000400D0F920000010102000105D5
:10013000010905A10115002501350045017501954D
:1001400010050919012910810205012507463B0107
:100150007504950165140939814265009501810195
:1001600026FF0046FF0009300931093209357508BC
:10017000950481020600FF0920950181020A2126CB
:1001800095089102C00011241FBECFEFDAE0DEBF58
:10019000CDBF14E0A0E0B1E0E2E8F7E102C00590D5
:1001A0000D92A435B107D9F724E0A4E5B4E001C06D
:1001B0001D92A238B207E1F71FD60C94BF0B20CFD7
:1001C000FB014130510509F0BEC0DC01AA0FBB1F85
:1001D0008A0F9B1FDC01AD5BBC4F8C918A3009F408
:1001E0007EC070F5843009F468C070F4813009F481
:1001F0005BC008F455C0823009F454C0833009F064
:100200009AC08FEF83830895873009F45DC050F45E
:10021000853009F455C0863009F08DC013828FEF08
:1002200084830895883009F453C0893009F083C06D
:100230008FEF838380819181826091838083089591
:100240008F3009F466C088F48C3009F45CC008F47F
:1002500054C08D3009F44BC08E3009F06CC08081E1
:1002600091818260918380830895823109F45DC019
:1002700060F4803109F453C0813109F05CC08081A1
:1002800091819260918380830895843181F08531DA
:1002900009F051C0808191818063918380830895AA
:1002A00014820895138208958FEF848308958081C6
:1002B00091819061918380830895138214820895BF
:1002C0008FEF8383148208958FEF8383848308954F
:1002D00013828081918182609183808308958FEF62
:1002E000848380819181826091838083089580815D
:1002F0009181846091838083089580819181886059
:10030000918380830895808191818160918380832E
:100310000895808191818061918380830895808197
:100320009181806291838083089580819181916021
:1003300091838083089580E8838384838583868383
:1003400088E0828308954230510509F0BEC0DC0187
:10035000AA0FBB1F8A0F9B1FDC01A75DBD4F8C91AD
:100360008A3009F47EC070F5843009F468C070F4F6
:10037000813009F45BC008F455C0823009F454C0E0
:10038000833009F09AC08FEF83830895873009F492
:100390005DC050F4853009F455C0863009F08DC039
:1003A00013828FEF84830895883009F453C0893015
:1003B00009F083C08FEF8383808191818260918374
:1003C000808308958F3009F466C088F48C3009F476
:1003D0005CC008F454C08D3009F44BC08E3009F075
:1003E0006CC0808191818260918380830895823185
:1003F00009F45DC060F4803109F453C0813109F023
:100400005CC0808191819260918380830895843162
:1004100081F0853109F051C08081918180639183A1
:100420008083089514820895138208958FEF848342
:1004300008958081918190619183808308951382D2
:10044000148208958FEF8383148208958FEF83833E
:100450008483089513828081918182609183808357
:1004600008958FEF8483808191818260918380835E
:100470000895808191818460918380830895808133
:1004800091818860918380830895808191818160CA
:10049000918380830895808191818061918380839D
:1004A0000895808191818062918380830895808105
:1004B0009181916091838083089580E88383848310
:1004C0008583868388E0828308954330510509F04F
:1004D000BEC0DC01AA0FBB1F8A0F9B1FDC01AD5FF2
:1004E000BE4F8C918A3009F47EC070F5843009F4D7
:1004F00068C070F4813009F45BC008F455C08230E4
:1005000009F454C0833009F09AC08FEF83830895B3
:10051000873009F45DC050F4853009F455C0863049
:1005200009F08DC013828FEF84830895883009F419
:1005300053C0893009F083C08FEF8383808191811C
:1005400082609183808308958F3009F466C088F4B7
:100550008C3009F45CC008F454C08D3009F44BC0F1
:100560008E3009F06CC0808191818260918380839C
:100570000895823109F45DC060F4803109F453C0FC
:10058000813109F05CC08081918192609183808388
:100590000895843181F0853109F051C080819181C5
:1005A000806391838083089514820895138208954F
:1005B0008FEF8483089580819181906191838083FE
:1005C00008951382148208958FEF8383148208950F
:1005D0008FEF838384830895138280819181826069
:1005E0009183808308958FEF8483808191818260DD
:1005F0009183808308958081918184609183808339
:10060000089580819181886091838083089580819D
:10061000918181609183808308958081918180613F
:10062000918380830895808191818062918380830A
:10063000089580819181916091838083089580E8FD
:10064000838384838583868388E08283089544300E
:10065000510509F0BEC0DC01AA0FBB1F8A0F9B1F0A
:10066000DC01A050BF4F8C918A3009F47EC070F538
:10067000843009F468C070F4813009F45BC008F478
:1006800055C0823009F454C0833009F09AC08FEF0E
:1006900083830895873009F45DC050F4853009F4F0
:1006A00055C0863009F08DC013828FEF8483089582
:1006B000883009F453C0893009F083C08FEF8383F9
:1006C0008081918182609183808308958F3009F4C5
:1006D00066C088F48C3009F45CC008F454C08D30D6
:1006E00009F44BC08E3009F06CC08081918182602A
:1006F000918380830895823109F45DC060F4803174
:1007000009F453C0813109F05CC08081918192600D
:10071000918380830895843181F0853109F051C03F
:1007200080819181806391838083089514820895EC
:10073000138208958FEF8483089580819181906161
:100740009183808308951382148208958FEF8383A9
:10075000148208958FEF83838483089513828081A8
:10076000918182609183808308958FEF848380815B
:1007700091818260918380830895808191818460DA
:1007800091838083089580819181886091838083A3
:100790000895808191818160918380830895808113
:1007A00091818061918380830895808191818062AD
:1007B000918380830895808191819160918380836A
:1007C000089580E8838384838583868388E0828399
:1007D00008954530510509F0BDC0DC01AA0FBB1FCB
:1007E0008A0F9B1FDC01A050BF4F8C918A3009F407
:1007F0007EC070F5843009F468C070F4813009F46B
:100800005BC008F455C0823009F454C0833009F04D
:100810009AC08FEF83830895873009F45DC050F448
:10082000853009F455C0863009F08DC013828FEFF2
:1008300084830895883009F453C0893009F083C057
:100840008FEF83838081918182609183808308957B
:100850008F3009F466C088F48C3009F45CC008F469
:1008600054C08D3009F44BC08E3009F06CC08081CB
:1008700091818260918380830895823109F45DC003
:1008800060F4803109F453C0813109F05CC080818B
:1008900091819260918380830895843181F08531C4
:1008A00009F051C080819181806391838083089594
:1008B00014820895138208958FEF848308958081B0
:1008C00091819061918380830895138214820895A9
:1008D0008FEF8383148208958FEF83838483089539
:1008E00013828081918182609183808308958FEF4C
:1008F0008483808191818260918380830895808147
:100900009181846091838083089580819181886042
:100910009183808308958081918181609183808318
:100920000895808191818061918380830895808181
:10093000918180629183808308958081918191600B
:1009400091838083089580E883838483858386836D
:1009500088E08283089584B7877F84BF0FB6F894B8
:10096000A89580916000886180936000109260007B
:100970000FBE90E080E80FB6F894809361009093EA
:1009800061000FBE9DC40895089542E360EC82E0CB
:10099000D0D342E361EC81E0CCC30895CF93DF93E1
:1009A000DC0198E0FD01892F11928A95E9F780E832
:1009B00013968C93139714968C93149715968C9387
:1009C000159716968C93169712969C931297809172
:1009D0006A0490916B04181619066CF488E0EDE631
:1009E000F4E001900D928A95E1F780916A0490916C
:1009F0006B040197B2C1ED0180916C04843009F45D
:100A00007BC040F48130C1F0E8F08230E9F08330FF
:100A1000E9F099C1873009F43FC138F4853009F411
:100A2000C4C0863009F407C18EC1883009F488C17A
:100A3000893009F496C187C1109263041092620450
:100A40001982188282E07DC183E07BC141E050E0E1
:100A5000BD018091620490916304B2DB2091600437
:100A6000309161042F5F3F4F309361042093600405
:100A70008091620490916304FC01EE0FFF1FE80F68
:100A8000F91FED5BFC4F418152814217530748F437
:100A90000196909363048093620410926104109213
:100AA000600480916204909163048B3591050CF48D
:100AB0004AC187E090E090936304809362041092AF
:100AC00061041092600480915C0490915D04873110
:100AD000910534F4019690935D0480935C0459C0B1
:100AE00010925D0410925C041092630410926204F0
:100AF00084E080936C041CC142E050E0BD01809111
:100B00006204909163045CDB209160043091610485
:100B10002F5F3F4F30936104209360048091620403
:100B200090916304FC01EE0FFF1FE80FF91FE75DD2
:100B3000FD4F418152814217530748F4019690932B
:100B400063048093620410926104109260048091A7
:100B50006204909163048E3591050CF4F4C01092F8
:100B600063041092620410926104109260048091F8
:100B70005A0490915B048A3091056CF427E030E0D0
:100B80003093630420936204019690935B048093F6
:100B90005A0483E0AECF10925D0410925C04109270
:100BA0005B0410925A0485E0A4CF43E050E0BD01FD
:100BB000809162049091630403DB20916004309182
:100BC00061042F5F3F4F3093610420936004809154
:100BD000620490916304FC01EE0FFF1FE80FF91F00
:100BE000ED5FFE4F418152814217530748F4019651
:100BF00090936304809362041092610410926004E5
:100C00008091620490916304823691050CF49BC03C
:100C1000109261041092600487E090E09093630466
:100C20008093620410925D0410925C0410925B0445
:100C300010925A04AECF44E050E0BD0180916204AE
:100C400090916304BDDA80916004909161040196F3
:100C500090936104809360040B9768F08091620424
:100C600090916304019690936304809362041092C0
:100C700061041092600480916204909163041816DC
:100C800019060CF060C01092630410926204109276
:100C90006104109260042CCF45E050E0BD018091CA
:100CA0006204909163048CDA8091600490916104F5
:100CB000019690936104809360040B9768F0809193
:100CC000620490916304019690936304809362049C
:100CD0001092610410926004809162049091630408
:100CE00097FD31C087E090E09093630480936204A5
:100CF000109261041092600482E080936C04109260
:100D00005D0410925C0410925B0410925A041092DD
:100D1000590410925804109257041092560480916E
:100D20005404909155040196909355048093540473
:100D300080E88B838C838D838E8388E08A8303C0D5
:100D400089E080936C0488E0FE01ADE6B4E0019098
:100D50000D928A95E1F782E090E090936B04809386
:100D60006A04DF91CF910895CF93DF93CDB7DEB7BB
:100D700028970FB6F894DEBF0FBECDBF80917904DF
:100D8000843089F582E08093E9008091E80082FF59
:100D900012C08091E80085FF09C040E050E067E0A4
:100DA00070E0CE010196B8D08111F7CF8091E800B4
:100DB0008B778093E80081E08093E9008091E800E0
:100DC00080FF11C0CE010196E9DD40E050E068E00F
:100DD00070E0CE01019656D08111F7CF8091E800E6
:100DE0008E778093E80028960FB6F894DEBF0FBE8A
:100DF000CDBFDF91CF910895AEDD7894B5DFA5D456
:100E0000FDCF292F332723303105E1F058F421306D
:100E1000310599F02230310569F589E290E024EF3F
:100E200030E02CC02132310501F12232310511F5BB
:100E300086E590E02FE231E021C082E190E02DE1F3
:100E400031E01CC099278130910549F028F00297C4
:100E500089F4ECEAF0E005C0E0EFF0E002C0E2ED7A
:100E6000F0E0849190E09F0109C089E090E026E0E5
:100E700031E004C080E090E020E030E0FA0131830E
:100E800020830895CF92DF92EF92FF920F931F93EA
:100E9000CF93DF93EC018B017A019FD1811133C095
:100EA000E114F10439F0F70180819181081B190BDD
:100EB000C80FD91FC12CD12C0115110519F1809132
:100EC000E80085FD16C08091E8008E778093E800E9
:100ED0003CD4E114F10449F0F70180819181C80EFE
:100EE000D91ED182C08285E00EC077D1882321F33C
:100EF0000AC089918093F10001501109FFEFCF1AC8
:100F0000DF0ADACF80E0DF91CF911F910F91FF9040
:100F1000EF90DF90CF900895CF92DF92EF92FF9203
:100F20000F931F93CF93DF93EC018B017A0155D17F
:100F3000811133C0E114F10439F0F701808191810E
:100F4000081B190BC80FD91FC12CD12C0115110575
:100F500019F18091E80085FD16C08091E8008B773B
:100F60008093E800F2D3E114F10449F0F7018081A5
:100F70009181C80ED91ED182C08285E00EC02DD1CC
:100F8000882321F30AC08091F1008993015011094F
:100F9000FFEFCF1ADF0ADACF80E0DF91CF911F9108
:100FA0000F91FF90EF90DF90CF90089520918004F3
:100FB000309181042617370748F06115710539F41F
:100FC0002091E8002E772093E80001C0B901FC01D0
:100FD00020E06115710591F180917904882309F46D
:100FE00040C0853009F43FC08091E80083FD3DC0DA
:100FF0008091E80082FD2FC08091E80080FFE9CF5A
:101000002091F3008091F20090E0922B6115710520
:1010100051F08034910538F421912093F100615012
:1010200071090196F3CF21E08034910509F020E0A9
:101030008091E8008E778093E800CBCF2111CCCF50
:101040000AC080917904882361F0853061F0809135
:10105000E80083FD0AC08091E80082FFF2CF80E0C3
:10106000089582E0089583E0089581E00895209135
:101070008004309181042617370748F06115710507
:1010800039F42091E8002E772093E80001C0B901DF
:10109000FC0120E06115710599F1809179048823A4
:1010A00009F441C0853009F440C08091E80083FD17
:1010B0003EC08091E80082FD30C08091E80080FF52
:1010C000E9CF2091F3008091F20090E0922B61151E
:1010D000710559F08034910540F424912093F1007A
:1010E0003196615071090196F2CF21E0803491056B
:1010F00009F020E08091E8008E778093E800CACF65
:101100002111CBCF0AC080917904882361F085300A
:1011100061F08091E80083FD0AC08091E80082FFC1
:10112000F2CF80E0089582E0089583E0089581E0A1
:101130000895982F973068F59093E900981739F043
:101140007091EC002091ED005091F00003C0242F2D
:10115000762F50E021FD02C09F5FECCF3091EB0075
:101160003E7F3093EB003091ED003D7F3093ED00FA
:101170003091EB0031603093EB007093EC002093E2
:10118000ED005093F0002091EE0027FDE5CF80E0C8
:1011900008958F708093E90081E0089580917A042A
:1011A00087FF11C08091E80082FD05C0809179041D
:1011B0008111F8CF11C08091E8008B770BC080912E
:1011C0007904882349F08091E80080FFF8CF80916E
:1011D000E8008E778093E80008952091E400309134
:1011E000E50095E64091EC00842F817040FF23C01C
:1011F0008091E80080FD1DC080917904882399F0DA
:10120000853099F08091EB0085FD11C04091E4009C
:101210005091E5002417350729F3915011F09A01F8
:10122000E1CF84E0089582E0089583E0089581E0AD
:10123000089580E008954091E80042FFDDCF0895D1
:101240000F931F93CF93DF934BD052D0C8EDD0E0D4
:1012500088818F77888388818068888388818F7D63
:10126000888319BC10927904109275041092770447
:101270001092760400EE10E0F80180818B7F80836D
:1012800088818160888342E360E080E052DFE1EEA4
:10129000F0E080818E7F8083E2EEF0E080818160EB
:1012A0008083808188608083F80180818E7F808345
:1012B000888180618883DF91CF911F910F9108957C
:1012C000E8EDF0E080818F7E8083E7EDF0E08081C3
:1012D0008160808384E082BF81E080937804B0CF16
:1012E000E8EDF0E080818E7F80831092E200089527
:1012F0001092DA001092E10008951F920F920FB63B
:101300000F9211242F933F934F935F936F937F938B
:101310008F939F93AF93BF93EF93FF938091E100DF
:1013200082FF0AC08091E20082FF06C08091E10046
:101330008B7F8093E10008D28091DA0080FF1DC08E
:101340008091D80080FF19C08091DA008E7F809351
:10135000DA008091D90080FF0CC080E189BD82E174
:1013600089BD09B400FEFDCF81E0809379040BDBD9
:1013700004C019BC1092790407DB8091E10080FF62
:1013800018C08091E20080FF14C08091E2008E7F3F
:101390008093E2008091E20080618093E20080917E
:1013A000D80080628093D80019BC85E080937904CE
:1013B000CBD18091E10084FF2FC08091E20084FFB7
:1013C0002BC080E189BD82E189BD09B400FEFDCF5B
:1013D0008091D8008F7D8093D8008091E1008F7E2E
:1013E0008093E1008091E2008F7E8093E200809103
:1013F000E20081608093E20080917504882311F0FF
:1014000084E007C08091E30087FD02C081E001C055
:1014100083E08093790498D18091E10083FF22C01A
:101420008091E20083FF1EC08091E100877F80935E
:10143000E10082E080937904109275048091E100CC
:101440008E7F8093E1008091E2008E7F8093E200A6
:101450008091E20080618093E20042E360E080E0FE
:1014600068DE72D1FF91EF91BF91AF919F918F9103
:101470007F916F915F914F913F912F910F900FBE90
:101480000F901F9018951F93CF93DF93CDB7DEB7C2
:10149000AA970FB6F894DEBF0FBECDBFEAE7F4E01F
:1014A0008091F100819324E0E238F207C9F775DA00
:1014B0008091E80083FF30C180917A0490917B0491
:1014C000953009F483C030F49130A9F168F093307D
:1014D00091F122C1983009F4EFC0993009F4FBC0B2
:1014E000963009F019C194C0803821F0823809F093
:1014F00013C108C08091760490917704992389F0F4
:1015000082600FC080917E048F70873008F004C124
:101510008093E9008091EB0085FB882780F9109289
:10152000E9009091E800977F9093E8008093F100A4
:101530001092F100CCC0282F2D7F09F0EDC0882338
:1015400019F0823061F0E8C080917C04813009F0AC
:10155000E3C0933009F080E0809377042EC080913F
:101560007C0481112AC080917E048F702FEF280F98
:10157000263008F0D1C08093E9002091EB0020FFD5
:101580001CC0933021F48091EB00806214C09091D4
:10159000EB0090619093EB0021E030E0A90102C0E4
:1015A000440F551F8A95E2F74093EA001092EA0033
:1015B0008091EB0088608093EB001092E9008091AD
:1015C000E800877F8093E800E9DDA6C08111A4C010
:1015D00010917C041F778091E3008078812B8093A9
:1015E000E3008091E800877F8093E800D7DD809159
:1015F000E80080FFFCCF8091E30080688093E300E7
:10160000111102C082E001C083E08093790484C09C
:101610008058823008F080C080917C0490917D04D5
:101620008C3D53E0950771F583E08A838AE28983D4
:101630004FB7F894DE01139620E03EE051E2E32F2D
:10164000F0E050935700E49120FF03C0E295EF7063
:101650003F5FEF708E2F90E0EA3010F0C79601C028
:10166000C0968D939D932F5F243149F74FBF809192
:10167000E800877F8093E8006AE270E0CE0101967F
:1016800095DC14C060917E0470917F04AE014F5FC1
:101690005F4FB7DBBC01892B09F43EC09091E80095
:1016A000977F9093E80089819A81E1DC8091E8003E
:1016B0008B778093E80030C0803871F58091E80026
:1016C000877F8093E800809175048093F10080917A
:1016D000E8008E7777CF81111FC080917C049091B4
:1016E0007D0499270297C4F48091E800877F809356
:1016F000E80080917C048093750450DD809175042E
:10170000811106C08091E30087FD02C081E001C025
:1017100084E08093790439D98091E80083FF0AC07E
:101720008091E800877F8093E8008091EB008062E1
:101730008093EB00AA960FB6F894DEBF0FBECDBF24
:10174000DF91CF911F9108950895CF9380917904EF
:10175000882399F0C091E900CF709091EC00892F17
:10176000817090FD80E8C82B1092E9008091E8001C
:1017700083FD89DECF70C093E900CF910895F8947E
:02178000FFCF99
:10178200130A0014050013140001050013050003D9
:1017920005001305000305001305000305001305EA
:1017A200000305001305000D05001314000150008D
:1017B2001305000D050013050001050013050001C6
:1017C20005001305000105001305000105001305BE
:1017D200000D0500130F00010500130500010500AF
:1017E2001305000D0500130F00000500130A000386
:1017F200050013050001050013050001050013058E
:101802000001050013050001050013050001050094
:101812001305000105001305000105001305000171
:10182200050013050001050013050001050013055D
:101832000001050013050001050013050001050064
:101842001305000105001305000105001305000141
:10185200050013050001050013050001050013052D
:101862000001050013050001050013050001050034
:101872001305000105001305000105001305000111
:101882000500130500030500130500000500130AF7
:1018920000031E001305000D0500130A00140500C5
:1018A200131E000D0500131E001405001314000181
:1018B20005001305000305001305000305001305C9
:1018C200000305001305000305001305000D0500C4
:1018D2001314000150001305000D0500130500014B
:1018E200050013050001050013050001050013059D
:1018F200000105001305000D0500130F000105008E
:101902001305000105001305000D0500130F00006B
:101912000500130A00030500130500010500130565
:101922000001050013050001050013050001050073
:101932001305000105001305000105001305000150
:10194200050013050001050013050001050013053C
:101952000001050013050001050013050001050043
:101962001305000105001305000105001305000120
:10197200050013050001050013050001050013050C
:101982000001050013050001050013050001050013
:1019920013050001050013050001050013050001F0
:1019A2000500130500010500130500031E001305C1
:1019B200000D0500130A00140500131E000D05009A
:1019C200131E0013FA0015050013960015050013E7
:1019D20096000D050013FA0014050013140001050A
:1019E200001305000305001305000305001305009D
:1019F2000305001305000305001305000D05001380
:101A020014000150001305000D0500130500010527
:101A12000013050001050013050001050013050070
:101A22000105001305000D0500130F000105001349
:101A320005000105001305000D0500130F00030545
:101A420000130A00000500130A00031E001305001C
:101A52000D0500130A00140500131E000D78001373
:101A620028000E0500130A000E0500130A000E05D9
:101A720000130A000E0500131E000E0500130A00D3
:101A82000D14001314000E0500131E000E050013A2
:101A92000A000E0500131E000E0500130A000E05B3
:101AA20000131E000E0500131E000E0500131E007B
:101AB2000E0500131E000E0500131E000E05001376
:101AC2000A000E0500131E000E0500130A000D7811
:041AD20000132800D5
:00000001FF
