:10000000B8C00000D4C00000D2C00000D0C00000C2
:10001000CEC00000CCC00000CAC00000C8C00000B4
:10002000C6C00000C4C000000C948F0AC0C000000D
:10003000BEC00000BCC00000BAC00000B8C00000D4
:10004000B6C00000B4C00000B2C00000B0C00000E4
:10005000AEC00000ACC00000AAC00000A8C00000F4
:10006000A6C00000A4C00000A2C00000A0C0000004
:100070009EC000009CC000009AC0000098C0000014
:1000800096C0000094C0000092C0000090C0000024
:100090008EC000008CC0000005010905A1011500FB
:1000A0002501350045017501951005091901291033
:1000B000810205012507463B017504950165140978
:1000C00039814265009501810126FF0046FF000944
:1000D000300931093209357508950481020600FF9F
:1000E0000920950181020A212695089102C012017A
:1000F0000002000000400D0F92000001010200010B
:100100000902290001010080FA090400000203002D
:1001100000000921110100012256000705020340D9
:10012000000507058103400005040309041C03487A
:10013000004F0052004900200043004F002E002CC9
:10014000004C00540044002E000000240350004FD7
:10015000004B004B0045004E00200043004F004E76
:1001600000540052004F004C004C0045005200006B
:10017000000011241FBECFEFD0E2DEBFCDBF13E0E1
:10018000A0E0B1E0E2ECF9E100E00BBF02C00790B3
:100190000D92A03AB107D9F713E0A0EAB3E001C08D
:1001A0001D92AE3CB107E1F719D70C94DF0C28CFB4
:1001B000DB014130510509F0E8C0FC01EE0FFF1FE3
:1001C000E80FF91FE050FF4FE081E93009F477C0F4
:1001D000EA30E8F4E43009F44DC0E53058F4E13099
:1001E00009F440C0E130C0F1E230C9F1E33009F078
:1001F000BBC03CC0E63009F44AC0E63008F440C059
:10020000E73009F44BC0E83009F0AEC04EC0EE3024
:1002100009F472C0EF3068F4EB3009F474C0EB30CD
:1002200008F458C0EC3009F475C0ED3009F09CC0FA
:100230005CC0E13109F483C0E23138F4EF3009F4F5
:1002400070C0E03109F090C073C0E23109F47EC0A3
:10025000E43109F089C081C014961C920895139668
:100260001C9208958FEF14968C9308958FEF139638
:100270008C93089513961C92139714961C920895CC
:100280008FEF13968C93139714961C9208951396E0
:100290001C9213978FEF14968C9308958FEF1396FB
:1002A0008C93139714968C93089513961C9213971E
:1002B0008D919C91119782608D939C9308958FEFFF
:1002C00013968C9313978D919C91119782608D93C7
:1002D0009C9308958FEF14968C9314978D919C9115
:1002E000119782608D939C9308958D919C911197A5
:1002F00084608D939C9308958D919C911197826059
:100300008D939C9308958D919C91119788608D9306
:100310009C9308958D919C91119781608D939C93EE
:1003200008958D919C91119780618D939C93089570
:100330008D919C91119780628D939C9308958D91DE
:100340009C91119792608D939C9308958D919C91AF
:10035000119791608D939C9308958D919C91119725
:1003600080638D939C93089580E813968C931397E4
:1003700014968C93149715968C93159716968C93C8
:10038000169788E012968C9308954230510509F033
:10039000E8C0FC01EE0FFF1FE80FF91FE35DFE4F01
:1003A000E081E93009F477C0EA30E8F4E43009F498
:1003B0004DC0E53058F4E13009F440C0E130C0F1FF
:1003C000E230C9F1E33009F0BBC03CC0E63009F4CB
:1003D0004AC0E63008F440C0E73009F44BC0E830CA
:1003E00009F0AEC04EC0EE3009F472C0EF3068F4D0
:1003F000EB3009F474C0EB3008F458C0EC3009F469
:1004000075C0ED3009F09CC05CC0E13109F483C0D7
:10041000E23138F4EF3009F470C0E03109F090C0F7
:1004200073C0E23109F47EC0E43109F089C081C0B3
:1004300014961C92089513961C9208958FEF1496AB
:100440008C9308958FEF13968C93089513961C92B6
:10045000139714961C9208958FEF13968C9313970D
:1004600014961C92089513961C9213978FEF14966E
:100470008C9308958FEF13968C93139714968C9307
:10048000089513961C9213978D919C9111978260F9
:100490008D939C9308958FEF13968C9313978D9162
:1004A0009C91119782608D939C9308958FEF149681
:1004B0008C9314978D919C91119782608D939C934E
:1004C00008958D919C91119784608D939C930895CC
:1004D0008D919C91119782608D939C9308958D913D
:1004E0009C91119788608D939C9308958D919C9118
:1004F000119781608D939C9308958D919C91119794
:1005000080618D939C9308958D919C911197806249
:100510008D939C9308958D919C91119792608D93EA
:100520009C9308958D919C91119791608D939C93CC
:1005300008958D919C91119780638D939C9308955C
:1005400080E813968C93139714968C9314971596B2
:100550008C93159716968C93169788E012968C9329
:1005600008954330510509F0E8C0FC01EE0FFF1F6C
:10057000E80FF91FE75AFD4FE081E93009F477C031
:10058000EA30E8F4E43009F44DC0E53058F4E130E5
:1005900009F440C0E130C0F1E230C9F1E33009F0C4
:1005A000BBC03CC0E63009F44AC0E63008F440C0A5
:1005B000E73009F44BC0E83009F0AEC04EC0EE3071
:1005C00009F472C0EF3068F4EB3009F474C0EB301A
:1005D00008F458C0EC3009F475C0ED3009F09CC047
:1005E0005CC0E13109F483C0E23138F4EF3009F442
:1005F00070C0E03109F090C073C0E23109F47EC0F0
:10060000E43109F089C081C014961C9208951396B4
:100610001C9208958FEF14968C9308958FEF139684
:100620008C93089513961C92139714961C92089518
:100630008FEF13968C93139714961C92089513962C
:100640001C9213978FEF14968C9308958FEF139647
:100650008C93139714968C93089513961C9213976A
:100660008D919C91119782608D939C9308958FEF4B
:1006700013968C9313978D919C91119782608D9313
:100680009C9308958FEF14968C9314978D919C9161
:10069000119782608D939C9308958D919C911197F1
:1006A00084608D939C9308958D919C9111978260A5
:1006B0008D939C9308958D919C91119788608D9353
:1006C0009C9308958D919C91119781608D939C933B
:1006D00008958D919C91119780618D939C930895BD
:1006E0008D919C91119780628D939C9308958D912B
:1006F0009C91119792608D939C9308958D919C91FC
:10070000119791608D939C9308958D919C91119771
:1007100080638D939C93089580E813968C93139730
:1007200014968C93149715968C93159716968C9314
:10073000169788E012968C9308954430510509F07D
:10074000E8C0FC01EE0FFF1FE80FF91FE956FC4F50
:10075000E081E93009F477C0EA30E8F4E43009F4E4
:100760004DC0E53058F4E13009F440C0E130C0F14B
:10077000E230C9F1E33009F0BBC03CC0E63009F417
:100780004AC0E63008F440C0E73009F44BC0E83016
:1007900009F0AEC04EC0EE3009F472C0EF3068F41C
:1007A000EB3009F474C0EB3008F458C0EC3009F4B5
:1007B00075C0ED3009F09CC05CC0E13109F483C024
:1007C000E23138F4EF3009F470C0E03109F090C044
:1007D00073C0E23109F47EC0E43109F089C081C000
:1007E00014961C92089513961C9208958FEF1496F8
:1007F0008C9308958FEF13968C93089513961C9203
:10080000139714961C9208958FEF13968C93139759
:1008100014961C92089513961C9213978FEF1496BA
:100820008C9308958FEF13968C93139714968C9353
:10083000089513961C9213978D919C911197826045
:100840008D939C9308958FEF13968C9313978D91AE
:100850009C91119782608D939C9308958FEF1496CD
:100860008C9314978D919C91119782608D939C939A
:1008700008958D919C91119784608D939C93089518
:100880008D919C91119782608D939C9308958D9189
:100890009C91119788608D939C9308958D919C9164
:1008A000119781608D939C9308958D919C911197E0
:1008B00080618D939C9308958D919C911197806296
:1008C0008D939C9308958D919C91119792608D9337
:1008D0009C9308958D919C91119791608D939C9319
:1008E00008958D919C91119780638D939C930895A9
:1008F00080E813968C93139714968C9314971596FF
:100900008C93159716968C93169788E012968C9375
:1009100008954530510509F0E7C0FC01EE0FFF1FB7
:10092000E80FF91FE356FC4FE081E93009F477C086
:10093000EA30E8F4E43009F44DC0E53058F4E13031
:1009400009F440C0E130C0F1E230C9F1E33009F010
:10095000BBC03CC0E63009F44AC0E63008F440C0F1
:10096000E73009F44BC0E83009F0AEC04EC0EE30BD
:1009700009F472C0EF3068F4EB3009F474C0EB3066
:1009800008F458C0EC3009F475C0ED3009F09CC093
:100990005CC0E13109F483C0E23138F4EF3009F48E
:1009A00070C0E03109F090C073C0E23109F47EC03C
:1009B000E43109F089C081C014961C920895139601
:1009C0001C9208958FEF14968C9308958FEF1396D1
:1009D0008C93089513961C92139714961C92089565
:1009E0008FEF13968C93139714961C920895139679
:1009F0001C9213978FEF14968C9308958FEF139694
:100A00008C93139714968C93089513961C921397B6
:100A10008D919C91119782608D939C9308958FEF97
:100A200013968C9313978D919C91119782608D935F
:100A30009C9308958FEF14968C9314978D919C91AD
:100A4000119782608D939C9308958D919C9111973D
:100A500084608D939C9308958D919C9111978260F1
:100A60008D939C9308958D919C91119788608D939F
:100A70009C9308958D919C91119781608D939C9387
:100A800008958D919C91119780618D939C93089509
:100A90008D919C91119780628D939C9308958D9177
:100AA0009C91119792608D939C9308958D919C9148
:100AB000119791608D939C9308958D919C911197BE
:100AC00080638D939C93089580E813968C9313977D
:100AD00014968C93149715968C93159716968C9361
:100AE000169788E012968C930895089508950895B6
:100AF000CF93DF93EC0138E0FC01832F11928A95AC
:100B0000E9F720E82B832C832D832E833A83809171
:100B1000A1039091A2031816190674F4DE01E9EB03
:100B2000F3E088E001900D928150E1F78091A103FC
:100B30009091A2030197D9C18091A003843009F458
:100B400082C0853050F48130D9F0813020F182307C
:100B500021F1833009F0BFC122C0873009F459C1A7
:100B6000883038F4853009F4BCC0863009F0B3C150
:100B700009C1883009F4ACC1893009F0ACC1B9C1F0
:100B80001092AA031092A903198218822B832C8336
:100B90002D832E833A8382E09CC183E09AC18091A9
:100BA000A9039091AA03BE0141E050E001DB8091CE
:100BB000AB039091AC0301969093AC038093AB038D
:100BC0004091A9035091AA03FA01EE0FFF1FE40F11
:100BD000F51FE050FF4F218132812817390750F46B
:100BE0004F5F5F4F5093AA034093A9031092AC0349
:100BF0001092AB038091A9039091AA030F970CF474
:100C00006AC11092AA031092A9031092AC03109229
:100C1000AB038091AF039091B00301969093B00322
:100C20008093AF031092B2031092B1031092B403F9
:100C30001092B3031092B6031092B5031092B8034A
:100C40001092B70399C08091A9039091AA03BE01A5
:100C500042E050E0ADDA8091AB039091AC03019695
:100C60009093AC038093AB034091A9035091AA03E6
:100C7000FA01EE0FFF1FE40FF51FE35DFE4F218128
:100C800032812817390750F44F5F5F4F5093AA0302
:100C90004093A9031092AC031092AB038091A90377
:100CA0009091AA03843691050CF415C11092AA0301
:100CB0001092A9031092AC031092AB038091B10380
:100CC0009091B2038330910554F41092B0031092C6
:100CD000AF0301969093B2038093B1034DC085E0BA
:100CE0004EC08091A9039091AA03BE0143E050E059
:100CF0005FDA8091AB039091AC0301969093AC03C3
:100D00008093AB034091A9035091AA03FA01EE0F1F
:100D1000FF1FE40FF51FE75AFD4F2181328128178D
:100D2000390750F44F5F5F4F5093AA034093A903D4
:100D30001092AC031092AB038091A9039091AA0387
:100D40008A3691050CF4C7C01092AA031092A90329
:100D50001092AC031092AB038091B3039091B40353
:100D6000853091055CF401969093B4038093B303AE
:100D70001092B2031092B10384E001C086E0809328
:100D8000A0039EC08091A9039091AA03BE0144E0F4
:100D900050E00EDA8091AB039091AC0301969093F2
:100DA000AC038093AB034091A9035091AA03FA01CD
:100DB000EE0FFF1FE40FF51FE956FC4F2181328132
:100DC0002817390750F44F5F5F4F5093AA034093A1
:100DD000A9031092AC031092AB038091A9039091E8
:100DE000AA0302970CF477C01092AA031092A903E9
:100DF0001092AC031092AB0386E08093A003809125
:100E0000B5039091B60301969093B6038093B50312
:100E100057C08091A9039091AA03BE0145E050E01C
:100E2000C7D98091AB039091AC0301969093AC032A
:100E30008093AB034091A9035091AA03FA01EE0FEE
:100E4000FF1FE40FF51FE356FC4F21813281281765
:100E5000390750F44F5F5F4F5093AA034093A903A3
:100E60001092AC031092AB038091A9039091AA0356
:100E700097FD31C087E090E09093AA038093A90387
:100E80001092AC031092AB0382E08093A003109207
:100E9000B0031092AF031092B2031092B1031092FC
:100EA000B4031092B3031092B6031092B50380916D
:100EB000B7039091B80301969093B8038093B7035A
:100EC00080E88B838C838D838E8388E08A8303C044
:100ED00089E08093A003A9EBB3E0FE0188E00190D4
:100EE0000D928150E1F782E090E09093A20380930D
:100EF000A103DF91CF910895FF920F931F93DF938A
:100F0000CF93CDB7DEB728970FB6F894DEBF0FBEEC
:100F1000CDBF8091C5038430B9F582E08093E900AC
:100F20008091E80082FF14C08091E80085FF0BC02B
:100F30008E010F5F1F4FC80167E070E040E050E096
:100F40005BD18823C1F78091E8008B778093E8001C
:100F500081E08093E9008091E80080FF15C08E0158
:100F60000F5F1F4FC801C4DDF02E012F8F2D902F72
:100F700068E070E040E050E091D18823B9F78091BB
:100F8000E8008E778093E80028960FB6F894DEBFCD
:100F90000FBECDBFCF91DF911F910F91FF900895AC
:100FA00082E060EC42E3CCD181E061EC42E3C8C175
:100FB00084B7877F84BF88E10FB6F8948093600080
:100FC000109260000FBE80E090E020E80FB6F89429
:100FD00020936100809361000FBE86C2E9DF7894A0
:100FE0008BDFD8D4FDCFDA019330B1F0943028F400
:100FF000913041F0923079F50AC0913211F192327C
:1010000051F524C0EEEEF0E022E130E028C0E0E04F
:10101000F1E029E230E023C0813049F0813018F05E
:101020008230C9F40AC0E9E2F1E0849103C0EDE244
:10103000F1E08491282F30E012C0EBE4F1E08491DC
:10104000F9CFE2E1F1E029E030E009C0E8E9F0E0C1
:1010500026E530E004C0E0E0F0E020E030E0ED9391
:10106000FC93C90108959C014091CC035091CD039C
:101070004617570718F4F90190E03DC06115710556
:1010800011F0AB01F8CF8091E8008E778093E800F3
:1010900040E050E0F0CF8091C503882309F441C0BF
:1010A000853009F440C08091E80083FD3EC0809106
:1010B000E80082FD30C08091E80080FF1CC02091D4
:1010C000F2003091F30007C081918093F10041500C
:1010D00050402F5F3F4F4115510519F02034310525
:1010E00098F390E02034310509F491E08091E80014
:1010F0008E778093E8004115510569F6992359F6DA
:101100000AC08091C503882361F0853061F0809129
:10111000E80083FD0AC08091E80082FFF2CF80E002
:10112000089582E0089583E0089581E008959C0188
:101130004091CC035091CD034617570718F4F9019D
:1011400090E03EC06115710511F0AB01F8CF8091C0
:10115000E8008E778093E80040E050E0F0CF809187
:10116000C503882309F442C0853009F441C0809149
:10117000E80083FD3FC08091E80082FD31C080918E
:10118000E80080FF1DC02091F2003091F30008C0FC
:1011900084918093F1003196415050402F5F3F4F32
:1011A0004115510519F02034310590F390E02034B9
:1011B000310509F491E08091E8008E778093E80092
:1011C0004115510561F6992351F60AC08091C50376
:1011D000882361F0853061F08091E80083FD0AC0CA
:1011E0008091E80082FFF2CF80E0089582E00895C8
:1011F00083E0089581E00895BF92CF92DF92EF924D
:10120000FF920F931F93CF93DF93182F092F7B012A
:101210006A01EFD0B82E8823B1F5812F902F9C0161
:10122000E901C114D10439F0F60180819181E81AF5
:10123000F90AC80FD91F00E010E022C08091E80031
:1012400085FD16C08091E8008B778093E800A2D3DB
:10125000C114D10449F0F60180819181800F911F62
:101260009183808385E010C0C4D0882349F00CC0EE
:101270008091F10089930894E108F1080F5F1F4FF6
:10128000E114F104D9F68B2DDF91CF911F910F91CD
:10129000FF90EF90DF90CF90BF900895BF92CF92D4
:1012A000DF92EF92FF920F931F93CF93DF93182F4C
:1012B000092F7B016A019DD0B82E8823B1F5812FBB
:1012C000902F9C01E901C114D10439F0F60180810D
:1012D0009181E81AF90AC80FD91F00E010E022C076
:1012E0008091E80085FD16C08091E8008E7780939C
:1012F000E80050D3C114D10449F0F60180819181F6
:10130000800F911F9183808385E010C072D0882365
:1013100049F00CC089918093F1000894E108F1082C
:101320000F5F1F4FE114F104D9F68B2DDF91CF91A0
:101330001F910F91FF90EF90DF90CF90BF90089595
:10134000382F282F2EC0822F8F708093E90023170B
:1013500021F4762F942F50E006C07091EC0090910C
:10136000ED005091F00091FF1BC08091EB008E7F4B
:101370008093EB008091ED008D7F8093ED00809154
:10138000EB0081608093EB007093EC009093ED0094
:101390005093F0008091EE0087FD02C080E0089538
:1013A0002F5F273080F23F703093E90081E008958D
:1013B0008091C60388239CF404C08091C5038823D0
:1013C000B9F08091E80082FFF8CF8091E8008B7738
:1013D0008093E80008958091C503882349F08091A7
:1013E000E80080FFF8CF8091E8008E778093E800D6
:1013F00008954091E4005091E50024E68091EC00CE
:1014000080FF24C08091E80080FD1EC08091C5034C
:10141000882311F482E00895853011F483E0089563
:101420008091EB0085FF02C081E008958091E40087
:101430009091E5008417950709F3222311F484E0C5
:1014400008952150AC01DACF80E008958091E80042
:1014500082FFDCCFF9CFEF92FF920F931F9352D010
:1014600059D008ED10E0F80180818F77808380816A
:101470008068808380818F7D8083E7EDF0E08081CC
:101480008068808319BC1092C5031092C10310922A
:10149000C3031092C20380EEE82EF12CF701808185
:1014A0008B7F8083F80180818160808380E060E0B1
:1014B00042E346DFE1EEF0E080818E7F8083E2EE62
:1014C000F0E0808181608083808188608083F70183
:1014D00080818E7F8083F8018081806180831F916D
:1014E0000F91FF90EF900895E8EDF0E080818F7EFE
:1014F0008083E7EDF0E080818160808381E08093EC
:10150000C403A9CFE8EDF0E080818C7F8083109246
:10151000E20008951092DA001092E10008951F92FF
:101520000F920FB60F920BB60F9211242F933F9389
:101530004F935F936F937F938F939F93AF93BF93DB
:10154000EF93FF938091E10082FF0AC08091E20057
:1015500082FF06C08091E1008B7F8093E10019D269
:101560008091DA0080FF1DC08091D80080FF19C0F3
:101570008091DA008E7F8093DA008091D90080FF1D
:101580000CC084E189BD86E189BD09B400FEFDCFB0
:1015900081E08093C503A9DA04C019BC1092C50389
:1015A000A5DA8091E10080FF18C08091E20080FF01
:1015B00014C08091E2008E7F8093E2008091E2006F
:1015C00080618093E2008091D80080628093D8008F
:1015D00019BC85E08093C503DCD18091E10084FFD4
:1015E0002FC08091E20084FF2BC084E189BD86E199
:1015F00089BD09B400FEFDCF8091D8008F7D809316
:10160000D8008091E1008F7E8093E1008091E2001C
:101610008F7E8093E2008091E20081608093E200FF
:101620008091C103882311F084E007C08091E3001A
:1016300087FD02C081E001C083E08093C503A9D18A
:101640008091E10083FF22C08091E20083FF1EC0F1
:101650008091E100877F8093E10082E08093C50361
:101660001092C1038091E1008E7F8093E100809110
:10167000E2008E7F8093E2008091E200806180939F
:10168000E20080E060E042E35BDE83D1FF91EF9116
:10169000BF91AF919F918F917F916F915F914F918A
:1016A0003F912F910F900BBE0F900FBE0F901F9088
:1016B00018951F93DF93CF93CDB7DEB7AC970FB6D6
:1016C000F894DEBF0FBECDBFE6ECF3E08091F100F1
:1016D000819323E0EE3CF207C9F709DA8091E80034
:1016E00083FF3FC18091C6033091C703353009F4B1
:1016F0008DC0363040F43130E1F1313070F03330AC
:1017000009F02FC136C0383009F4FDC0393009F472
:101710000CC1363009F025C19CC0803821F08238D8
:1017200009F01FC108C09091C2038091C3038823B0
:10173000B1F0926014C08091CA038F70873008F0B6
:1017400010C18093E9008091EB0090E025E0969530
:1017500087952A95E1F7982F91701092E900809172
:10176000E800877F8093E8009093F1001092F100E9
:10177000D5C0882319F0823009F0F3C090E08F7152
:101780009070009721F0029709F0EBC00CC0809197
:10179000C803813009F0E5C01092C303333081F5EE
:1017A0008093C3032DC08091C803882349F52091FD
:1017B000CA032F70822F8150863008F0D2C0209348
:1017C000E9008091EB0080FF1BC0333021F4809151
:1017D000EB00806213C08091EB0080618093EB008E
:1017E00081E090E002C0880F991F2A95E2F780936C
:1017F000EA001092EA008091EB0088608093EB0091
:101800001092E9008091E800877F8BC0882309F05F
:10181000A8C01091C8031F778091E3008078812BC6
:101820008093E3008091E800877F8093E800C0DD2B
:101830008091E80080FFFCCF8091E3008068809376
:10184000E300112311F482E001C083E08093C5031B
:1018500088C08058823008F084C08091C80390917D
:10186000C90323E08C3D920709F033C083E08C83E9
:101870008AE28B837FB7F894DE0115966EE040E034
:1018800050E011E2E62FF0E010935700849140FF02
:1018900003C082958F706F5F8F70282F30E08A3081
:1018A00018F0C901C79602C0C901C0968D939D93D7
:1018B0004F5F5F4F4431510529F77FBF8091E800AA
:1018C000877F8093E800CE0103966AE270E0CBDB6D
:1018D00014C06091CA037091CB03AE014F5F5F4F9C
:1018E00082DBBC01009709F43CC08091E800877F4F
:1018F0008093E80089819A811ADC8091E8008B77D7
:101900008093E8002EC0803861F58091E800877FE1
:101910008093E8008091C1038093F1008091E800FA
:101920008E778093E80044DD1CC08823D1F4909129
:10193000C8039230B0F48091E800877F8093E8007C
:101940009093C10335DD8091C103882331F48091E8
:10195000E30087FD02C081E001C084E08093C503FD
:101960001FDB8091E80083FF0AC08091E800877F39
:101970008093E8008091EB0080628093EB00AC964E
:101980000FB6F894DEBF0FBECDBFCF91DF911F9190
:10199000089508951F938091C503882371F01091D5
:1019A000E9008091EC001092E9008091E80083FF4B
:1019B00001C07FDE1F701093E9001F910895F89415
:0219C000FFCF57
:1019C20013FA001405001396001405001396000D77
:1019D200050013FA000EFA00130A00000500130AAC
:1019E20000030500130A00010500130A000D0A0096
:1019F200130A00000A00130A00000A00130A000D6D
:101A02000A00132800000A00130A000D0A00132816
:101A1200000D0A00131400030A001314000D0A003B
:101A2200130A00000A00130A00000A00130A000D3C
:101A32000A00132800000A00130A000D0A001328E6
:101A4200000D0A00131400030A001314000D0A000B
:101A5200130A00000A00130A00000A00130A000D0C
:101A62000A00132800000A00130A000D0A001328B6
:101A7200000D0A00131400030A001314000D0A00DB
:101A8200130A00000A00130A00000A00130A000DDC
:101A92000A00132800000A00130A000D0A00132886
:101AA200000D0A00131400030A001314000D0A00AB
:101AB200130A00000A00130A00000A00130A000DAC
:101AC2000A00132800000A00130A000D0A00132856
:101AD200000D0A00131400030A001314000D0A007B
:101AE200130A00000A00130A00000A00130A000D7C
:101AF2000A00132800000A00130A000D0A00132826
:101B0200000D0A00131400030A00131E00030A004A
:101B1200130A00010A00130A000D0A00130A00004A
:101B22000A00130A00000A00130A000D0A00132813
:101B320000000A00130A000D0A001328000D0A0013
:101B4200131400030A001314000D0A00130A000004
:101B52000A00130A00000A00130A000D0A001328E3
:101B620000000A00130A000D0A001328000D0A00E3
:101B7200131400030A001314000D0A00130A0000D4
:101B82000A00130A00000A00130A000D0A001328B3
:101B920000000A00130A000D0A001328000D0A00B3
:101BA200131400030A001314000D0A00130A0000A4
:101BB2000A00130A00000A00130A000D0A00132883
:101BC20000000A00130A000D0A001328000D0A0083
:101BD200131400030A001314000D0A00130A000074
:101BE2000A00130A00000A00130A000D0A00132853
:101BF20000000A00130A000D0A001328000D0A0053
:101C0200131400030A001314000D0A00130A000043
:101C12000A00130A00000A00130A000D0A00132822
:101C220000000A00130A000D0A001328000D0A0022
:101C3200131400030A00131E00030A00130A000112
:101C42000A00130A00010A00130A00030A0013140F
:101C520000010A00130A000E0A00130A00130A0008
:00000001FF
